{"contracts/BountyPlatform.sol":{"BountyPlatform":{"abi":[{"inputs":[],"stateMutability":"nonpayable","type":"constructor"},{"anonymous":false,"inputs":[{"indexed":false,"internalType":"uint256","name":"organisationId","type":"uint256"},{"indexed":false,"internalType":"uint256","name":"bountyId","type":"uint256"},{"indexed":true,"internalType":"address","name":"hunterAddress","type":"address"},{"indexed":false,"internalType":"bool","name":"acceptanceStatus","type":"bool"}],"name":"LogAcceptSubmission","type":"event"},{"anonymous":false,"inputs":[{"indexed":false,"internalType":"uint256","name":"organisationId","type":"uint256"},{"indexed":false,"internalType":"string","name":"title","type":"string"},{"indexed":true,"internalType":"address payable","name":"bountyCreator","type":"address"},{"indexed":false,"internalType":"string","name":"descriptionGithubLink","type":"string"},{"indexed":false,"internalType":"uint256","name":"bountyAmount","type":"uint256"},{"indexed":false,"internalType":"uint256","name":"startTime","type":"uint256"},{"indexed":false,"internalType":"uint256","name":"endTIme","type":"uint256"}],"name":"LogBounty","type":"event"},{"anonymous":false,"inputs":[{"indexed":false,"internalType":"uint256","name":"organisationId","type":"uint256"},{"indexed":false,"internalType":"uint256","name":"bountyId","type":"uint256"},{"indexed":true,"internalType":"address","name":"bountyHounterAddress","type":"address"}],"name":"LogJoinBounty","type":"event"},{"anonymous":false,"inputs":[{"indexed":false,"internalType":"uint256","name":"id","type":"uint256"},{"indexed":true,"internalType":"address","name":"memberAdress","type":"address"}],"name":"LogMember","type":"event"},{"anonymous":false,"inputs":[{"indexed":false,"internalType":"uint256","name":"id","type":"uint256"},{"indexed":false,"internalType":"string","name":"name","type":"string"},{"indexed":false,"internalType":"string","name":"logoIPFS","type":"string"},{"indexed":false,"internalType":"address payable","name":"creatorAddress","type":"address"},{"indexed":false,"internalType":"uint256","name":"totalBountiesCreated","type":"uint256"},{"indexed":false,"internalType":"uint256","name":"totalAmountSpent","type":"uint256"},{"indexed":false,"internalType":"uint256","name":"totalMembers","type":"uint256"}],"name":"LogOrganisation","type":"event"},{"anonymous":false,"inputs":[{"indexed":false,"internalType":"uint256","name":"id","type":"uint256"},{"indexed":false,"internalType":"uint256","name":"organizationId","type":"uint256"},{"indexed":true,"internalType":"address","name":"memberAdress","type":"address"}],"name":"LogOrganisationMember","type":"event"},{"anonymous":false,"inputs":[{"indexed":false,"internalType":"uint256","name":"organisationId","type":"uint256"},{"indexed":false,"internalType":"uint256","name":"bountyId","type":"uint256"},{"indexed":false,"internalType":"uint256","name":"amount","type":"uint256"}],"name":"LogPayBountyWinners","type":"event"},{"anonymous":false,"inputs":[{"indexed":false,"internalType":"uint256","name":"submissionId","type":"uint256"},{"indexed":false,"internalType":"uint256","name":"organisationId","type":"uint256"},{"indexed":false,"internalType":"uint256","name":"bountyId","type":"uint256"},{"indexed":true,"internalType":"address payable","name":"participant","type":"address"},{"indexed":false,"internalType":"string","name":"submissionLink","type":"string"},{"indexed":false,"internalType":"bool","name":"acceptanceStatus","type":"bool"},{"indexed":false,"internalType":"uint256","name":"earnings","type":"uint256"}],"name":"LogSubmitWork","type":"event"},{"anonymous":false,"inputs":[{"indexed":false,"internalType":"uint256","name":"organisationId","type":"uint256"},{"indexed":false,"internalType":"uint256","name":"bountyId","type":"uint256"},{"indexed":false,"internalType":"string","name":"submissionLink","type":"string"}],"name":"LogUpdateSubmission","type":"event"},{"inputs":[{"internalType":"uint256","name":"_organisationId","type":"uint256"},{"internalType":"uint256","name":"_bountyId","type":"uint256"},{"internalType":"address","name":"hunterAddress","type":"address"}],"name":"acceptSubmissions","outputs":[],"stateMutability":"nonpayable","type":"function"},{"inputs":[],"name":"createAccount","outputs":[],"stateMutability":"nonpayable","type":"function"},{"inputs":[{"internalType":"uint256","name":"organisationId","type":"uint256"},{"internalType":"string","name":"title","type":"string"},{"internalType":"string","name":"descriptionGithubLink","type":"string"},{"internalType":"uint256","name":"startTime","type":"uint256"},{"internalType":"uint256","name":"endTime","type":"uint256"}],"name":"createBounty","outputs":[],"stateMutability":"payable","type":"function"},{"inputs":[{"internalType":"string","name":"name","type":"string"},{"internalType":"string","name":"logoIPFS","type":"string"}],"name":"createOrganisation","outputs":[],"stateMutability":"nonpayable","type":"function"},{"inputs":[{"internalType":"uint256","name":"_organisationId","type":"uint256"},{"internalType":"uint256","name":"_bountyId","type":"uint256"}],"name":"deleteHunterSubmission","outputs":[],"stateMutability":"nonpayable","type":"function"},{"inputs":[],"name":"getAllBountiesCount","outputs":[{"internalType":"uint256","name":"","type":"uint256"}],"stateMutability":"view","type":"function"},{"inputs":[{"internalType":"uint256","name":"_organisationId","type":"uint256"},{"internalType":"uint256","name":"_bountyid","type":"uint256"}],"name":"getBountyStatus","outputs":[{"internalType":"uint256","name":"","type":"uint256"}],"stateMutability":"view","type":"function"},{"inputs":[],"name":"getMemberCount","outputs":[{"internalType":"uint256","name":"","type":"uint256"}],"stateMutability":"view","type":"function"},{"inputs":[],"name":"getMembers","outputs":[{"components":[{"internalType":"uint256","name":"id","type":"uint256"},{"internalType":"address","name":"memberAdress","type":"address"}],"internalType":"struct BountyPlatform.Member[]","name":"","type":"tuple[]"}],"stateMutability":"view","type":"function"},{"inputs":[{"internalType":"uint256","name":"id","type":"uint256"}],"name":"getOrganisation","outputs":[{"internalType":"uint256","name":"_id","type":"uint256"},{"internalType":"string","name":"name","type":"string"},{"internalType":"string","name":"logoIPFS","type":"string"},{"internalType":"address","name":"creator","type":"address"},{"internalType":"uint256","name":"totalBountiesCreated","type":"uint256"},{"internalType":"uint256","name":"totalAmountSpent","type":"uint256"},{"internalType":"uint256","name":"totalMembers","type":"uint256"}],"stateMutability":"view","type":"function"},{"inputs":[{"internalType":"uint256","name":"_organisationId","type":"uint256"}],"name":"getOrganisationBounties","outputs":[{"components":[{"internalType":"uint256","name":"organisationId","type":"uint256"},{"internalType":"uint256","name":"bountyId","type":"uint256"},{"internalType":"string","name":"title","type":"string"},{"internalType":"address payable","name":"bountyCreator","type":"address"},{"internalType":"string","name":"descriptionGithubLink","type":"string"},{"internalType":"uint256","name":"bountyAmount","type":"uint256"},{"internalType":"uint256","name":"startTime","type":"uint256"},{"internalType":"uint256","name":"endTime","type":"uint256"},{"internalType":"enum BountyPlatform.BountyStatus","name":"status","type":"uint8"},{"internalType":"uint256","name":"totalBounterHunters","type":"uint256"},{"internalType":"uint256","name":"totalSubmittedWorks","type":"uint256"}],"internalType":"struct BountyPlatform.Bounty[]","name":"","type":"tuple[]"}],"stateMutability":"view","type":"function"},{"inputs":[{"internalType":"uint256","name":"_organisationId","type":"uint256"}],"name":"getOrganisationMembers","outputs":[{"components":[{"internalType":"uint256","name":"id","type":"uint256"},{"internalType":"address","name":"memberAdress","type":"address"}],"internalType":"struct BountyPlatform.Member[]","name":"","type":"tuple[]"}],"stateMutability":"view","type":"function"},{"inputs":[],"name":"getOrganisations","outputs":[{"components":[{"internalType":"uint256","name":"id","type":"uint256"},{"internalType":"string","name":"name","type":"string"},{"internalType":"string","name":"logoIPFS","type":"string"},{"internalType":"address payable","name":"creatorAddress","type":"address"},{"internalType":"uint256","name":"totalBountiesCreated","type":"uint256"},{"internalType":"uint256","name":"totalAmountSpent","type":"uint256"},{"internalType":"uint256","name":"totalMembers","type":"uint256"}],"internalType":"struct BountyPlatform.Organisation[]","name":"","type":"tuple[]"}],"stateMutability":"view","type":"function"},{"inputs":[],"name":"getSubmissionCount","outputs":[{"internalType":"uint256","name":"","type":"uint256"}],"stateMutability":"view","type":"function"},{"inputs":[{"internalType":"uint256","name":"_organisationId","type":"uint256"},{"internalType":"uint256","name":"_bountyId","type":"uint256"}],"name":"getUserSubmission","outputs":[{"components":[{"internalType":"uint256","name":"submissionId","type":"uint256"},{"internalType":"uint256","name":"organisationId","type":"uint256"},{"internalType":"uint256","name":"bountyId","type":"uint256"},{"internalType":"address payable","name":"participant","type":"address"},{"internalType":"string","name":"submissionLink","type":"string"},{"internalType":"bool","name":"acceptanceStatus","type":"bool"},{"internalType":"uint256","name":"earnings","type":"uint256"}],"internalType":"struct BountyPlatform.SubmitWork","name":"","type":"tuple"}],"stateMutability":"view","type":"function"},{"inputs":[{"internalType":"uint256","name":"_bountyId","type":"uint256"},{"internalType":"uint256","name":"_organisationId","type":"uint256"}],"name":"joinBounty","outputs":[],"stateMutability":"nonpayable","type":"function"},{"inputs":[{"internalType":"uint256","name":"_organisationId","type":"uint256"}],"name":"joinOrganisation","outputs":[],"stateMutability":"nonpayable","type":"function"},{"inputs":[{"internalType":"uint256","name":"_organisationId","type":"uint256"},{"internalType":"uint256","name":"_bountyId","type":"uint256"}],"name":"payBountyWinners","outputs":[],"stateMutability":"payable","type":"function"},{"inputs":[{"internalType":"uint256","name":"_organisationId","type":"uint256"},{"internalType":"uint256","name":"_bountyId","type":"uint256"}],"name":"removeBounty","outputs":[],"stateMutability":"nonpayable","type":"function"},{"inputs":[{"internalType":"uint256","name":"_organizationId","type":"uint256"}],"name":"removeOrganization","outputs":[],"stateMutability":"nonpayable","type":"function"},{"inputs":[{"internalType":"uint256","name":"_bountyId","type":"uint256"},{"internalType":"uint256","name":"_organisationId","type":"uint256"},{"internalType":"string","name":"_submissionLink","type":"string"}],"name":"submitWork","outputs":[],"stateMutability":"nonpayable","type":"function"},{"inputs":[{"internalType":"uint256","name":"_organisationId","type":"uint256"},{"internalType":"uint256","name":"_bountyId","type":"uint256"},{"internalType":"string","name":"_submissionLink","type":"string"}],"name":"updateSubmission","outputs":[],"stateMutability":"nonpayable","type":"function"},{"stateMutability":"payable","type":"receive"}],"evm":{"bytecode":{"linkReferences":{},"object":"608060405234801561001057600080fd5b50600580546001600160a01b0319163317905561415a806100326000396000f3fe6080604052600436106101395760003560e01c80639dca362f116100ab578063def79c6c1161006f578063def79c6c14610354578063eaffd42914610374578063f05c1d6114610396578063f0daac1c146103b6578063f4156a25146103d6578063fb746580146103e957600080fd5b80639dca362f146102d55780639e6a5fa0146102ea5780639eab5253146102ff578063a35eab0d14610314578063c34f0cf71461033457600080fd5b8063827369d9116100fd578063827369d914610210578063895f750f146102305780638a8485b81461025d5780638b9483811461028b578063997072f7146102ab5780639999d2ae146102c057600080fd5b806310efb62e146101455780631b2029621461017b5780634efa0f4f146101a857806350ce1d9b146101ca57806375543074146101dd57600080fd5b3661014057005b600080fd5b34801561015157600080fd5b50610165610160366004613501565b610409565b6040516101729190613598565b60405180910390f35b34801561018757600080fd5b5061019b61019636600461369b565b610630565b60405161017291906136bd565b3480156101b457600080fd5b506101c86101c336600461369b565b610792565b005b6101c86101d836600461369b565b610ad4565b3480156101e957600080fd5b506101fd6101f8366004613501565b611084565b604051610172979695949392919061372c565b34801561021c57600080fd5b506101c861022b36600461369b565b6112d4565b34801561023c57600080fd5b5061025061024b366004613501565b611584565b6040516101729190613787565b34801561026957600080fd5b5061027d61027836600461369b565b611601565b604051908152602001610172565b34801561029757600080fd5b506101c86102a6366004613882565b611696565b3480156102b757600080fd5b5060025461027d565b3480156102cc57600080fd5b5060045461027d565b3480156102e157600080fd5b506101c8611a16565b3480156102f657600080fd5b5060015461027d565b34801561030b57600080fd5b50610250611b91565b34801561032057600080fd5b506101c861032f366004613501565b611c06565b34801561034057600080fd5b506101c861034f3660046138e6565b611cfd565b34801561036057600080fd5b506101c861036f366004613936565b6121ba565b34801561038057600080fd5b506103896124d9565b604051610172919061397b565b3480156103a257600080fd5b506101c86103b1366004613501565b612694565b3480156103c257600080fd5b506101c86103d13660046138e6565b612811565b6101c86103e4366004613a2f565b612b80565b3480156103f557600080fd5b506101c861040436600461369b565b61326e565b6060600c6000838152602001908152602001600020805480602002602001604051908101604052809291908181526020016000905b8282101561062557838290600052602060002090600b020160405180610160016040529081600082015481526020016001820154815260200160028201805461048690613aae565b80601f01602080910402602001604051908101604052809291908181526020018280546104b290613aae565b80156104ff5780601f106104d4576101008083540402835291602001916104ff565b820191906000526020600020905b8154815290600101906020018083116104e257829003601f168201915b505050918352505060038201546001600160a01b0316602082015260048201805460409092019161052f90613aae565b80601f016020809104026020016040519081016040528092919081815260200182805461055b90613aae565b80156105a85780601f1061057d576101008083540402835291602001916105a8565b820191906000526020600020905b81548152906001019060200180831161058b57829003601f168201915b5050509183525050600582015460208201526006820154604082015260078201546060820152600882015460809091019060ff1660028111156105ed576105ed613560565b60028111156105fe576105fe613560565b815260200160098201548152602001600a820154815250508152602001906001019061043e565b505050509050919050565b61067b6040518060e0016040528060008152602001600081526020016000815260200160006001600160a01b0316815260200160608152602001600015158152602001600081525090565b3360009081526017602090815260408083208684528252808320858452825291829020825160e0810184528154815260018201549281019290925260028101549282019290925260038201546001600160a01b031660608201526004820180549192916080840191906106ed90613aae565b80601f016020809104026020016040519081016040528092919081815260200182805461071990613aae565b80156107665780601f1061073b57610100808354040283529160200191610766565b820191906000526020600020905b81548152906001019060200180831161074957829003601f168201915b5050509183525050600582015460ff161515602082015260069091015460409091015290505b92915050565b6000818152600c6020526040902080548291908190839081106107b7576107b7613ae8565b90600052602060002090600b0201600601544210156107f15760405162461bcd60e51b81526004016107e890613afe565b60405180910390fd5b80828154811061080357610803613ae8565b90600052602060002090600b0201600701544210156108345760405162461bcd60e51b81526004016107e890613b2e565b6000848152600c60205260409020805485918591839082908290811061085c5761085c613ae8565b90600052602060002090600b0201600101541461088b5760405162461bcd60e51b81526004016107e890613b65565b336000908152601460209081526040808320858452825280832086845290915290205460ff166108cd5760405162461bcd60e51b81526004016107e890613b94565b6000868152600c6020526040902080548190889081106108ef576108ef613ae8565b60009182526020909120600b90910201600301546001600160a01b0316331461092a5760405162461bcd60e51b81526004016107e890613bd7565b8054819061093a90600190613c24565b8154811061094a5761094a613ae8565b90600052602060002090600b020181888154811061096a5761096a613ae8565b90600052602060002090600b02016000820154816000015560018201548160010155600282018160020190816109a09190613c86565b5060038281015490820180546001600160a01b0319166001600160a01b039092169190911790556004808201906109d990840182613c86565b50600582810154908201556006808301549082015560078083015490820155600880830154908201805460ff9092169160ff19166001836002811115610a2157610a21613560565b021790555060098281015490820155600a918201549101558054819080610a4a57610a4a613d67565b600082815260208120600b600019909301928302018181556001810182905590610a7760028301826134ab565b6003820180546001600160a01b0319169055610a976004830160006134ab565b50600060058201819055600682018190556007820181905560088201805460ff1916905560098201819055600a9091015590555050505050505050565b600554600160a01b900460ff1615610b1f5760405162461bcd60e51b815260206004820152600e60248201526d4e6f2072652d656e7472616e637960901b60448201526064016107e8565b6005805460ff60a01b1916600160a01b1790556000828152600c6020526040902080548391839133919083908110610b5957610b59613ae8565b600091825260209091206003600b9092020101546001600160a01b031614610b935760405162461bcd60e51b81526004016107e890613d7d565b6000838152600c602052604090208054849186918390829082908110610bbb57610bbb613ae8565b90600052602060002090600b02016001015414610bea5760405162461bcd60e51b81526004016107e890613b65565b336000908152601460209081526040808320858452825280832086845290915290205460ff16610c2c5760405162461bcd60e51b81526004016107e890613b94565b6000868152600c602052604090208054879190819083908110610c5157610c51613ae8565b90600052602060002090600b020160060154421015610c825760405162461bcd60e51b81526004016107e890613afe565b808281548110610c9457610c94613ae8565b90600052602060002090600b020160070154421015610cc55760405162461bcd60e51b81526004016107e890613b2e565b6000898152600c6020526040812080548a908110610ce557610ce5613ae8565b90600052602060002090600b0201905060008160050154905060008082471015610d515760405162461bcd60e51b815260206004820152601d60248201527f496e73756666696369656e7420636f6e74726163742062616c616e636500000060448201526064016107e8565b60005b600a54811015610e10578d600a8281548110610d7257610d72613ae8565b906000526020600020906007020160010154148015610db457508c600a8281548110610da057610da0613ae8565b906000526020600020906007020160020154145b8015610deb5750600a8181548110610dce57610dce613ae8565b600091825260209091206005600790920201015460ff1615156001145b15610dfe5782610dfa81613db4565b9350505b80610e0881613db4565b915050610d54565b5060008211610e615760405162461bcd60e51b815260206004820152601d60248201527f4e6f206163636570746564207375626d697373696f6e7320666f756e6400000060448201526064016107e8565b610e6b8284613dcd565b90506000610e798383613def565b905047811115610ede5760405162461bcd60e51b815260206004820152602a60248201527f496e73756666696369656e7420636f6e74726163742062616c616e636520666f60448201526939103a3930b739b332b960b11b60648201526084016107e8565b60005b600a54811015611025578e600a8281548110610eff57610eff613ae8565b906000526020600020906007020160010154148015610f4157508d600a8281548110610f2d57610f2d613ae8565b906000526020600020906007020160020154145b8015610f785750600a8181548110610f5b57610f5b613ae8565b600091825260209091206005600790920201015460ff1615156001145b1561101357600a8181548110610f9057610f90613ae8565b600091825260208220600360079092020101546040516001600160a01b039091169185156108fc02918691818181858888f19350505050158015610fd8573d6000803e3d6000fd5b5082600a8281548110610fed57610fed613ae8565b9060005260206000209060070201600601600082825461100d9190613e06565b90915550505b8061101d81613db4565b915050610ee1565b50604080518f8152602081018f90529081018390527fb885bbc0d1b231f7586921272add84ac223bada880c846c1a4a623e4fbacce839060600160405180910390a150506005805460ff60a01b19169055505050505050505050505050565b6000606080600080600080600688815481106110a2576110a2613ae8565b906000526020600020906007020160000154600689815481106110c7576110c7613ae8565b906000526020600020906007020160010160068a815481106110eb576110eb613ae8565b906000526020600020906007020160020160068b8154811061110f5761110f613ae8565b906000526020600020906007020160030160009054906101000a90046001600160a01b031660068c8154811061114757611147613ae8565b90600052602060002090600702016004015460068d8154811061116c5761116c613ae8565b90600052602060002090600702016005015460068e8154811061119157611191613ae8565b9060005260206000209060070201600601548580546111af90613aae565b80601f01602080910402602001604051908101604052809291908181526020018280546111db90613aae565b80156112285780601f106111fd57610100808354040283529160200191611228565b820191906000526020600020905b81548152906001019060200180831161120b57829003601f168201915b5050505050955084805461123b90613aae565b80601f016020809104026020016040519081016040528092919081815260200182805461126790613aae565b80156112b45780601f10611289576101008083540402835291602001916112b4565b820191906000526020600020905b81548152906001019060200180831161129757829003601f168201915b505050505094509650965096509650965096509650919395979092949650565b3360009081526012602052604090205460ff166113035760405162461bcd60e51b81526004016107e890613e19565b336000908152601560209081526040808320848452909152902054819060ff1661133f5760405162461bcd60e51b81526004016107e890613e5c565b806006828154811061135357611353613ae8565b906000526020600020906007020160000154146113825760405162461bcd60e51b81526004016107e890613ea9565b6000838152600c60205260409020805484908290829081106113a6576113a6613ae8565b90600052602060002090600b020160010154146113d55760405162461bcd60e51b81526004016107e890613b65565b336000908152601460209081526040808320868452825280832087845290915290205460ff161561145d5760405162461bcd60e51b815260206004820152602c60248201527f596f752061726520616c72656164792061207061727469636970616e74206f6660448201526b207468697320626f756e747960a01b60648201526084016107e8565b4281858154811061147057611470613ae8565b90600052602060002090600b02016007015410156114a05760405162461bcd60e51b81526004016107e890613ee0565b60018185815481106114b4576114b4613ae8565b90600052602060002090600b020160090160008282546114d49190613e06565b90915550503360008181526019602090815260408083208784528252808320888452825280832080546001808201835582865284862090910180546001600160a01b031916871790558585526014845282852089865284528285208a8652845293829020805460ff191690941790935580518781529182018890529192917fa770b4a6702019b88a013be33923b1874d4c905c6a5e877197db52932eb5e78e910160405180910390a25050505050565b6060600f6000838152602001908152602001600020805480602002602001604051908101604052809291908181526020016000905b828210156106255760008481526020908190206040805180820190915260028502909101805482526001908101546001600160a01b03168284015290835290920191016115b9565b6000828152600c602052604081208054829182918590811061162557611625613ae8565b90600052602060002090600b02019050806006015442101561164a576000915061166f565b8060070154421161165e576001915061166f565b806007015442111561166f57600291505b600554600160a81b900460ff16600281111561168d5761168d613560565b95945050505050565b3360009081526012602052604090205460ff166116c55760405162461bcd60e51b81526004016107e890613e19565b816000805b600654811015611735578280519060200120600682815481106116ef576116ef613ae8565b906000526020600020906007020160010160405161170d9190613f0a565b6040518091039020036117235760019150611735565b8061172d81613db4565b9150506116ca565b5080156117975760405162461bcd60e51b815260206004820152602a60248201527f4f7267616e697a6174696f6e20776974682074686174206e616d6520616c72656044820152696164792065786973747360b01b60648201526084016107e8565b600080548152600e6020526040902084516117f45760405162461bcd60e51b815260206004820152601a60248201527f4f7267616e69736174696f6e206e616d6520726571756972656400000000000060448201526064016107e8565b60008451116118455760405162461bcd60e51b815260206004820152601d60248201527f4f7267616e69736174696f6e206c6f676f20697320726571756972656400000060448201526064016107e8565b60008054825580806001840161185b8982613f80565b506002840161186a8882613f80565b50600484018390556005840182905560068085018290556003850180546001600160a01b031916339081179091556040805160e081018252600080548252602082018d81529282018c905260608201939093526080810187905260a0810186905260c08101859052835460018101855593909252815160079093027ff652222313e28459528d920b65115c16c04f3efc82aaedc97be59f3f377c0d3f810193845590519192917ff652222313e28459528d920b65115c16c04f3efc82aaedc97be59f3f377c0d409091019061193f9082613f80565b50604082015160028201906119549082613f80565b5060608201516003820180546001600160a01b0319166001600160a01b039092169190911790556080820151600482015560a0820151600582015560c0909101516006909101556000805490806119aa83613db4565b9091555050336000818152601a6020526040808220805460ff19166001179055905490517fedf617efeffc15bbafe74ba4f21aa754d5f662ed143c1982b4c41bcce41aa6b192611a0492918c918c9189908990899061372c565b60405180910390a15050505050505050565b3360009081526012602052604090205460ff1615611a6e5760405162461bcd60e51b81526020600482015260156024820152741058d8dbdd5b9d08185b1c9958591e48195e1a5cdd605a1b60448201526064016107e8565b336000818152601160209081526040808320600280548255600180830180546001600160a01b03199081168917909155845180860190955282548552948401968752600880549182018155865292517ff3f7a9fe364faab93b216da50a3214154f22a0a2b415b23a84c8169e8b636ee39382029384015594517ff3f7a9fe364faab93b216da50a3214154f22a0a2b415b23a84c8169e8b636ee490920180549093166001600160a01b0390921691909117909155825490929091611b3183613db4565b90915550503360008181526012602052604090819020805460ff1916600117905560025490517f16dbea9e6c62a3d68d52370cb8a42062bfbb274308a5365738a79642c72f58a491611b869190815260200190565b60405180910390a250565b60606008805480602002602001604051908101604052809291908181526020016000905b82821015611bfd5760008481526020908190206040805180820190915260028502909101805482526001908101546001600160a01b0316828401529083529092019101611bb5565b50505050905090565b6000818152600e602052604090206003015481906001600160a01b03163314611c415760405162461bcd60e51b81526004016107e890613bd7565b60068281548110611c5457611c54613ae8565b60009182526020909120600790910201600301546001600160a01b03163314611c8f5760405162461bcd60e51b81526004016107e890613bd7565b60068281548110611ca257611ca2613ae8565b60009182526020822060079091020181815590611cc260018301826134ab565b611cd06002830160006134ab565b506003810180546001600160a01b0319169055600060048201819055600582018190556006909101555050565b3360009081526012602052604090205460ff16611d2c5760405162461bcd60e51b81526004016107e890613e19565b336000908152601560209081526040808320858452909152902054829060ff16611d685760405162461bcd60e51b81526004016107e890613e5c565b8060068281548110611d7c57611d7c613ae8565b90600052602060002090600702016000015414611dab5760405162461bcd60e51b81526004016107e890613ea9565b6000838152600c602052604090208054849186918390829082908110611dd357611dd3613ae8565b90600052602060002090600b02016001015414611e025760405162461bcd60e51b81526004016107e890613b65565b336000908152601460209081526040808320858452825280832086845290915290205460ff16611e445760405162461bcd60e51b81526004016107e890613b94565b3360009081526013602052604090205460ff1615611e9c5760405162461bcd60e51b8152602060048201526015602482015274165bdd48185b1c9958591e481cdd589b5a5d1d1959605a1b60448201526064016107e8565b6000878152600c602052604090208054429082908a908110611ec057611ec0613ae8565b90600052602060002090600b0201600701541015611ef05760405162461bcd60e51b81526004016107e890613ee0565b808881548110611f0257611f02613ae8565b90600052602060002090600b020160060154421015611f335760405162461bcd60e51b81526004016107e890613afe565b3360009081526017602090815260408083208a845282528083208b8452909152812060058101805460ff191690556004805482558101611f738982613f80565b506003810180546001600160a01b0319163317905560018101899055600281018a9055600681018054839190600090611fad908490613e06565b90915550506040805160e0810182526004548152602081018b81529181018c81523360608301908152608083018c8152600060a0850181905260c08501889052600a8054600181018255915284517fc65a7bb8d6351c1cf70c95a316cc6a92839c986682d98bc35f958f4883f9d2a8600790920291820190815595517fc65a7bb8d6351c1cf70c95a316cc6a92839c986682d98bc35f958f4883f9d2a982015592517fc65a7bb8d6351c1cf70c95a316cc6a92839c986682d98bc35f958f4883f9d2aa84015590517fc65a7bb8d6351c1cf70c95a316cc6a92839c986682d98bc35f958f4883f9d2ab830180546001600160a01b0319166001600160a01b03909216919091179055519192917fc65a7bb8d6351c1cf70c95a316cc6a92839c986682d98bc35f958f4883f9d2ac909101906120e89082613f80565b5060a082015160058201805460ff191691151591909117905560c0909101516006909101556004805490600061211d83613db4565b9190505550600160136000336001600160a01b03166001600160a01b0316815260200190815260200160002060006101000a81548160ff021916908315150217905550336001600160a01b03167f6de6dffdc759fa37433a5973fd211595feabee2e5015de6f7e9d3b4eea89079c6004548b8d8c6000886040516121a69695949392919061403a565b60405180910390a250505050505050505050565b6000828152600c6020526040902080548391859183908290829081106121e2576121e2613ae8565b90600052602060002090600b020160010154146122115760405162461bcd60e51b81526004016107e890613b65565b336000908152601460209081526040808320858452825280832086845290915290205460ff166122535760405162461bcd60e51b81526004016107e890613b94565b6000868152600c602052604090208054879187913391908390811061227a5761227a613ae8565b600091825260209091206003600b9092020101546001600160a01b0316146122b45760405162461bcd60e51b81526004016107e890613d7d565b6000878152600c6020526040902080548891908190839081106122d9576122d9613ae8565b90600052602060002090600b02016006015442101561230a5760405162461bcd60e51b81526004016107e890613afe565b80828154811061231c5761231c613ae8565b90600052602060002090600b02016007015442101561234d5760405162461bcd60e51b81526004016107e890613b2e565b6001600160a01b03881660009081526017602090815260408083208d845282528083208c8452909152812060058101805460ff19166001179055905b600a5481101561247f578b600a82815481106123a7576123a7613ae8565b9060005260206000209060070201600101541480156123e957508a600a82815481106123d5576123d5613ae8565b906000526020600020906007020160020154145b801561242c5750896001600160a01b0316600a828154811061240d5761240d613ae8565b60009182526020909120600360079092020101546001600160a01b0316145b1561246d576001600a828154811061244657612446613ae8565b60009182526020909120600790910201600501805460ff191691151591909117905561247f565b8061247781613db4565b915050612389565b50604080518c8152602081018c905260018183015290516001600160a01b038b16917f995704e97116d1a6ef6a581766959cef232aecef4c869437016cb623f3e94246919081900360600190a25050505050505050505050565b60606006805480602002602001604051908101604052809291908181526020016000905b82821015611bfd57838290600052602060002090600702016040518060e00160405290816000820154815260200160018201805461253a90613aae565b80601f016020809104026020016040519081016040528092919081815260200182805461256690613aae565b80156125b35780601f10612588576101008083540402835291602001916125b3565b820191906000526020600020905b81548152906001019060200180831161259657829003601f168201915b505050505081526020016002820180546125cc90613aae565b80601f01602080910402602001604051908101604052809291908181526020018280546125f890613aae565b80156126455780601f1061261a57610100808354040283529160200191612645565b820191906000526020600020905b81548152906001019060200180831161262857829003601f168201915b505050918352505060038201546001600160a01b0316602080830191909152600483015460408301526005830154606083015260069092015460809091015290825260019290920191016124fd565b3360009081526012602052604090205460ff166126c35760405162461bcd60e51b81526004016107e890613e19565b33600090815260156020908152604080832084845290915290205460ff16156126fe5760405162461bcd60e51b81526004016107e890613e5c565b60016006828154811061271357612713613ae8565b906000526020600020906007020160060160008282546127339190613e06565b90915550506000818152600f602090815260408083208151808301909252600280548352338385019081528254600180820185558488529587209451920290930190815591519190920180546001600160a01b0319166001600160a01b039092169190911790556003805491926127a983613db4565b9091555050336000818152601560209081526040808320868452825291829020805460ff1916600117905560035482519081529081018590527fb79503e171b679983ab6f2cd2ca7ddc737b19b5695e756c9f68919b93069a090910160405180910390a25050565b3360009081526012602052604090205460ff166128405760405162461bcd60e51b81526004016107e890613e19565b336000908152601560209081526040808320868452909152902054839060ff1661287c5760405162461bcd60e51b81526004016107e890613e5c565b806006828154811061289057612890613ae8565b906000526020600020906007020160000154146128bf5760405162461bcd60e51b81526004016107e890613ea9565b6000838152600c6020526040902080548491869183908290829081106128e7576128e7613ae8565b90600052602060002090600b020160010154146129165760405162461bcd60e51b81526004016107e890613b65565b336000908152601460209081526040808320858452825280832086845290915290205460ff166129585760405162461bcd60e51b81526004016107e890613b94565b6000868152600c60209081526040808320338452601783528184208b855283528184208a8552909252909120600481016129928882613f80565b5060038101546001600160a01b031633146129bf5760405162461bcd60e51b81526004016107e890614074565b8188815481106129d1576129d1613ae8565b90600052602060002090600b020160060154421015612a025760405162461bcd60e51b81526004016107e890613afe565b42828981548110612a1557612a15613ae8565b90600052602060002090600b0201600701541015612a455760405162461bcd60e51b81526004016107e890613ee0565b60005b600a54811015612b395789600a8281548110612a6657612a66613ae8565b906000526020600020906007020160010154148015612aa8575088600a8281548110612a9457612a94613ae8565b906000526020600020906007020160020154145b8015612aeb5750336001600160a01b0316600a8281548110612acc57612acc613ae8565b60009182526020909120600360079092020101546001600160a01b0316145b15612b275787600a8281548110612b0457612b04613ae8565b90600052602060002090600702016004019081612b219190613f80565b50612b39565b80612b3181613db4565b915050612a48565b507fde198e72ee516ea544067ce06fe486c999e09aabe3e3bac9d451f6291696a31e898989604051612b6d939291906140bb565b60405180910390a1505050505050505050565b3360009081526012602052604090205460ff16612baf5760405162461bcd60e51b81526004016107e890613e19565b336000908152601560209081526040808320888452909152902054859060ff16612beb5760405162461bcd60e51b81526004016107e890613e5c565b8060068281548110612bff57612bff613ae8565b90600052602060002090600702016000015414612c2e5760405162461bcd60e51b81526004016107e890613ea9565b600554600160a01b900460ff1615612c795760405162461bcd60e51b815260206004820152600e60248201526d4e6f2072652d656e7472616e637960901b60448201526064016107e8565b6005805460ff60a01b1916600160a01b179055336000908152600b60205260408120546006805483929183918b908110612cb557612cb5613ae8565b9060005260206000209060070201905034816005016000828254612cd99190613e06565b925050819055506001816004016000828254612cf59190613e06565b909155505060008a8152600c60205260409020428811612d675760405162461bcd60e51b815260206004820152602760248201527f426f756e74792073746172742074696d65206d75737420626520696e207468656044820152662066757475726560c81b60648201526084016107e8565b878711612dc75760405162461bcd60e51b815260206004820152602860248201527f426f756e747920656e642074696d65206d7573742062652061667465722073746044820152676172742074696d6560c01b60648201526084016107e8565b60038201546001600160a01b03163314612e495760405162461bcd60e51b815260206004820152603b60248201527f596f7520617265206e6f7420617574686f726973656420746f20706f7374206260448201527f6f756e747920666f722074686973206f7267616e69736174696f6e000000000060648201526084016107e8565b60003411612ea85760405162461bcd60e51b815260206004820152602660248201527f426f756e747920616d6f756e742073686f756c6420626520677265617465722060448201526507468616e20360d41b60648201526084016107e8565b6005805460ff60a81b19169081905560408051610160810182528d815260015460208201529081018c9052336060820152608081018b90523460a082015260c081018a905260e081018990528291610100820190600160a81b900460ff166002811115612f1757612f17613560565b8152602080820189905260409182018890528354600181810186556000958652948290208451600b9092020190815590830151938101939093558101519091906002820190612f669082613f80565b5060608201516003820180546001600160a01b0319166001600160a01b0390921691909117905560808201516004820190612fa19082613f80565b5060a0820151600582015560c0820151600682015560e0820151600782015561010082015160088201805460ff19166001836002811115612fe457612fe4613560565b0217905550610120820151816009015561014082015181600a0155505060076040518061016001604052808d815260200160015481526020018c8152602001336001600160a01b031681526020018b81526020013481526020018a8152602001898152602001600560159054906101000a900460ff16600281111561306b5761306b613560565b8152602080820189905260409182018890528354600181810186556000958652948290208451600b90920201908155908301519381019390935581015190919060028201906130ba9082613f80565b5060608201516003820180546001600160a01b0319166001600160a01b03909216919091179055608082015160048201906130f59082613f80565b5060a0820151600582015560c0820151600682015560e0820151600782015561010082015160088201805460ff1916600183600281111561313857613138613560565b0217905550610120820151600982015561014090910151600a909101558261315f81613db4565b60018054919550909150600061317483613db4565b9091555050604051600090309034908381818185875af1925050503d80600081146131bb576040519150601f19603f3d011682016040523d82523d6000602084013e6131c0565b606091505b50509050806132085760405162461bcd60e51b81526020600482015260146024820152732330b4b632b2103a379039b2b7321022ba3432b960611b60448201526064016107e8565b336001600160a01b03167f7f525b52319efa59220972521cedbc5ed8835e26dcbede28bef46a736a7f10f08d8d8d348e8e60405161324b969594939291906140da565b60405180910390a250506005805460ff60a01b1916905550505050505050505050565b336000908152601560209081526040808320858452909152902054829060ff166132aa5760405162461bcd60e51b81526004016107e890613e5c565b80600682815481106132be576132be613ae8565b906000526020600020906007020160000154146132ed5760405162461bcd60e51b81526004016107e890613ea9565b6000828152600c60205260409020805483918591839082908290811061331557613315613ae8565b90600052602060002090600b020160010154146133445760405162461bcd60e51b81526004016107e890613b65565b336000908152601460209081526040808320858452825280832086845290915290205460ff166133865760405162461bcd60e51b81526004016107e890613b94565b6000868152600c60205260409020805487918791339190839081106133ad576133ad613ae8565b600091825260209091206003600b9092020101546001600160a01b0316146133e75760405162461bcd60e51b81526004016107e890613d7d565b3360008181526017602090815260408083208c845282528083208b84529091529020600381015490916001600160a01b03909116146134385760405162461bcd60e51b81526004016107e890614074565b3360009081526017602090815260408083208c845282528083208b8452909152812081815560018101829055600281018290556003810180546001600160a01b03191690559061348b60048301826134ab565b5060058101805460ff191690556000600690910155505050505050505050565b5080546134b790613aae565b6000825580601f106134c7575050565b601f0160209004906000526020600020908101906134e591906134e8565b50565b5b808211156134fd57600081556001016134e9565b5090565b60006020828403121561351357600080fd5b5035919050565b6000815180845260005b8181101561354057602081850181015186830182015201613524565b506000602082860101526020601f19601f83011685010191505092915050565b634e487b7160e01b600052602160045260246000fd5b6003811061359457634e487b7160e01b600052602160045260246000fd5b9052565b60006020808301818452808551808352604092508286019150828160051b87010184880160005b8381101561368d57603f1989840301855281516101608151855288820151898601528782015181898701526135f68287018261351a565b915050606080830151613613828801826001600160a01b03169052565b50506080808301518683038288015261362c838261351a565b9250505060a080830151818701525060c080830151818701525060e08083015181870152506101008083015161366482880182613576565b5050610120828101519086015261014091820151919094015293860193908601906001016135bf565b509098975050505050505050565b600080604083850312156136ae57600080fd5b50508035926020909101359150565b6020815281516020820152602082015160408201526040820151606082015260018060a01b0360608301511660808201526000608083015160e060a084015261370a61010084018261351a565b905060a0840151151560c084015260c084015160e08401528091505092915050565b87815260e06020820152600061374560e083018961351a565b8281036040840152613757818961351a565b6001600160a01b039790971660608401525050608081019390935260a083019190915260c0909101529392505050565b602080825282518282018190526000919060409081850190868401855b828110156137d2578151805185528601516001600160a01b03168685015292840192908501906001016137a4565b5091979650505050505050565b634e487b7160e01b600052604160045260246000fd5b600082601f83011261380657600080fd5b813567ffffffffffffffff80821115613821576138216137df565b604051601f8301601f19908116603f01168101908282118183101715613849576138496137df565b8160405283815286602085880101111561386257600080fd5b836020870160208301376000602085830101528094505050505092915050565b6000806040838503121561389557600080fd5b823567ffffffffffffffff808211156138ad57600080fd5b6138b9868387016137f5565b935060208501359150808211156138cf57600080fd5b506138dc858286016137f5565b9150509250929050565b6000806000606084860312156138fb57600080fd5b8335925060208401359150604084013567ffffffffffffffff81111561392057600080fd5b61392c868287016137f5565b9150509250925092565b60008060006060848603121561394b57600080fd5b833592506020840135915060408401356001600160a01b038116811461397057600080fd5b809150509250925092565b60006020808301818452808551808352604092508286019150828160051b87010184880160005b8381101561368d57603f19898403018552815160e08151855288820151818a8701526139d08287018261351a565b91505087820151858203898701526139e8828261351a565b6060848101516001600160a01b0316908801526080808501519088015260a0848101519088015260c0938401519390960192909252505093860193908601906001016139a2565b600080600080600060a08688031215613a4757600080fd5b85359450602086013567ffffffffffffffff80821115613a6657600080fd5b613a7289838a016137f5565b95506040880135915080821115613a8857600080fd5b50613a95888289016137f5565b9598949750949560608101359550608001359392505050565b600181811c90821680613ac257607f821691505b602082108103613ae257634e487b7160e01b600052602260045260246000fd5b50919050565b634e487b7160e01b600052603260045260246000fd5b602080825260169082015275109bdd5b9d1e481a185cc81b9bdd081cdd185c9d195960521b604082015260600190565b6020808252601f908201527f426f756e747920706572696f6420686173206e6f7420656e6465642079657400604082015260600190565b602080825260159082015274109bdd5b9d1e48191bd95cc81b9bdd08195e1a5cdd605a1b604082015260600190565b60208082526023908201527f596f752068617665206e6f7420796574206a6f696e6564207468697320626f756040820152626e747960e81b606082015260800190565b60208082526017908201527f596f7520617265206e6f74207468652063726561746f72000000000000000000604082015260600190565b634e487b7160e01b600052601160045260246000fd5b8181038181111561078c5761078c613c0e565b601f821115613c8157600081815260208120601f850160051c81016020861015613c5e5750805b601f850160051c820191505b81811015613c7d57828155600101613c6a565b5050505b505050565b818103613c91575050565b613c9b8254613aae565b67ffffffffffffffff811115613cb357613cb36137df565b613cc781613cc18454613aae565b84613c37565b6000601f821160018114613cfb5760008315613ce35750848201545b600019600385901b1c1916600184901b178455613d60565b600085815260209020601f19841690600086815260209020845b83811015613d355782860154825560019586019590910190602001613d15565b5085831015613d535781850154600019600388901b60f8161c191681555b50505060018360011b0184555b5050505050565b634e487b7160e01b600052603160045260246000fd5b6020808252601e908201527f596f7520617265206e6f742074686520626f756e74792063726561746f720000604082015260600190565b600060018201613dc657613dc6613c0e565b5060010190565b600082613dea57634e487b7160e01b600052601260045260246000fd5b500490565b808202811582820484141761078c5761078c613c0e565b8082018082111561078c5761078c613c0e565b60208082526023908201527f596f752068617665206e6f742079657420736574757020796f7572206163636f6040820152621d5b9d60ea1b606082015260800190565b6020808252602d908201527f596f7520617265206e6f74207965742061206d656d626572206f66207468697360408201526c1037b933b0b734b9b0ba34b7b760991b606082015260800190565b6020808252601b908201527f4f7267616e69736174696f6e20646f6573206e6f742065786973740000000000604082015260600190565b60208082526010908201526f109bdd5b9d1e481a185cc8195b99195960821b604082015260600190565b6000808354613f1881613aae565b60018281168015613f305760018114613f4557613f74565b60ff1984168752821515830287019450613f74565b8760005260208060002060005b85811015613f6b5781548a820152908401908201613f52565b50505082870194505b50929695505050505050565b815167ffffffffffffffff811115613f9a57613f9a6137df565b613fa881613cc18454613aae565b602080601f831160018114613fdd5760008415613fc55750858301515b600019600386901b1c1916600185901b178555613c7d565b600085815260208120601f198616915b8281101561400c57888601518255948401946001909101908401613fed565b508582101561402a5787850151600019600388901b60f8161c191681555b5050505050600190811b01905550565b86815285602082015284604082015260c06060820152600061405f60c083018661351a565b93151560808301525060a00152949350505050565b60208082526027908201527f596f7520617265206e6f7420746865206f776e6572206f66207468652073756260408201526636b4b9b9b4b7b760c91b606082015260800190565b83815282602082015260606040820152600061168d606083018461351a565b86815260c0602082015260006140f360c083018861351a565b8281036040840152614105818861351a565b60608401969096525050608081019290925260a090910152939250505056fea26469706673582212203a5d56464a542dfd9c7986fb49137d53172d9c1f6a6a22c9d93547ed6efae71164736f6c63430008120033","opcodes":"PUSH1 0x80 PUSH1 0x40 MSTORE CALLVALUE DUP1 ISZERO PUSH2 0x10 JUMPI PUSH1 0x0 DUP1 REVERT JUMPDEST POP PUSH1 0x5 DUP1 SLOAD PUSH1 0x1 PUSH1 0x1 PUSH1 0xA0 SHL SUB NOT AND CALLER OR SWAP1 SSTORE PUSH2 0x415A DUP1 PUSH2 0x32 PUSH1 0x0 CODECOPY PUSH1 0x0 RETURN INVALID PUSH1 0x80 PUSH1 0x40 MSTORE PUSH1 0x4 CALLDATASIZE LT PUSH2 0x139 JUMPI PUSH1 0x0 CALLDATALOAD PUSH1 0xE0 SHR DUP1 PUSH4 0x9DCA362F GT PUSH2 0xAB JUMPI DUP1 PUSH4 0xDEF79C6C GT PUSH2 0x6F JUMPI DUP1 PUSH4 0xDEF79C6C EQ PUSH2 0x354 JUMPI DUP1 PUSH4 0xEAFFD429 EQ PUSH2 0x374 JUMPI DUP1 PUSH4 0xF05C1D61 EQ PUSH2 0x396 JUMPI DUP1 PUSH4 0xF0DAAC1C EQ PUSH2 0x3B6 JUMPI DUP1 PUSH4 0xF4156A25 EQ PUSH2 0x3D6 JUMPI DUP1 PUSH4 0xFB746580 EQ PUSH2 0x3E9 JUMPI PUSH1 0x0 DUP1 REVERT JUMPDEST DUP1 PUSH4 0x9DCA362F EQ PUSH2 0x2D5 JUMPI DUP1 PUSH4 0x9E6A5FA0 EQ PUSH2 0x2EA JUMPI DUP1 PUSH4 0x9EAB5253 EQ PUSH2 0x2FF JUMPI DUP1 PUSH4 0xA35EAB0D EQ PUSH2 0x314 JUMPI DUP1 PUSH4 0xC34F0CF7 EQ PUSH2 0x334 JUMPI PUSH1 0x0 DUP1 REVERT JUMPDEST DUP1 PUSH4 0x827369D9 GT PUSH2 0xFD JUMPI DUP1 PUSH4 0x827369D9 EQ PUSH2 0x210 JUMPI DUP1 PUSH4 0x895F750F EQ PUSH2 0x230 JUMPI DUP1 PUSH4 0x8A8485B8 EQ PUSH2 0x25D JUMPI DUP1 PUSH4 0x8B948381 EQ PUSH2 0x28B JUMPI DUP1 PUSH4 0x997072F7 EQ PUSH2 0x2AB JUMPI DUP1 PUSH4 0x9999D2AE EQ PUSH2 0x2C0 JUMPI PUSH1 0x0 DUP1 REVERT JUMPDEST DUP1 PUSH4 0x10EFB62E EQ PUSH2 0x145 JUMPI DUP1 PUSH4 0x1B202962 EQ PUSH2 0x17B JUMPI DUP1 PUSH4 0x4EFA0F4F EQ PUSH2 0x1A8 JUMPI DUP1 PUSH4 0x50CE1D9B EQ PUSH2 0x1CA JUMPI DUP1 PUSH4 0x75543074 EQ PUSH2 0x1DD JUMPI PUSH1 0x0 DUP1 REVERT JUMPDEST CALLDATASIZE PUSH2 0x140 JUMPI STOP JUMPDEST PUSH1 0x0 DUP1 REVERT JUMPDEST CALLVALUE DUP1 ISZERO PUSH2 0x151 JUMPI PUSH1 0x0 DUP1 REVERT JUMPDEST POP PUSH2 0x165 PUSH2 0x160 CALLDATASIZE PUSH1 0x4 PUSH2 0x3501 JUMP JUMPDEST PUSH2 0x409 JUMP JUMPDEST PUSH1 0x40 MLOAD PUSH2 0x172 SWAP2 SWAP1 PUSH2 0x3598 JUMP JUMPDEST PUSH1 0x40 MLOAD DUP1 SWAP2 SUB SWAP1 RETURN JUMPDEST CALLVALUE DUP1 ISZERO PUSH2 0x187 JUMPI PUSH1 0x0 DUP1 REVERT JUMPDEST POP PUSH2 0x19B PUSH2 0x196 CALLDATASIZE PUSH1 0x4 PUSH2 0x369B JUMP JUMPDEST PUSH2 0x630 JUMP JUMPDEST PUSH1 0x40 MLOAD PUSH2 0x172 SWAP2 SWAP1 PUSH2 0x36BD JUMP JUMPDEST CALLVALUE DUP1 ISZERO PUSH2 0x1B4 JUMPI PUSH1 0x0 DUP1 REVERT JUMPDEST POP PUSH2 0x1C8 PUSH2 0x1C3 CALLDATASIZE PUSH1 0x4 PUSH2 0x369B JUMP JUMPDEST PUSH2 0x792 JUMP JUMPDEST STOP JUMPDEST PUSH2 0x1C8 PUSH2 0x1D8 CALLDATASIZE PUSH1 0x4 PUSH2 0x369B JUMP JUMPDEST PUSH2 0xAD4 JUMP JUMPDEST CALLVALUE DUP1 ISZERO PUSH2 0x1E9 JUMPI PUSH1 0x0 DUP1 REVERT JUMPDEST POP PUSH2 0x1FD PUSH2 0x1F8 CALLDATASIZE PUSH1 0x4 PUSH2 0x3501 JUMP JUMPDEST PUSH2 0x1084 JUMP JUMPDEST PUSH1 0x40 MLOAD PUSH2 0x172 SWAP8 SWAP7 SWAP6 SWAP5 SWAP4 SWAP3 SWAP2 SWAP1 PUSH2 0x372C JUMP JUMPDEST CALLVALUE DUP1 ISZERO PUSH2 0x21C JUMPI PUSH1 0x0 DUP1 REVERT JUMPDEST POP PUSH2 0x1C8 PUSH2 0x22B CALLDATASIZE PUSH1 0x4 PUSH2 0x369B JUMP JUMPDEST PUSH2 0x12D4 JUMP JUMPDEST CALLVALUE DUP1 ISZERO PUSH2 0x23C JUMPI PUSH1 0x0 DUP1 REVERT JUMPDEST POP PUSH2 0x250 PUSH2 0x24B CALLDATASIZE PUSH1 0x4 PUSH2 0x3501 JUMP JUMPDEST PUSH2 0x1584 JUMP JUMPDEST PUSH1 0x40 MLOAD PUSH2 0x172 SWAP2 SWAP1 PUSH2 0x3787 JUMP JUMPDEST CALLVALUE DUP1 ISZERO PUSH2 0x269 JUMPI PUSH1 0x0 DUP1 REVERT JUMPDEST POP PUSH2 0x27D PUSH2 0x278 CALLDATASIZE PUSH1 0x4 PUSH2 0x369B JUMP JUMPDEST PUSH2 0x1601 JUMP JUMPDEST PUSH1 0x40 MLOAD SWAP1 DUP2 MSTORE PUSH1 0x20 ADD PUSH2 0x172 JUMP JUMPDEST CALLVALUE DUP1 ISZERO PUSH2 0x297 JUMPI PUSH1 0x0 DUP1 REVERT JUMPDEST POP PUSH2 0x1C8 PUSH2 0x2A6 CALLDATASIZE PUSH1 0x4 PUSH2 0x3882 JUMP JUMPDEST PUSH2 0x1696 JUMP JUMPDEST CALLVALUE DUP1 ISZERO PUSH2 0x2B7 JUMPI PUSH1 0x0 DUP1 REVERT JUMPDEST POP PUSH1 0x2 SLOAD PUSH2 0x27D JUMP JUMPDEST CALLVALUE DUP1 ISZERO PUSH2 0x2CC JUMPI PUSH1 0x0 DUP1 REVERT JUMPDEST POP PUSH1 0x4 SLOAD PUSH2 0x27D JUMP JUMPDEST CALLVALUE DUP1 ISZERO PUSH2 0x2E1 JUMPI PUSH1 0x0 DUP1 REVERT JUMPDEST POP PUSH2 0x1C8 PUSH2 0x1A16 JUMP JUMPDEST CALLVALUE DUP1 ISZERO PUSH2 0x2F6 JUMPI PUSH1 0x0 DUP1 REVERT JUMPDEST POP PUSH1 0x1 SLOAD PUSH2 0x27D JUMP JUMPDEST CALLVALUE DUP1 ISZERO PUSH2 0x30B JUMPI PUSH1 0x0 DUP1 REVERT JUMPDEST POP PUSH2 0x250 PUSH2 0x1B91 JUMP JUMPDEST CALLVALUE DUP1 ISZERO PUSH2 0x320 JUMPI PUSH1 0x0 DUP1 REVERT JUMPDEST POP PUSH2 0x1C8 PUSH2 0x32F CALLDATASIZE PUSH1 0x4 PUSH2 0x3501 JUMP JUMPDEST PUSH2 0x1C06 JUMP JUMPDEST CALLVALUE DUP1 ISZERO PUSH2 0x340 JUMPI PUSH1 0x0 DUP1 REVERT JUMPDEST POP PUSH2 0x1C8 PUSH2 0x34F CALLDATASIZE PUSH1 0x4 PUSH2 0x38E6 JUMP JUMPDEST PUSH2 0x1CFD JUMP JUMPDEST CALLVALUE DUP1 ISZERO PUSH2 0x360 JUMPI PUSH1 0x0 DUP1 REVERT JUMPDEST POP PUSH2 0x1C8 PUSH2 0x36F CALLDATASIZE PUSH1 0x4 PUSH2 0x3936 JUMP JUMPDEST PUSH2 0x21BA JUMP JUMPDEST CALLVALUE DUP1 ISZERO PUSH2 0x380 JUMPI PUSH1 0x0 DUP1 REVERT JUMPDEST POP PUSH2 0x389 PUSH2 0x24D9 JUMP JUMPDEST PUSH1 0x40 MLOAD PUSH2 0x172 SWAP2 SWAP1 PUSH2 0x397B JUMP JUMPDEST CALLVALUE DUP1 ISZERO PUSH2 0x3A2 JUMPI PUSH1 0x0 DUP1 REVERT JUMPDEST POP PUSH2 0x1C8 PUSH2 0x3B1 CALLDATASIZE PUSH1 0x4 PUSH2 0x3501 JUMP JUMPDEST PUSH2 0x2694 JUMP JUMPDEST CALLVALUE DUP1 ISZERO PUSH2 0x3C2 JUMPI PUSH1 0x0 DUP1 REVERT JUMPDEST POP PUSH2 0x1C8 PUSH2 0x3D1 CALLDATASIZE PUSH1 0x4 PUSH2 0x38E6 JUMP JUMPDEST PUSH2 0x2811 JUMP JUMPDEST PUSH2 0x1C8 PUSH2 0x3E4 CALLDATASIZE PUSH1 0x4 PUSH2 0x3A2F JUMP JUMPDEST PUSH2 0x2B80 JUMP JUMPDEST CALLVALUE DUP1 ISZERO PUSH2 0x3F5 JUMPI PUSH1 0x0 DUP1 REVERT JUMPDEST POP PUSH2 0x1C8 PUSH2 0x404 CALLDATASIZE PUSH1 0x4 PUSH2 0x369B JUMP JUMPDEST PUSH2 0x326E JUMP JUMPDEST PUSH1 0x60 PUSH1 0xC PUSH1 0x0 DUP4 DUP2 MSTORE PUSH1 0x20 ADD SWAP1 DUP2 MSTORE PUSH1 0x20 ADD PUSH1 0x0 KECCAK256 DUP1 SLOAD DUP1 PUSH1 0x20 MUL PUSH1 0x20 ADD PUSH1 0x40 MLOAD SWAP1 DUP2 ADD PUSH1 0x40 MSTORE DUP1 SWAP3 SWAP2 SWAP1 DUP2 DUP2 MSTORE PUSH1 0x20 ADD PUSH1 0x0 SWAP1 JUMPDEST DUP3 DUP3 LT ISZERO PUSH2 0x625 JUMPI DUP4 DUP3 SWAP1 PUSH1 0x0 MSTORE PUSH1 0x20 PUSH1 0x0 KECCAK256 SWAP1 PUSH1 0xB MUL ADD PUSH1 0x40 MLOAD DUP1 PUSH2 0x160 ADD PUSH1 0x40 MSTORE SWAP1 DUP2 PUSH1 0x0 DUP3 ADD SLOAD DUP2 MSTORE PUSH1 0x20 ADD PUSH1 0x1 DUP3 ADD SLOAD DUP2 MSTORE PUSH1 0x20 ADD PUSH1 0x2 DUP3 ADD DUP1 SLOAD PUSH2 0x486 SWAP1 PUSH2 0x3AAE JUMP JUMPDEST DUP1 PUSH1 0x1F ADD PUSH1 0x20 DUP1 SWAP2 DIV MUL PUSH1 0x20 ADD PUSH1 0x40 MLOAD SWAP1 DUP2 ADD PUSH1 0x40 MSTORE DUP1 SWAP3 SWAP2 SWAP1 DUP2 DUP2 MSTORE PUSH1 0x20 ADD DUP3 DUP1 SLOAD PUSH2 0x4B2 SWAP1 PUSH2 0x3AAE JUMP JUMPDEST DUP1 ISZERO PUSH2 0x4FF JUMPI DUP1 PUSH1 0x1F LT PUSH2 0x4D4 JUMPI PUSH2 0x100 DUP1 DUP4 SLOAD DIV MUL DUP4 MSTORE SWAP2 PUSH1 0x20 ADD SWAP2 PUSH2 0x4FF JUMP JUMPDEST DUP3 ADD SWAP2 SWAP1 PUSH1 0x0 MSTORE PUSH1 0x20 PUSH1 0x0 KECCAK256 SWAP1 JUMPDEST DUP2 SLOAD DUP2 MSTORE SWAP1 PUSH1 0x1 ADD SWAP1 PUSH1 0x20 ADD DUP1 DUP4 GT PUSH2 0x4E2 JUMPI DUP3 SWAP1 SUB PUSH1 0x1F AND DUP3 ADD SWAP2 JUMPDEST POP POP POP SWAP2 DUP4 MSTORE POP POP PUSH1 0x3 DUP3 ADD SLOAD PUSH1 0x1 PUSH1 0x1 PUSH1 0xA0 SHL SUB AND PUSH1 0x20 DUP3 ADD MSTORE PUSH1 0x4 DUP3 ADD DUP1 SLOAD PUSH1 0x40 SWAP1 SWAP3 ADD SWAP2 PUSH2 0x52F SWAP1 PUSH2 0x3AAE JUMP JUMPDEST DUP1 PUSH1 0x1F ADD PUSH1 0x20 DUP1 SWAP2 DIV MUL PUSH1 0x20 ADD PUSH1 0x40 MLOAD SWAP1 DUP2 ADD PUSH1 0x40 MSTORE DUP1 SWAP3 SWAP2 SWAP1 DUP2 DUP2 MSTORE PUSH1 0x20 ADD DUP3 DUP1 SLOAD PUSH2 0x55B SWAP1 PUSH2 0x3AAE JUMP JUMPDEST DUP1 ISZERO PUSH2 0x5A8 JUMPI DUP1 PUSH1 0x1F LT PUSH2 0x57D JUMPI PUSH2 0x100 DUP1 DUP4 SLOAD DIV MUL DUP4 MSTORE SWAP2 PUSH1 0x20 ADD SWAP2 PUSH2 0x5A8 JUMP JUMPDEST DUP3 ADD SWAP2 SWAP1 PUSH1 0x0 MSTORE PUSH1 0x20 PUSH1 0x0 KECCAK256 SWAP1 JUMPDEST DUP2 SLOAD DUP2 MSTORE SWAP1 PUSH1 0x1 ADD SWAP1 PUSH1 0x20 ADD DUP1 DUP4 GT PUSH2 0x58B JUMPI DUP3 SWAP1 SUB PUSH1 0x1F AND DUP3 ADD SWAP2 JUMPDEST POP POP POP SWAP2 DUP4 MSTORE POP POP PUSH1 0x5 DUP3 ADD SLOAD PUSH1 0x20 DUP3 ADD MSTORE PUSH1 0x6 DUP3 ADD SLOAD PUSH1 0x40 DUP3 ADD MSTORE PUSH1 0x7 DUP3 ADD SLOAD PUSH1 0x60 DUP3 ADD MSTORE PUSH1 0x8 DUP3 ADD SLOAD PUSH1 0x80 SWAP1 SWAP2 ADD SWAP1 PUSH1 0xFF AND PUSH1 0x2 DUP2 GT ISZERO PUSH2 0x5ED JUMPI PUSH2 0x5ED PUSH2 0x3560 JUMP JUMPDEST PUSH1 0x2 DUP2 GT ISZERO PUSH2 0x5FE JUMPI PUSH2 0x5FE PUSH2 0x3560 JUMP JUMPDEST DUP2 MSTORE PUSH1 0x20 ADD PUSH1 0x9 DUP3 ADD SLOAD DUP2 MSTORE PUSH1 0x20 ADD PUSH1 0xA DUP3 ADD SLOAD DUP2 MSTORE POP POP DUP2 MSTORE PUSH1 0x20 ADD SWAP1 PUSH1 0x1 ADD SWAP1 PUSH2 0x43E JUMP JUMPDEST POP POP POP POP SWAP1 POP SWAP2 SWAP1 POP JUMP JUMPDEST PUSH2 0x67B PUSH1 0x40 MLOAD DUP1 PUSH1 0xE0 ADD PUSH1 0x40 MSTORE DUP1 PUSH1 0x0 DUP2 MSTORE PUSH1 0x20 ADD PUSH1 0x0 DUP2 MSTORE PUSH1 0x20 ADD PUSH1 0x0 DUP2 MSTORE PUSH1 0x20 ADD PUSH1 0x0 PUSH1 0x1 PUSH1 0x1 PUSH1 0xA0 SHL SUB AND DUP2 MSTORE PUSH1 0x20 ADD PUSH1 0x60 DUP2 MSTORE PUSH1 0x20 ADD PUSH1 0x0 ISZERO ISZERO DUP2 MSTORE PUSH1 0x20 ADD PUSH1 0x0 DUP2 MSTORE POP SWAP1 JUMP JUMPDEST CALLER PUSH1 0x0 SWAP1 DUP2 MSTORE PUSH1 0x17 PUSH1 0x20 SWAP1 DUP2 MSTORE PUSH1 0x40 DUP1 DUP4 KECCAK256 DUP7 DUP5 MSTORE DUP3 MSTORE DUP1 DUP4 KECCAK256 DUP6 DUP5 MSTORE DUP3 MSTORE SWAP2 DUP3 SWAP1 KECCAK256 DUP3 MLOAD PUSH1 0xE0 DUP2 ADD DUP5 MSTORE DUP2 SLOAD DUP2 MSTORE PUSH1 0x1 DUP3 ADD SLOAD SWAP3 DUP2 ADD SWAP3 SWAP1 SWAP3 MSTORE PUSH1 0x2 DUP2 ADD SLOAD SWAP3 DUP3 ADD SWAP3 SWAP1 SWAP3 MSTORE PUSH1 0x3 DUP3 ADD SLOAD PUSH1 0x1 PUSH1 0x1 PUSH1 0xA0 SHL SUB AND PUSH1 0x60 DUP3 ADD MSTORE PUSH1 0x4 DUP3 ADD DUP1 SLOAD SWAP2 SWAP3 SWAP2 PUSH1 0x80 DUP5 ADD SWAP2 SWAP1 PUSH2 0x6ED SWAP1 PUSH2 0x3AAE JUMP JUMPDEST DUP1 PUSH1 0x1F ADD PUSH1 0x20 DUP1 SWAP2 DIV MUL PUSH1 0x20 ADD PUSH1 0x40 MLOAD SWAP1 DUP2 ADD PUSH1 0x40 MSTORE DUP1 SWAP3 SWAP2 SWAP1 DUP2 DUP2 MSTORE PUSH1 0x20 ADD DUP3 DUP1 SLOAD PUSH2 0x719 SWAP1 PUSH2 0x3AAE JUMP JUMPDEST DUP1 ISZERO PUSH2 0x766 JUMPI DUP1 PUSH1 0x1F LT PUSH2 0x73B JUMPI PUSH2 0x100 DUP1 DUP4 SLOAD DIV MUL DUP4 MSTORE SWAP2 PUSH1 0x20 ADD SWAP2 PUSH2 0x766 JUMP JUMPDEST DUP3 ADD SWAP2 SWAP1 PUSH1 0x0 MSTORE PUSH1 0x20 PUSH1 0x0 KECCAK256 SWAP1 JUMPDEST DUP2 SLOAD DUP2 MSTORE SWAP1 PUSH1 0x1 ADD SWAP1 PUSH1 0x20 ADD DUP1 DUP4 GT PUSH2 0x749 JUMPI DUP3 SWAP1 SUB PUSH1 0x1F AND DUP3 ADD SWAP2 JUMPDEST POP POP POP SWAP2 DUP4 MSTORE POP POP PUSH1 0x5 DUP3 ADD SLOAD PUSH1 0xFF AND ISZERO ISZERO PUSH1 0x20 DUP3 ADD MSTORE PUSH1 0x6 SWAP1 SWAP2 ADD SLOAD PUSH1 0x40 SWAP1 SWAP2 ADD MSTORE SWAP1 POP JUMPDEST SWAP3 SWAP2 POP POP JUMP JUMPDEST PUSH1 0x0 DUP2 DUP2 MSTORE PUSH1 0xC PUSH1 0x20 MSTORE PUSH1 0x40 SWAP1 KECCAK256 DUP1 SLOAD DUP3 SWAP2 SWAP1 DUP2 SWAP1 DUP4 SWAP1 DUP2 LT PUSH2 0x7B7 JUMPI PUSH2 0x7B7 PUSH2 0x3AE8 JUMP JUMPDEST SWAP1 PUSH1 0x0 MSTORE PUSH1 0x20 PUSH1 0x0 KECCAK256 SWAP1 PUSH1 0xB MUL ADD PUSH1 0x6 ADD SLOAD TIMESTAMP LT ISZERO PUSH2 0x7F1 JUMPI PUSH1 0x40 MLOAD PUSH3 0x461BCD PUSH1 0xE5 SHL DUP2 MSTORE PUSH1 0x4 ADD PUSH2 0x7E8 SWAP1 PUSH2 0x3AFE JUMP JUMPDEST PUSH1 0x40 MLOAD DUP1 SWAP2 SUB SWAP1 REVERT JUMPDEST DUP1 DUP3 DUP2 SLOAD DUP2 LT PUSH2 0x803 JUMPI PUSH2 0x803 PUSH2 0x3AE8 JUMP JUMPDEST SWAP1 PUSH1 0x0 MSTORE PUSH1 0x20 PUSH1 0x0 KECCAK256 SWAP1 PUSH1 0xB MUL ADD PUSH1 0x7 ADD SLOAD TIMESTAMP LT ISZERO PUSH2 0x834 JUMPI PUSH1 0x40 MLOAD PUSH3 0x461BCD PUSH1 0xE5 SHL DUP2 MSTORE PUSH1 0x4 ADD PUSH2 0x7E8 SWAP1 PUSH2 0x3B2E JUMP JUMPDEST PUSH1 0x0 DUP5 DUP2 MSTORE PUSH1 0xC PUSH1 0x20 MSTORE PUSH1 0x40 SWAP1 KECCAK256 DUP1 SLOAD DUP6 SWAP2 DUP6 SWAP2 DUP4 SWAP1 DUP3 SWAP1 DUP3 SWAP1 DUP2 LT PUSH2 0x85C JUMPI PUSH2 0x85C PUSH2 0x3AE8 JUMP JUMPDEST SWAP1 PUSH1 0x0 MSTORE PUSH1 0x20 PUSH1 0x0 KECCAK256 SWAP1 PUSH1 0xB MUL ADD PUSH1 0x1 ADD SLOAD EQ PUSH2 0x88B JUMPI PUSH1 0x40 MLOAD PUSH3 0x461BCD PUSH1 0xE5 SHL DUP2 MSTORE PUSH1 0x4 ADD PUSH2 0x7E8 SWAP1 PUSH2 0x3B65 JUMP JUMPDEST CALLER PUSH1 0x0 SWAP1 DUP2 MSTORE PUSH1 0x14 PUSH1 0x20 SWAP1 DUP2 MSTORE PUSH1 0x40 DUP1 DUP4 KECCAK256 DUP6 DUP5 MSTORE DUP3 MSTORE DUP1 DUP4 KECCAK256 DUP7 DUP5 MSTORE SWAP1 SWAP2 MSTORE SWAP1 KECCAK256 SLOAD PUSH1 0xFF AND PUSH2 0x8CD JUMPI PUSH1 0x40 MLOAD PUSH3 0x461BCD PUSH1 0xE5 SHL DUP2 MSTORE PUSH1 0x4 ADD PUSH2 0x7E8 SWAP1 PUSH2 0x3B94 JUMP JUMPDEST PUSH1 0x0 DUP7 DUP2 MSTORE PUSH1 0xC PUSH1 0x20 MSTORE PUSH1 0x40 SWAP1 KECCAK256 DUP1 SLOAD DUP2 SWAP1 DUP9 SWAP1 DUP2 LT PUSH2 0x8EF JUMPI PUSH2 0x8EF PUSH2 0x3AE8 JUMP JUMPDEST PUSH1 0x0 SWAP2 DUP3 MSTORE PUSH1 0x20 SWAP1 SWAP2 KECCAK256 PUSH1 0xB SWAP1 SWAP2 MUL ADD PUSH1 0x3 ADD SLOAD PUSH1 0x1 PUSH1 0x1 PUSH1 0xA0 SHL SUB AND CALLER EQ PUSH2 0x92A JUMPI PUSH1 0x40 MLOAD PUSH3 0x461BCD PUSH1 0xE5 SHL DUP2 MSTORE PUSH1 0x4 ADD PUSH2 0x7E8 SWAP1 PUSH2 0x3BD7 JUMP JUMPDEST DUP1 SLOAD DUP2 SWAP1 PUSH2 0x93A SWAP1 PUSH1 0x1 SWAP1 PUSH2 0x3C24 JUMP JUMPDEST DUP2 SLOAD DUP2 LT PUSH2 0x94A JUMPI PUSH2 0x94A PUSH2 0x3AE8 JUMP JUMPDEST SWAP1 PUSH1 0x0 MSTORE PUSH1 0x20 PUSH1 0x0 KECCAK256 SWAP1 PUSH1 0xB MUL ADD DUP2 DUP9 DUP2 SLOAD DUP2 LT PUSH2 0x96A JUMPI PUSH2 0x96A PUSH2 0x3AE8 JUMP JUMPDEST SWAP1 PUSH1 0x0 MSTORE PUSH1 0x20 PUSH1 0x0 KECCAK256 SWAP1 PUSH1 0xB MUL ADD PUSH1 0x0 DUP3 ADD SLOAD DUP2 PUSH1 0x0 ADD SSTORE PUSH1 0x1 DUP3 ADD SLOAD DUP2 PUSH1 0x1 ADD SSTORE PUSH1 0x2 DUP3 ADD DUP2 PUSH1 0x2 ADD SWAP1 DUP2 PUSH2 0x9A0 SWAP2 SWAP1 PUSH2 0x3C86 JUMP JUMPDEST POP PUSH1 0x3 DUP3 DUP2 ADD SLOAD SWAP1 DUP3 ADD DUP1 SLOAD PUSH1 0x1 PUSH1 0x1 PUSH1 0xA0 SHL SUB NOT AND PUSH1 0x1 PUSH1 0x1 PUSH1 0xA0 SHL SUB SWAP1 SWAP3 AND SWAP2 SWAP1 SWAP2 OR SWAP1 SSTORE PUSH1 0x4 DUP1 DUP3 ADD SWAP1 PUSH2 0x9D9 SWAP1 DUP5 ADD DUP3 PUSH2 0x3C86 JUMP JUMPDEST POP PUSH1 0x5 DUP3 DUP2 ADD SLOAD SWAP1 DUP3 ADD SSTORE PUSH1 0x6 DUP1 DUP4 ADD SLOAD SWAP1 DUP3 ADD SSTORE PUSH1 0x7 DUP1 DUP4 ADD SLOAD SWAP1 DUP3 ADD SSTORE PUSH1 0x8 DUP1 DUP4 ADD SLOAD SWAP1 DUP3 ADD DUP1 SLOAD PUSH1 0xFF SWAP1 SWAP3 AND SWAP2 PUSH1 0xFF NOT AND PUSH1 0x1 DUP4 PUSH1 0x2 DUP2 GT ISZERO PUSH2 0xA21 JUMPI PUSH2 0xA21 PUSH2 0x3560 JUMP JUMPDEST MUL OR SWAP1 SSTORE POP PUSH1 0x9 DUP3 DUP2 ADD SLOAD SWAP1 DUP3 ADD SSTORE PUSH1 0xA SWAP2 DUP3 ADD SLOAD SWAP2 ADD SSTORE DUP1 SLOAD DUP2 SWAP1 DUP1 PUSH2 0xA4A JUMPI PUSH2 0xA4A PUSH2 0x3D67 JUMP JUMPDEST PUSH1 0x0 DUP3 DUP2 MSTORE PUSH1 0x20 DUP2 KECCAK256 PUSH1 0xB PUSH1 0x0 NOT SWAP1 SWAP4 ADD SWAP3 DUP4 MUL ADD DUP2 DUP2 SSTORE PUSH1 0x1 DUP2 ADD DUP3 SWAP1 SSTORE SWAP1 PUSH2 0xA77 PUSH1 0x2 DUP4 ADD DUP3 PUSH2 0x34AB JUMP JUMPDEST PUSH1 0x3 DUP3 ADD DUP1 SLOAD PUSH1 0x1 PUSH1 0x1 PUSH1 0xA0 SHL SUB NOT AND SWAP1 SSTORE PUSH2 0xA97 PUSH1 0x4 DUP4 ADD PUSH1 0x0 PUSH2 0x34AB JUMP JUMPDEST POP PUSH1 0x0 PUSH1 0x5 DUP3 ADD DUP2 SWAP1 SSTORE PUSH1 0x6 DUP3 ADD DUP2 SWAP1 SSTORE PUSH1 0x7 DUP3 ADD DUP2 SWAP1 SSTORE PUSH1 0x8 DUP3 ADD DUP1 SLOAD PUSH1 0xFF NOT AND SWAP1 SSTORE PUSH1 0x9 DUP3 ADD DUP2 SWAP1 SSTORE PUSH1 0xA SWAP1 SWAP2 ADD SSTORE SWAP1 SSTORE POP POP POP POP POP POP POP POP JUMP JUMPDEST PUSH1 0x5 SLOAD PUSH1 0x1 PUSH1 0xA0 SHL SWAP1 DIV PUSH1 0xFF AND ISZERO PUSH2 0xB1F JUMPI PUSH1 0x40 MLOAD PUSH3 0x461BCD PUSH1 0xE5 SHL DUP2 MSTORE PUSH1 0x20 PUSH1 0x4 DUP3 ADD MSTORE PUSH1 0xE PUSH1 0x24 DUP3 ADD MSTORE PUSH14 0x4E6F2072652D656E7472616E6379 PUSH1 0x90 SHL PUSH1 0x44 DUP3 ADD MSTORE PUSH1 0x64 ADD PUSH2 0x7E8 JUMP JUMPDEST PUSH1 0x5 DUP1 SLOAD PUSH1 0xFF PUSH1 0xA0 SHL NOT AND PUSH1 0x1 PUSH1 0xA0 SHL OR SWAP1 SSTORE PUSH1 0x0 DUP3 DUP2 MSTORE PUSH1 0xC PUSH1 0x20 MSTORE PUSH1 0x40 SWAP1 KECCAK256 DUP1 SLOAD DUP4 SWAP2 DUP4 SWAP2 CALLER SWAP2 SWAP1 DUP4 SWAP1 DUP2 LT PUSH2 0xB59 JUMPI PUSH2 0xB59 PUSH2 0x3AE8 JUMP JUMPDEST PUSH1 0x0 SWAP2 DUP3 MSTORE PUSH1 0x20 SWAP1 SWAP2 KECCAK256 PUSH1 0x3 PUSH1 0xB SWAP1 SWAP3 MUL ADD ADD SLOAD PUSH1 0x1 PUSH1 0x1 PUSH1 0xA0 SHL SUB AND EQ PUSH2 0xB93 JUMPI PUSH1 0x40 MLOAD PUSH3 0x461BCD PUSH1 0xE5 SHL DUP2 MSTORE PUSH1 0x4 ADD PUSH2 0x7E8 SWAP1 PUSH2 0x3D7D JUMP JUMPDEST PUSH1 0x0 DUP4 DUP2 MSTORE PUSH1 0xC PUSH1 0x20 MSTORE PUSH1 0x40 SWAP1 KECCAK256 DUP1 SLOAD DUP5 SWAP2 DUP7 SWAP2 DUP4 SWAP1 DUP3 SWAP1 DUP3 SWAP1 DUP2 LT PUSH2 0xBBB JUMPI PUSH2 0xBBB PUSH2 0x3AE8 JUMP JUMPDEST SWAP1 PUSH1 0x0 MSTORE PUSH1 0x20 PUSH1 0x0 KECCAK256 SWAP1 PUSH1 0xB MUL ADD PUSH1 0x1 ADD SLOAD EQ PUSH2 0xBEA JUMPI PUSH1 0x40 MLOAD PUSH3 0x461BCD PUSH1 0xE5 SHL DUP2 MSTORE PUSH1 0x4 ADD PUSH2 0x7E8 SWAP1 PUSH2 0x3B65 JUMP JUMPDEST CALLER PUSH1 0x0 SWAP1 DUP2 MSTORE PUSH1 0x14 PUSH1 0x20 SWAP1 DUP2 MSTORE PUSH1 0x40 DUP1 DUP4 KECCAK256 DUP6 DUP5 MSTORE DUP3 MSTORE DUP1 DUP4 KECCAK256 DUP7 DUP5 MSTORE SWAP1 SWAP2 MSTORE SWAP1 KECCAK256 SLOAD PUSH1 0xFF AND PUSH2 0xC2C JUMPI PUSH1 0x40 MLOAD PUSH3 0x461BCD PUSH1 0xE5 SHL DUP2 MSTORE PUSH1 0x4 ADD PUSH2 0x7E8 SWAP1 PUSH2 0x3B94 JUMP JUMPDEST PUSH1 0x0 DUP7 DUP2 MSTORE PUSH1 0xC PUSH1 0x20 MSTORE PUSH1 0x40 SWAP1 KECCAK256 DUP1 SLOAD DUP8 SWAP2 SWAP1 DUP2 SWAP1 DUP4 SWAP1 DUP2 LT PUSH2 0xC51 JUMPI PUSH2 0xC51 PUSH2 0x3AE8 JUMP JUMPDEST SWAP1 PUSH1 0x0 MSTORE PUSH1 0x20 PUSH1 0x0 KECCAK256 SWAP1 PUSH1 0xB MUL ADD PUSH1 0x6 ADD SLOAD TIMESTAMP LT ISZERO PUSH2 0xC82 JUMPI PUSH1 0x40 MLOAD PUSH3 0x461BCD PUSH1 0xE5 SHL DUP2 MSTORE PUSH1 0x4 ADD PUSH2 0x7E8 SWAP1 PUSH2 0x3AFE JUMP JUMPDEST DUP1 DUP3 DUP2 SLOAD DUP2 LT PUSH2 0xC94 JUMPI PUSH2 0xC94 PUSH2 0x3AE8 JUMP JUMPDEST SWAP1 PUSH1 0x0 MSTORE PUSH1 0x20 PUSH1 0x0 KECCAK256 SWAP1 PUSH1 0xB MUL ADD PUSH1 0x7 ADD SLOAD TIMESTAMP LT ISZERO PUSH2 0xCC5 JUMPI PUSH1 0x40 MLOAD PUSH3 0x461BCD PUSH1 0xE5 SHL DUP2 MSTORE PUSH1 0x4 ADD PUSH2 0x7E8 SWAP1 PUSH2 0x3B2E JUMP JUMPDEST PUSH1 0x0 DUP10 DUP2 MSTORE PUSH1 0xC PUSH1 0x20 MSTORE PUSH1 0x40 DUP2 KECCAK256 DUP1 SLOAD DUP11 SWAP1 DUP2 LT PUSH2 0xCE5 JUMPI PUSH2 0xCE5 PUSH2 0x3AE8 JUMP JUMPDEST SWAP1 PUSH1 0x0 MSTORE PUSH1 0x20 PUSH1 0x0 KECCAK256 SWAP1 PUSH1 0xB MUL ADD SWAP1 POP PUSH1 0x0 DUP2 PUSH1 0x5 ADD SLOAD SWAP1 POP PUSH1 0x0 DUP1 DUP3 SELFBALANCE LT ISZERO PUSH2 0xD51 JUMPI PUSH1 0x40 MLOAD PUSH3 0x461BCD PUSH1 0xE5 SHL DUP2 MSTORE PUSH1 0x20 PUSH1 0x4 DUP3 ADD MSTORE PUSH1 0x1D PUSH1 0x24 DUP3 ADD MSTORE PUSH32 0x496E73756666696369656E7420636F6E74726163742062616C616E6365000000 PUSH1 0x44 DUP3 ADD MSTORE PUSH1 0x64 ADD PUSH2 0x7E8 JUMP JUMPDEST PUSH1 0x0 JUMPDEST PUSH1 0xA SLOAD DUP2 LT ISZERO PUSH2 0xE10 JUMPI DUP14 PUSH1 0xA DUP3 DUP2 SLOAD DUP2 LT PUSH2 0xD72 JUMPI PUSH2 0xD72 PUSH2 0x3AE8 JUMP JUMPDEST SWAP1 PUSH1 0x0 MSTORE PUSH1 0x20 PUSH1 0x0 KECCAK256 SWAP1 PUSH1 0x7 MUL ADD PUSH1 0x1 ADD SLOAD EQ DUP1 ISZERO PUSH2 0xDB4 JUMPI POP DUP13 PUSH1 0xA DUP3 DUP2 SLOAD DUP2 LT PUSH2 0xDA0 JUMPI PUSH2 0xDA0 PUSH2 0x3AE8 JUMP JUMPDEST SWAP1 PUSH1 0x0 MSTORE PUSH1 0x20 PUSH1 0x0 KECCAK256 SWAP1 PUSH1 0x7 MUL ADD PUSH1 0x2 ADD SLOAD EQ JUMPDEST DUP1 ISZERO PUSH2 0xDEB JUMPI POP PUSH1 0xA DUP2 DUP2 SLOAD DUP2 LT PUSH2 0xDCE JUMPI PUSH2 0xDCE PUSH2 0x3AE8 JUMP JUMPDEST PUSH1 0x0 SWAP2 DUP3 MSTORE PUSH1 0x20 SWAP1 SWAP2 KECCAK256 PUSH1 0x5 PUSH1 0x7 SWAP1 SWAP3 MUL ADD ADD SLOAD PUSH1 0xFF AND ISZERO ISZERO PUSH1 0x1 EQ JUMPDEST ISZERO PUSH2 0xDFE JUMPI DUP3 PUSH2 0xDFA DUP2 PUSH2 0x3DB4 JUMP JUMPDEST SWAP4 POP POP JUMPDEST DUP1 PUSH2 0xE08 DUP2 PUSH2 0x3DB4 JUMP JUMPDEST SWAP2 POP POP PUSH2 0xD54 JUMP JUMPDEST POP PUSH1 0x0 DUP3 GT PUSH2 0xE61 JUMPI PUSH1 0x40 MLOAD PUSH3 0x461BCD PUSH1 0xE5 SHL DUP2 MSTORE PUSH1 0x20 PUSH1 0x4 DUP3 ADD MSTORE PUSH1 0x1D PUSH1 0x24 DUP3 ADD MSTORE PUSH32 0x4E6F206163636570746564207375626D697373696F6E7320666F756E64000000 PUSH1 0x44 DUP3 ADD MSTORE PUSH1 0x64 ADD PUSH2 0x7E8 JUMP JUMPDEST PUSH2 0xE6B DUP3 DUP5 PUSH2 0x3DCD JUMP JUMPDEST SWAP1 POP PUSH1 0x0 PUSH2 0xE79 DUP4 DUP4 PUSH2 0x3DEF JUMP JUMPDEST SWAP1 POP SELFBALANCE DUP2 GT ISZERO PUSH2 0xEDE JUMPI PUSH1 0x40 MLOAD PUSH3 0x461BCD PUSH1 0xE5 SHL DUP2 MSTORE PUSH1 0x20 PUSH1 0x4 DUP3 ADD MSTORE PUSH1 0x2A PUSH1 0x24 DUP3 ADD MSTORE PUSH32 0x496E73756666696369656E7420636F6E74726163742062616C616E636520666F PUSH1 0x44 DUP3 ADD MSTORE PUSH10 0x39103A3930B739B332B9 PUSH1 0xB1 SHL PUSH1 0x64 DUP3 ADD MSTORE PUSH1 0x84 ADD PUSH2 0x7E8 JUMP JUMPDEST PUSH1 0x0 JUMPDEST PUSH1 0xA SLOAD DUP2 LT ISZERO PUSH2 0x1025 JUMPI DUP15 PUSH1 0xA DUP3 DUP2 SLOAD DUP2 LT PUSH2 0xEFF JUMPI PUSH2 0xEFF PUSH2 0x3AE8 JUMP JUMPDEST SWAP1 PUSH1 0x0 MSTORE PUSH1 0x20 PUSH1 0x0 KECCAK256 SWAP1 PUSH1 0x7 MUL ADD PUSH1 0x1 ADD SLOAD EQ DUP1 ISZERO PUSH2 0xF41 JUMPI POP DUP14 PUSH1 0xA DUP3 DUP2 SLOAD DUP2 LT PUSH2 0xF2D JUMPI PUSH2 0xF2D PUSH2 0x3AE8 JUMP JUMPDEST SWAP1 PUSH1 0x0 MSTORE PUSH1 0x20 PUSH1 0x0 KECCAK256 SWAP1 PUSH1 0x7 MUL ADD PUSH1 0x2 ADD SLOAD EQ JUMPDEST DUP1 ISZERO PUSH2 0xF78 JUMPI POP PUSH1 0xA DUP2 DUP2 SLOAD DUP2 LT PUSH2 0xF5B JUMPI PUSH2 0xF5B PUSH2 0x3AE8 JUMP JUMPDEST PUSH1 0x0 SWAP2 DUP3 MSTORE PUSH1 0x20 SWAP1 SWAP2 KECCAK256 PUSH1 0x5 PUSH1 0x7 SWAP1 SWAP3 MUL ADD ADD SLOAD PUSH1 0xFF AND ISZERO ISZERO PUSH1 0x1 EQ JUMPDEST ISZERO PUSH2 0x1013 JUMPI PUSH1 0xA DUP2 DUP2 SLOAD DUP2 LT PUSH2 0xF90 JUMPI PUSH2 0xF90 PUSH2 0x3AE8 JUMP JUMPDEST PUSH1 0x0 SWAP2 DUP3 MSTORE PUSH1 0x20 DUP3 KECCAK256 PUSH1 0x3 PUSH1 0x7 SWAP1 SWAP3 MUL ADD ADD SLOAD PUSH1 0x40 MLOAD PUSH1 0x1 PUSH1 0x1 PUSH1 0xA0 SHL SUB SWAP1 SWAP2 AND SWAP2 DUP6 ISZERO PUSH2 0x8FC MUL SWAP2 DUP7 SWAP2 DUP2 DUP2 DUP2 DUP6 DUP9 DUP9 CALL SWAP4 POP POP POP POP ISZERO DUP1 ISZERO PUSH2 0xFD8 JUMPI RETURNDATASIZE PUSH1 0x0 DUP1 RETURNDATACOPY RETURNDATASIZE PUSH1 0x0 REVERT JUMPDEST POP DUP3 PUSH1 0xA DUP3 DUP2 SLOAD DUP2 LT PUSH2 0xFED JUMPI PUSH2 0xFED PUSH2 0x3AE8 JUMP JUMPDEST SWAP1 PUSH1 0x0 MSTORE PUSH1 0x20 PUSH1 0x0 KECCAK256 SWAP1 PUSH1 0x7 MUL ADD PUSH1 0x6 ADD PUSH1 0x0 DUP3 DUP3 SLOAD PUSH2 0x100D SWAP2 SWAP1 PUSH2 0x3E06 JUMP JUMPDEST SWAP1 SWAP2 SSTORE POP POP JUMPDEST DUP1 PUSH2 0x101D DUP2 PUSH2 0x3DB4 JUMP JUMPDEST SWAP2 POP POP PUSH2 0xEE1 JUMP JUMPDEST POP PUSH1 0x40 DUP1 MLOAD DUP16 DUP2 MSTORE PUSH1 0x20 DUP2 ADD DUP16 SWAP1 MSTORE SWAP1 DUP2 ADD DUP4 SWAP1 MSTORE PUSH32 0xB885BBC0D1B231F7586921272ADD84AC223BADA880C846C1A4A623E4FBACCE83 SWAP1 PUSH1 0x60 ADD PUSH1 0x40 MLOAD DUP1 SWAP2 SUB SWAP1 LOG1 POP POP PUSH1 0x5 DUP1 SLOAD PUSH1 0xFF PUSH1 0xA0 SHL NOT AND SWAP1 SSTORE POP POP POP POP POP POP POP POP POP POP POP POP JUMP JUMPDEST PUSH1 0x0 PUSH1 0x60 DUP1 PUSH1 0x0 DUP1 PUSH1 0x0 DUP1 PUSH1 0x6 DUP9 DUP2 SLOAD DUP2 LT PUSH2 0x10A2 JUMPI PUSH2 0x10A2 PUSH2 0x3AE8 JUMP JUMPDEST SWAP1 PUSH1 0x0 MSTORE PUSH1 0x20 PUSH1 0x0 KECCAK256 SWAP1 PUSH1 0x7 MUL ADD PUSH1 0x0 ADD SLOAD PUSH1 0x6 DUP10 DUP2 SLOAD DUP2 LT PUSH2 0x10C7 JUMPI PUSH2 0x10C7 PUSH2 0x3AE8 JUMP JUMPDEST SWAP1 PUSH1 0x0 MSTORE PUSH1 0x20 PUSH1 0x0 KECCAK256 SWAP1 PUSH1 0x7 MUL ADD PUSH1 0x1 ADD PUSH1 0x6 DUP11 DUP2 SLOAD DUP2 LT PUSH2 0x10EB JUMPI PUSH2 0x10EB PUSH2 0x3AE8 JUMP JUMPDEST SWAP1 PUSH1 0x0 MSTORE PUSH1 0x20 PUSH1 0x0 KECCAK256 SWAP1 PUSH1 0x7 MUL ADD PUSH1 0x2 ADD PUSH1 0x6 DUP12 DUP2 SLOAD DUP2 LT PUSH2 0x110F JUMPI PUSH2 0x110F PUSH2 0x3AE8 JUMP JUMPDEST SWAP1 PUSH1 0x0 MSTORE PUSH1 0x20 PUSH1 0x0 KECCAK256 SWAP1 PUSH1 0x7 MUL ADD PUSH1 0x3 ADD PUSH1 0x0 SWAP1 SLOAD SWAP1 PUSH2 0x100 EXP SWAP1 DIV PUSH1 0x1 PUSH1 0x1 PUSH1 0xA0 SHL SUB AND PUSH1 0x6 DUP13 DUP2 SLOAD DUP2 LT PUSH2 0x1147 JUMPI PUSH2 0x1147 PUSH2 0x3AE8 JUMP JUMPDEST SWAP1 PUSH1 0x0 MSTORE PUSH1 0x20 PUSH1 0x0 KECCAK256 SWAP1 PUSH1 0x7 MUL ADD PUSH1 0x4 ADD SLOAD PUSH1 0x6 DUP14 DUP2 SLOAD DUP2 LT PUSH2 0x116C JUMPI PUSH2 0x116C PUSH2 0x3AE8 JUMP JUMPDEST SWAP1 PUSH1 0x0 MSTORE PUSH1 0x20 PUSH1 0x0 KECCAK256 SWAP1 PUSH1 0x7 MUL ADD PUSH1 0x5 ADD SLOAD PUSH1 0x6 DUP15 DUP2 SLOAD DUP2 LT PUSH2 0x1191 JUMPI PUSH2 0x1191 PUSH2 0x3AE8 JUMP JUMPDEST SWAP1 PUSH1 0x0 MSTORE PUSH1 0x20 PUSH1 0x0 KECCAK256 SWAP1 PUSH1 0x7 MUL ADD PUSH1 0x6 ADD SLOAD DUP6 DUP1 SLOAD PUSH2 0x11AF SWAP1 PUSH2 0x3AAE JUMP JUMPDEST DUP1 PUSH1 0x1F ADD PUSH1 0x20 DUP1 SWAP2 DIV MUL PUSH1 0x20 ADD PUSH1 0x40 MLOAD SWAP1 DUP2 ADD PUSH1 0x40 MSTORE DUP1 SWAP3 SWAP2 SWAP1 DUP2 DUP2 MSTORE PUSH1 0x20 ADD DUP3 DUP1 SLOAD PUSH2 0x11DB SWAP1 PUSH2 0x3AAE JUMP JUMPDEST DUP1 ISZERO PUSH2 0x1228 JUMPI DUP1 PUSH1 0x1F LT PUSH2 0x11FD JUMPI PUSH2 0x100 DUP1 DUP4 SLOAD DIV MUL DUP4 MSTORE SWAP2 PUSH1 0x20 ADD SWAP2 PUSH2 0x1228 JUMP JUMPDEST DUP3 ADD SWAP2 SWAP1 PUSH1 0x0 MSTORE PUSH1 0x20 PUSH1 0x0 KECCAK256 SWAP1 JUMPDEST DUP2 SLOAD DUP2 MSTORE SWAP1 PUSH1 0x1 ADD SWAP1 PUSH1 0x20 ADD DUP1 DUP4 GT PUSH2 0x120B JUMPI DUP3 SWAP1 SUB PUSH1 0x1F AND DUP3 ADD SWAP2 JUMPDEST POP POP POP POP POP SWAP6 POP DUP5 DUP1 SLOAD PUSH2 0x123B SWAP1 PUSH2 0x3AAE JUMP JUMPDEST DUP1 PUSH1 0x1F ADD PUSH1 0x20 DUP1 SWAP2 DIV MUL PUSH1 0x20 ADD PUSH1 0x40 MLOAD SWAP1 DUP2 ADD PUSH1 0x40 MSTORE DUP1 SWAP3 SWAP2 SWAP1 DUP2 DUP2 MSTORE PUSH1 0x20 ADD DUP3 DUP1 SLOAD PUSH2 0x1267 SWAP1 PUSH2 0x3AAE JUMP JUMPDEST DUP1 ISZERO PUSH2 0x12B4 JUMPI DUP1 PUSH1 0x1F LT PUSH2 0x1289 JUMPI PUSH2 0x100 DUP1 DUP4 SLOAD DIV MUL DUP4 MSTORE SWAP2 PUSH1 0x20 ADD SWAP2 PUSH2 0x12B4 JUMP JUMPDEST DUP3 ADD SWAP2 SWAP1 PUSH1 0x0 MSTORE PUSH1 0x20 PUSH1 0x0 KECCAK256 SWAP1 JUMPDEST DUP2 SLOAD DUP2 MSTORE SWAP1 PUSH1 0x1 ADD SWAP1 PUSH1 0x20 ADD DUP1 DUP4 GT PUSH2 0x1297 JUMPI DUP3 SWAP1 SUB PUSH1 0x1F AND DUP3 ADD SWAP2 JUMPDEST POP POP POP POP POP SWAP5 POP SWAP7 POP SWAP7 POP SWAP7 POP SWAP7 POP SWAP7 POP SWAP7 POP SWAP7 POP SWAP2 SWAP4 SWAP6 SWAP8 SWAP1 SWAP3 SWAP5 SWAP7 POP JUMP JUMPDEST CALLER PUSH1 0x0 SWAP1 DUP2 MSTORE PUSH1 0x12 PUSH1 0x20 MSTORE PUSH1 0x40 SWAP1 KECCAK256 SLOAD PUSH1 0xFF AND PUSH2 0x1303 JUMPI PUSH1 0x40 MLOAD PUSH3 0x461BCD PUSH1 0xE5 SHL DUP2 MSTORE PUSH1 0x4 ADD PUSH2 0x7E8 SWAP1 PUSH2 0x3E19 JUMP JUMPDEST CALLER PUSH1 0x0 SWAP1 DUP2 MSTORE PUSH1 0x15 PUSH1 0x20 SWAP1 DUP2 MSTORE PUSH1 0x40 DUP1 DUP4 KECCAK256 DUP5 DUP5 MSTORE SWAP1 SWAP2 MSTORE SWAP1 KECCAK256 SLOAD DUP2 SWAP1 PUSH1 0xFF AND PUSH2 0x133F JUMPI PUSH1 0x40 MLOAD PUSH3 0x461BCD PUSH1 0xE5 SHL DUP2 MSTORE PUSH1 0x4 ADD PUSH2 0x7E8 SWAP1 PUSH2 0x3E5C JUMP JUMPDEST DUP1 PUSH1 0x6 DUP3 DUP2 SLOAD DUP2 LT PUSH2 0x1353 JUMPI PUSH2 0x1353 PUSH2 0x3AE8 JUMP JUMPDEST SWAP1 PUSH1 0x0 MSTORE PUSH1 0x20 PUSH1 0x0 KECCAK256 SWAP1 PUSH1 0x7 MUL ADD PUSH1 0x0 ADD SLOAD EQ PUSH2 0x1382 JUMPI PUSH1 0x40 MLOAD PUSH3 0x461BCD PUSH1 0xE5 SHL DUP2 MSTORE PUSH1 0x4 ADD PUSH2 0x7E8 SWAP1 PUSH2 0x3EA9 JUMP JUMPDEST PUSH1 0x0 DUP4 DUP2 MSTORE PUSH1 0xC PUSH1 0x20 MSTORE PUSH1 0x40 SWAP1 KECCAK256 DUP1 SLOAD DUP5 SWAP1 DUP3 SWAP1 DUP3 SWAP1 DUP2 LT PUSH2 0x13A6 JUMPI PUSH2 0x13A6 PUSH2 0x3AE8 JUMP JUMPDEST SWAP1 PUSH1 0x0 MSTORE PUSH1 0x20 PUSH1 0x0 KECCAK256 SWAP1 PUSH1 0xB MUL ADD PUSH1 0x1 ADD SLOAD EQ PUSH2 0x13D5 JUMPI PUSH1 0x40 MLOAD PUSH3 0x461BCD PUSH1 0xE5 SHL DUP2 MSTORE PUSH1 0x4 ADD PUSH2 0x7E8 SWAP1 PUSH2 0x3B65 JUMP JUMPDEST CALLER PUSH1 0x0 SWAP1 DUP2 MSTORE PUSH1 0x14 PUSH1 0x20 SWAP1 DUP2 MSTORE PUSH1 0x40 DUP1 DUP4 KECCAK256 DUP7 DUP5 MSTORE DUP3 MSTORE DUP1 DUP4 KECCAK256 DUP8 DUP5 MSTORE SWAP1 SWAP2 MSTORE SWAP1 KECCAK256 SLOAD PUSH1 0xFF AND ISZERO PUSH2 0x145D JUMPI PUSH1 0x40 MLOAD PUSH3 0x461BCD PUSH1 0xE5 SHL DUP2 MSTORE PUSH1 0x20 PUSH1 0x4 DUP3 ADD MSTORE PUSH1 0x2C PUSH1 0x24 DUP3 ADD MSTORE PUSH32 0x596F752061726520616C72656164792061207061727469636970616E74206F66 PUSH1 0x44 DUP3 ADD MSTORE PUSH12 0x207468697320626F756E7479 PUSH1 0xA0 SHL PUSH1 0x64 DUP3 ADD MSTORE PUSH1 0x84 ADD PUSH2 0x7E8 JUMP JUMPDEST TIMESTAMP DUP2 DUP6 DUP2 SLOAD DUP2 LT PUSH2 0x1470 JUMPI PUSH2 0x1470 PUSH2 0x3AE8 JUMP JUMPDEST SWAP1 PUSH1 0x0 MSTORE PUSH1 0x20 PUSH1 0x0 KECCAK256 SWAP1 PUSH1 0xB MUL ADD PUSH1 0x7 ADD SLOAD LT ISZERO PUSH2 0x14A0 JUMPI PUSH1 0x40 MLOAD PUSH3 0x461BCD PUSH1 0xE5 SHL DUP2 MSTORE PUSH1 0x4 ADD PUSH2 0x7E8 SWAP1 PUSH2 0x3EE0 JUMP JUMPDEST PUSH1 0x1 DUP2 DUP6 DUP2 SLOAD DUP2 LT PUSH2 0x14B4 JUMPI PUSH2 0x14B4 PUSH2 0x3AE8 JUMP JUMPDEST SWAP1 PUSH1 0x0 MSTORE PUSH1 0x20 PUSH1 0x0 KECCAK256 SWAP1 PUSH1 0xB MUL ADD PUSH1 0x9 ADD PUSH1 0x0 DUP3 DUP3 SLOAD PUSH2 0x14D4 SWAP2 SWAP1 PUSH2 0x3E06 JUMP JUMPDEST SWAP1 SWAP2 SSTORE POP POP CALLER PUSH1 0x0 DUP2 DUP2 MSTORE PUSH1 0x19 PUSH1 0x20 SWAP1 DUP2 MSTORE PUSH1 0x40 DUP1 DUP4 KECCAK256 DUP8 DUP5 MSTORE DUP3 MSTORE DUP1 DUP4 KECCAK256 DUP9 DUP5 MSTORE DUP3 MSTORE DUP1 DUP4 KECCAK256 DUP1 SLOAD PUSH1 0x1 DUP1 DUP3 ADD DUP4 SSTORE DUP3 DUP7 MSTORE DUP5 DUP7 KECCAK256 SWAP1 SWAP2 ADD DUP1 SLOAD PUSH1 0x1 PUSH1 0x1 PUSH1 0xA0 SHL SUB NOT AND DUP8 OR SWAP1 SSTORE DUP6 DUP6 MSTORE PUSH1 0x14 DUP5 MSTORE DUP3 DUP6 KECCAK256 DUP10 DUP7 MSTORE DUP5 MSTORE DUP3 DUP6 KECCAK256 DUP11 DUP7 MSTORE DUP5 MSTORE SWAP4 DUP3 SWAP1 KECCAK256 DUP1 SLOAD PUSH1 0xFF NOT AND SWAP1 SWAP5 OR SWAP1 SWAP4 SSTORE DUP1 MLOAD DUP8 DUP2 MSTORE SWAP2 DUP3 ADD DUP9 SWAP1 MSTORE SWAP2 SWAP3 SWAP2 PUSH32 0xA770B4A6702019B88A013BE33923B1874D4C905C6A5E877197DB52932EB5E78E SWAP2 ADD PUSH1 0x40 MLOAD DUP1 SWAP2 SUB SWAP1 LOG2 POP POP POP POP POP JUMP JUMPDEST PUSH1 0x60 PUSH1 0xF PUSH1 0x0 DUP4 DUP2 MSTORE PUSH1 0x20 ADD SWAP1 DUP2 MSTORE PUSH1 0x20 ADD PUSH1 0x0 KECCAK256 DUP1 SLOAD DUP1 PUSH1 0x20 MUL PUSH1 0x20 ADD PUSH1 0x40 MLOAD SWAP1 DUP2 ADD PUSH1 0x40 MSTORE DUP1 SWAP3 SWAP2 SWAP1 DUP2 DUP2 MSTORE PUSH1 0x20 ADD PUSH1 0x0 SWAP1 JUMPDEST DUP3 DUP3 LT ISZERO PUSH2 0x625 JUMPI PUSH1 0x0 DUP5 DUP2 MSTORE PUSH1 0x20 SWAP1 DUP2 SWAP1 KECCAK256 PUSH1 0x40 DUP1 MLOAD DUP1 DUP3 ADD SWAP1 SWAP2 MSTORE PUSH1 0x2 DUP6 MUL SWAP1 SWAP2 ADD DUP1 SLOAD DUP3 MSTORE PUSH1 0x1 SWAP1 DUP2 ADD SLOAD PUSH1 0x1 PUSH1 0x1 PUSH1 0xA0 SHL SUB AND DUP3 DUP5 ADD MSTORE SWAP1 DUP4 MSTORE SWAP1 SWAP3 ADD SWAP2 ADD PUSH2 0x15B9 JUMP JUMPDEST PUSH1 0x0 DUP3 DUP2 MSTORE PUSH1 0xC PUSH1 0x20 MSTORE PUSH1 0x40 DUP2 KECCAK256 DUP1 SLOAD DUP3 SWAP2 DUP3 SWAP2 DUP6 SWAP1 DUP2 LT PUSH2 0x1625 JUMPI PUSH2 0x1625 PUSH2 0x3AE8 JUMP JUMPDEST SWAP1 PUSH1 0x0 MSTORE PUSH1 0x20 PUSH1 0x0 KECCAK256 SWAP1 PUSH1 0xB MUL ADD SWAP1 POP DUP1 PUSH1 0x6 ADD SLOAD TIMESTAMP LT ISZERO PUSH2 0x164A JUMPI PUSH1 0x0 SWAP2 POP PUSH2 0x166F JUMP JUMPDEST DUP1 PUSH1 0x7 ADD SLOAD TIMESTAMP GT PUSH2 0x165E JUMPI PUSH1 0x1 SWAP2 POP PUSH2 0x166F JUMP JUMPDEST DUP1 PUSH1 0x7 ADD SLOAD TIMESTAMP GT ISZERO PUSH2 0x166F JUMPI PUSH1 0x2 SWAP2 POP JUMPDEST PUSH1 0x5 SLOAD PUSH1 0x1 PUSH1 0xA8 SHL SWAP1 DIV PUSH1 0xFF AND PUSH1 0x2 DUP2 GT ISZERO PUSH2 0x168D JUMPI PUSH2 0x168D PUSH2 0x3560 JUMP JUMPDEST SWAP6 SWAP5 POP POP POP POP POP JUMP JUMPDEST CALLER PUSH1 0x0 SWAP1 DUP2 MSTORE PUSH1 0x12 PUSH1 0x20 MSTORE PUSH1 0x40 SWAP1 KECCAK256 SLOAD PUSH1 0xFF AND PUSH2 0x16C5 JUMPI PUSH1 0x40 MLOAD PUSH3 0x461BCD PUSH1 0xE5 SHL DUP2 MSTORE PUSH1 0x4 ADD PUSH2 0x7E8 SWAP1 PUSH2 0x3E19 JUMP JUMPDEST DUP2 PUSH1 0x0 DUP1 JUMPDEST PUSH1 0x6 SLOAD DUP2 LT ISZERO PUSH2 0x1735 JUMPI DUP3 DUP1 MLOAD SWAP1 PUSH1 0x20 ADD KECCAK256 PUSH1 0x6 DUP3 DUP2 SLOAD DUP2 LT PUSH2 0x16EF JUMPI PUSH2 0x16EF PUSH2 0x3AE8 JUMP JUMPDEST SWAP1 PUSH1 0x0 MSTORE PUSH1 0x20 PUSH1 0x0 KECCAK256 SWAP1 PUSH1 0x7 MUL ADD PUSH1 0x1 ADD PUSH1 0x40 MLOAD PUSH2 0x170D SWAP2 SWAP1 PUSH2 0x3F0A JUMP JUMPDEST PUSH1 0x40 MLOAD DUP1 SWAP2 SUB SWAP1 KECCAK256 SUB PUSH2 0x1723 JUMPI PUSH1 0x1 SWAP2 POP PUSH2 0x1735 JUMP JUMPDEST DUP1 PUSH2 0x172D DUP2 PUSH2 0x3DB4 JUMP JUMPDEST SWAP2 POP POP PUSH2 0x16CA JUMP JUMPDEST POP DUP1 ISZERO PUSH2 0x1797 JUMPI PUSH1 0x40 MLOAD PUSH3 0x461BCD PUSH1 0xE5 SHL DUP2 MSTORE PUSH1 0x20 PUSH1 0x4 DUP3 ADD MSTORE PUSH1 0x2A PUSH1 0x24 DUP3 ADD MSTORE PUSH32 0x4F7267616E697A6174696F6E20776974682074686174206E616D6520616C7265 PUSH1 0x44 DUP3 ADD MSTORE PUSH10 0x61647920657869737473 PUSH1 0xB0 SHL PUSH1 0x64 DUP3 ADD MSTORE PUSH1 0x84 ADD PUSH2 0x7E8 JUMP JUMPDEST PUSH1 0x0 DUP1 SLOAD DUP2 MSTORE PUSH1 0xE PUSH1 0x20 MSTORE PUSH1 0x40 SWAP1 KECCAK256 DUP5 MLOAD PUSH2 0x17F4 JUMPI PUSH1 0x40 MLOAD PUSH3 0x461BCD PUSH1 0xE5 SHL DUP2 MSTORE PUSH1 0x20 PUSH1 0x4 DUP3 ADD MSTORE PUSH1 0x1A PUSH1 0x24 DUP3 ADD MSTORE PUSH32 0x4F7267616E69736174696F6E206E616D65207265717569726564000000000000 PUSH1 0x44 DUP3 ADD MSTORE PUSH1 0x64 ADD PUSH2 0x7E8 JUMP JUMPDEST PUSH1 0x0 DUP5 MLOAD GT PUSH2 0x1845 JUMPI PUSH1 0x40 MLOAD PUSH3 0x461BCD PUSH1 0xE5 SHL DUP2 MSTORE PUSH1 0x20 PUSH1 0x4 DUP3 ADD MSTORE PUSH1 0x1D PUSH1 0x24 DUP3 ADD MSTORE PUSH32 0x4F7267616E69736174696F6E206C6F676F206973207265717569726564000000 PUSH1 0x44 DUP3 ADD MSTORE PUSH1 0x64 ADD PUSH2 0x7E8 JUMP JUMPDEST PUSH1 0x0 DUP1 SLOAD DUP3 SSTORE DUP1 DUP1 PUSH1 0x1 DUP5 ADD PUSH2 0x185B DUP10 DUP3 PUSH2 0x3F80 JUMP JUMPDEST POP PUSH1 0x2 DUP5 ADD PUSH2 0x186A DUP9 DUP3 PUSH2 0x3F80 JUMP JUMPDEST POP PUSH1 0x4 DUP5 ADD DUP4 SWAP1 SSTORE PUSH1 0x5 DUP5 ADD DUP3 SWAP1 SSTORE PUSH1 0x6 DUP1 DUP6 ADD DUP3 SWAP1 SSTORE PUSH1 0x3 DUP6 ADD DUP1 SLOAD PUSH1 0x1 PUSH1 0x1 PUSH1 0xA0 SHL SUB NOT AND CALLER SWAP1 DUP2 OR SWAP1 SWAP2 SSTORE PUSH1 0x40 DUP1 MLOAD PUSH1 0xE0 DUP2 ADD DUP3 MSTORE PUSH1 0x0 DUP1 SLOAD DUP3 MSTORE PUSH1 0x20 DUP3 ADD DUP14 DUP2 MSTORE SWAP3 DUP3 ADD DUP13 SWAP1 MSTORE PUSH1 0x60 DUP3 ADD SWAP4 SWAP1 SWAP4 MSTORE PUSH1 0x80 DUP2 ADD DUP8 SWAP1 MSTORE PUSH1 0xA0 DUP2 ADD DUP7 SWAP1 MSTORE PUSH1 0xC0 DUP2 ADD DUP6 SWAP1 MSTORE DUP4 SLOAD PUSH1 0x1 DUP2 ADD DUP6 SSTORE SWAP4 SWAP1 SWAP3 MSTORE DUP2 MLOAD PUSH1 0x7 SWAP1 SWAP4 MUL PUSH32 0xF652222313E28459528D920B65115C16C04F3EFC82AAEDC97BE59F3F377C0D3F DUP2 ADD SWAP4 DUP5 SSTORE SWAP1 MLOAD SWAP2 SWAP3 SWAP2 PUSH32 0xF652222313E28459528D920B65115C16C04F3EFC82AAEDC97BE59F3F377C0D40 SWAP1 SWAP2 ADD SWAP1 PUSH2 0x193F SWAP1 DUP3 PUSH2 0x3F80 JUMP JUMPDEST POP PUSH1 0x40 DUP3 ADD MLOAD PUSH1 0x2 DUP3 ADD SWAP1 PUSH2 0x1954 SWAP1 DUP3 PUSH2 0x3F80 JUMP JUMPDEST POP PUSH1 0x60 DUP3 ADD MLOAD PUSH1 0x3 DUP3 ADD DUP1 SLOAD PUSH1 0x1 PUSH1 0x1 PUSH1 0xA0 SHL SUB NOT AND PUSH1 0x1 PUSH1 0x1 PUSH1 0xA0 SHL SUB SWAP1 SWAP3 AND SWAP2 SWAP1 SWAP2 OR SWAP1 SSTORE PUSH1 0x80 DUP3 ADD MLOAD PUSH1 0x4 DUP3 ADD SSTORE PUSH1 0xA0 DUP3 ADD MLOAD PUSH1 0x5 DUP3 ADD SSTORE PUSH1 0xC0 SWAP1 SWAP2 ADD MLOAD PUSH1 0x6 SWAP1 SWAP2 ADD SSTORE PUSH1 0x0 DUP1 SLOAD SWAP1 DUP1 PUSH2 0x19AA DUP4 PUSH2 0x3DB4 JUMP JUMPDEST SWAP1 SWAP2 SSTORE POP POP CALLER PUSH1 0x0 DUP2 DUP2 MSTORE PUSH1 0x1A PUSH1 0x20 MSTORE PUSH1 0x40 DUP1 DUP3 KECCAK256 DUP1 SLOAD PUSH1 0xFF NOT AND PUSH1 0x1 OR SWAP1 SSTORE SWAP1 SLOAD SWAP1 MLOAD PUSH32 0xEDF617EFEFFC15BBAFE74BA4F21AA754D5F662ED143C1982B4C41BCCE41AA6B1 SWAP3 PUSH2 0x1A04 SWAP3 SWAP2 DUP13 SWAP2 DUP13 SWAP2 DUP10 SWAP1 DUP10 SWAP1 DUP10 SWAP1 PUSH2 0x372C JUMP JUMPDEST PUSH1 0x40 MLOAD DUP1 SWAP2 SUB SWAP1 LOG1 POP POP POP POP POP POP POP POP JUMP JUMPDEST CALLER PUSH1 0x0 SWAP1 DUP2 MSTORE PUSH1 0x12 PUSH1 0x20 MSTORE PUSH1 0x40 SWAP1 KECCAK256 SLOAD PUSH1 0xFF AND ISZERO PUSH2 0x1A6E JUMPI PUSH1 0x40 MLOAD PUSH3 0x461BCD PUSH1 0xE5 SHL DUP2 MSTORE PUSH1 0x20 PUSH1 0x4 DUP3 ADD MSTORE PUSH1 0x15 PUSH1 0x24 DUP3 ADD MSTORE PUSH21 0x1058D8DBDD5B9D08185B1C9958591E48195E1A5CDD PUSH1 0x5A SHL PUSH1 0x44 DUP3 ADD MSTORE PUSH1 0x64 ADD PUSH2 0x7E8 JUMP JUMPDEST CALLER PUSH1 0x0 DUP2 DUP2 MSTORE PUSH1 0x11 PUSH1 0x20 SWAP1 DUP2 MSTORE PUSH1 0x40 DUP1 DUP4 KECCAK256 PUSH1 0x2 DUP1 SLOAD DUP3 SSTORE PUSH1 0x1 DUP1 DUP4 ADD DUP1 SLOAD PUSH1 0x1 PUSH1 0x1 PUSH1 0xA0 SHL SUB NOT SWAP1 DUP2 AND DUP10 OR SWAP1 SWAP2 SSTORE DUP5 MLOAD DUP1 DUP7 ADD SWAP1 SWAP6 MSTORE DUP3 SLOAD DUP6 MSTORE SWAP5 DUP5 ADD SWAP7 DUP8 MSTORE PUSH1 0x8 DUP1 SLOAD SWAP2 DUP3 ADD DUP2 SSTORE DUP7 MSTORE SWAP3 MLOAD PUSH32 0xF3F7A9FE364FAAB93B216DA50A3214154F22A0A2B415B23A84C8169E8B636EE3 SWAP4 DUP3 MUL SWAP4 DUP5 ADD SSTORE SWAP5 MLOAD PUSH32 0xF3F7A9FE364FAAB93B216DA50A3214154F22A0A2B415B23A84C8169E8B636EE4 SWAP1 SWAP3 ADD DUP1 SLOAD SWAP1 SWAP4 AND PUSH1 0x1 PUSH1 0x1 PUSH1 0xA0 SHL SUB SWAP1 SWAP3 AND SWAP2 SWAP1 SWAP2 OR SWAP1 SWAP2 SSTORE DUP3 SLOAD SWAP1 SWAP3 SWAP1 SWAP2 PUSH2 0x1B31 DUP4 PUSH2 0x3DB4 JUMP JUMPDEST SWAP1 SWAP2 SSTORE POP POP CALLER PUSH1 0x0 DUP2 DUP2 MSTORE PUSH1 0x12 PUSH1 0x20 MSTORE PUSH1 0x40 SWAP1 DUP2 SWAP1 KECCAK256 DUP1 SLOAD PUSH1 0xFF NOT AND PUSH1 0x1 OR SWAP1 SSTORE PUSH1 0x2 SLOAD SWAP1 MLOAD PUSH32 0x16DBEA9E6C62A3D68D52370CB8A42062BFBB274308A5365738A79642C72F58A4 SWAP2 PUSH2 0x1B86 SWAP2 SWAP1 DUP2 MSTORE PUSH1 0x20 ADD SWAP1 JUMP JUMPDEST PUSH1 0x40 MLOAD DUP1 SWAP2 SUB SWAP1 LOG2 POP JUMP JUMPDEST PUSH1 0x60 PUSH1 0x8 DUP1 SLOAD DUP1 PUSH1 0x20 MUL PUSH1 0x20 ADD PUSH1 0x40 MLOAD SWAP1 DUP2 ADD PUSH1 0x40 MSTORE DUP1 SWAP3 SWAP2 SWAP1 DUP2 DUP2 MSTORE PUSH1 0x20 ADD PUSH1 0x0 SWAP1 JUMPDEST DUP3 DUP3 LT ISZERO PUSH2 0x1BFD JUMPI PUSH1 0x0 DUP5 DUP2 MSTORE PUSH1 0x20 SWAP1 DUP2 SWAP1 KECCAK256 PUSH1 0x40 DUP1 MLOAD DUP1 DUP3 ADD SWAP1 SWAP2 MSTORE PUSH1 0x2 DUP6 MUL SWAP1 SWAP2 ADD DUP1 SLOAD DUP3 MSTORE PUSH1 0x1 SWAP1 DUP2 ADD SLOAD PUSH1 0x1 PUSH1 0x1 PUSH1 0xA0 SHL SUB AND DUP3 DUP5 ADD MSTORE SWAP1 DUP4 MSTORE SWAP1 SWAP3 ADD SWAP2 ADD PUSH2 0x1BB5 JUMP JUMPDEST POP POP POP POP SWAP1 POP SWAP1 JUMP JUMPDEST PUSH1 0x0 DUP2 DUP2 MSTORE PUSH1 0xE PUSH1 0x20 MSTORE PUSH1 0x40 SWAP1 KECCAK256 PUSH1 0x3 ADD SLOAD DUP2 SWAP1 PUSH1 0x1 PUSH1 0x1 PUSH1 0xA0 SHL SUB AND CALLER EQ PUSH2 0x1C41 JUMPI PUSH1 0x40 MLOAD PUSH3 0x461BCD PUSH1 0xE5 SHL DUP2 MSTORE PUSH1 0x4 ADD PUSH2 0x7E8 SWAP1 PUSH2 0x3BD7 JUMP JUMPDEST PUSH1 0x6 DUP3 DUP2 SLOAD DUP2 LT PUSH2 0x1C54 JUMPI PUSH2 0x1C54 PUSH2 0x3AE8 JUMP JUMPDEST PUSH1 0x0 SWAP2 DUP3 MSTORE PUSH1 0x20 SWAP1 SWAP2 KECCAK256 PUSH1 0x7 SWAP1 SWAP2 MUL ADD PUSH1 0x3 ADD SLOAD PUSH1 0x1 PUSH1 0x1 PUSH1 0xA0 SHL SUB AND CALLER EQ PUSH2 0x1C8F JUMPI PUSH1 0x40 MLOAD PUSH3 0x461BCD PUSH1 0xE5 SHL DUP2 MSTORE PUSH1 0x4 ADD PUSH2 0x7E8 SWAP1 PUSH2 0x3BD7 JUMP JUMPDEST PUSH1 0x6 DUP3 DUP2 SLOAD DUP2 LT PUSH2 0x1CA2 JUMPI PUSH2 0x1CA2 PUSH2 0x3AE8 JUMP JUMPDEST PUSH1 0x0 SWAP2 DUP3 MSTORE PUSH1 0x20 DUP3 KECCAK256 PUSH1 0x7 SWAP1 SWAP2 MUL ADD DUP2 DUP2 SSTORE SWAP1 PUSH2 0x1CC2 PUSH1 0x1 DUP4 ADD DUP3 PUSH2 0x34AB JUMP JUMPDEST PUSH2 0x1CD0 PUSH1 0x2 DUP4 ADD PUSH1 0x0 PUSH2 0x34AB JUMP JUMPDEST POP PUSH1 0x3 DUP2 ADD DUP1 SLOAD PUSH1 0x1 PUSH1 0x1 PUSH1 0xA0 SHL SUB NOT AND SWAP1 SSTORE PUSH1 0x0 PUSH1 0x4 DUP3 ADD DUP2 SWAP1 SSTORE PUSH1 0x5 DUP3 ADD DUP2 SWAP1 SSTORE PUSH1 0x6 SWAP1 SWAP2 ADD SSTORE POP POP JUMP JUMPDEST CALLER PUSH1 0x0 SWAP1 DUP2 MSTORE PUSH1 0x12 PUSH1 0x20 MSTORE PUSH1 0x40 SWAP1 KECCAK256 SLOAD PUSH1 0xFF AND PUSH2 0x1D2C JUMPI PUSH1 0x40 MLOAD PUSH3 0x461BCD PUSH1 0xE5 SHL DUP2 MSTORE PUSH1 0x4 ADD PUSH2 0x7E8 SWAP1 PUSH2 0x3E19 JUMP JUMPDEST CALLER PUSH1 0x0 SWAP1 DUP2 MSTORE PUSH1 0x15 PUSH1 0x20 SWAP1 DUP2 MSTORE PUSH1 0x40 DUP1 DUP4 KECCAK256 DUP6 DUP5 MSTORE SWAP1 SWAP2 MSTORE SWAP1 KECCAK256 SLOAD DUP3 SWAP1 PUSH1 0xFF AND PUSH2 0x1D68 JUMPI PUSH1 0x40 MLOAD PUSH3 0x461BCD PUSH1 0xE5 SHL DUP2 MSTORE PUSH1 0x4 ADD PUSH2 0x7E8 SWAP1 PUSH2 0x3E5C JUMP JUMPDEST DUP1 PUSH1 0x6 DUP3 DUP2 SLOAD DUP2 LT PUSH2 0x1D7C JUMPI PUSH2 0x1D7C PUSH2 0x3AE8 JUMP JUMPDEST SWAP1 PUSH1 0x0 MSTORE PUSH1 0x20 PUSH1 0x0 KECCAK256 SWAP1 PUSH1 0x7 MUL ADD PUSH1 0x0 ADD SLOAD EQ PUSH2 0x1DAB JUMPI PUSH1 0x40 MLOAD PUSH3 0x461BCD PUSH1 0xE5 SHL DUP2 MSTORE PUSH1 0x4 ADD PUSH2 0x7E8 SWAP1 PUSH2 0x3EA9 JUMP JUMPDEST PUSH1 0x0 DUP4 DUP2 MSTORE PUSH1 0xC PUSH1 0x20 MSTORE PUSH1 0x40 SWAP1 KECCAK256 DUP1 SLOAD DUP5 SWAP2 DUP7 SWAP2 DUP4 SWAP1 DUP3 SWAP1 DUP3 SWAP1 DUP2 LT PUSH2 0x1DD3 JUMPI PUSH2 0x1DD3 PUSH2 0x3AE8 JUMP JUMPDEST SWAP1 PUSH1 0x0 MSTORE PUSH1 0x20 PUSH1 0x0 KECCAK256 SWAP1 PUSH1 0xB MUL ADD PUSH1 0x1 ADD SLOAD EQ PUSH2 0x1E02 JUMPI PUSH1 0x40 MLOAD PUSH3 0x461BCD PUSH1 0xE5 SHL DUP2 MSTORE PUSH1 0x4 ADD PUSH2 0x7E8 SWAP1 PUSH2 0x3B65 JUMP JUMPDEST CALLER PUSH1 0x0 SWAP1 DUP2 MSTORE PUSH1 0x14 PUSH1 0x20 SWAP1 DUP2 MSTORE PUSH1 0x40 DUP1 DUP4 KECCAK256 DUP6 DUP5 MSTORE DUP3 MSTORE DUP1 DUP4 KECCAK256 DUP7 DUP5 MSTORE SWAP1 SWAP2 MSTORE SWAP1 KECCAK256 SLOAD PUSH1 0xFF AND PUSH2 0x1E44 JUMPI PUSH1 0x40 MLOAD PUSH3 0x461BCD PUSH1 0xE5 SHL DUP2 MSTORE PUSH1 0x4 ADD PUSH2 0x7E8 SWAP1 PUSH2 0x3B94 JUMP JUMPDEST CALLER PUSH1 0x0 SWAP1 DUP2 MSTORE PUSH1 0x13 PUSH1 0x20 MSTORE PUSH1 0x40 SWAP1 KECCAK256 SLOAD PUSH1 0xFF AND ISZERO PUSH2 0x1E9C JUMPI PUSH1 0x40 MLOAD PUSH3 0x461BCD PUSH1 0xE5 SHL DUP2 MSTORE PUSH1 0x20 PUSH1 0x4 DUP3 ADD MSTORE PUSH1 0x15 PUSH1 0x24 DUP3 ADD MSTORE PUSH21 0x165BDD48185B1C9958591E481CDD589B5A5D1D1959 PUSH1 0x5A SHL PUSH1 0x44 DUP3 ADD MSTORE PUSH1 0x64 ADD PUSH2 0x7E8 JUMP JUMPDEST PUSH1 0x0 DUP8 DUP2 MSTORE PUSH1 0xC PUSH1 0x20 MSTORE PUSH1 0x40 SWAP1 KECCAK256 DUP1 SLOAD TIMESTAMP SWAP1 DUP3 SWAP1 DUP11 SWAP1 DUP2 LT PUSH2 0x1EC0 JUMPI PUSH2 0x1EC0 PUSH2 0x3AE8 JUMP JUMPDEST SWAP1 PUSH1 0x0 MSTORE PUSH1 0x20 PUSH1 0x0 KECCAK256 SWAP1 PUSH1 0xB MUL ADD PUSH1 0x7 ADD SLOAD LT ISZERO PUSH2 0x1EF0 JUMPI PUSH1 0x40 MLOAD PUSH3 0x461BCD PUSH1 0xE5 SHL DUP2 MSTORE PUSH1 0x4 ADD PUSH2 0x7E8 SWAP1 PUSH2 0x3EE0 JUMP JUMPDEST DUP1 DUP9 DUP2 SLOAD DUP2 LT PUSH2 0x1F02 JUMPI PUSH2 0x1F02 PUSH2 0x3AE8 JUMP JUMPDEST SWAP1 PUSH1 0x0 MSTORE PUSH1 0x20 PUSH1 0x0 KECCAK256 SWAP1 PUSH1 0xB MUL ADD PUSH1 0x6 ADD SLOAD TIMESTAMP LT ISZERO PUSH2 0x1F33 JUMPI PUSH1 0x40 MLOAD PUSH3 0x461BCD PUSH1 0xE5 SHL DUP2 MSTORE PUSH1 0x4 ADD PUSH2 0x7E8 SWAP1 PUSH2 0x3AFE JUMP JUMPDEST CALLER PUSH1 0x0 SWAP1 DUP2 MSTORE PUSH1 0x17 PUSH1 0x20 SWAP1 DUP2 MSTORE PUSH1 0x40 DUP1 DUP4 KECCAK256 DUP11 DUP5 MSTORE DUP3 MSTORE DUP1 DUP4 KECCAK256 DUP12 DUP5 MSTORE SWAP1 SWAP2 MSTORE DUP2 KECCAK256 PUSH1 0x5 DUP2 ADD DUP1 SLOAD PUSH1 0xFF NOT AND SWAP1 SSTORE PUSH1 0x4 DUP1 SLOAD DUP3 SSTORE DUP2 ADD PUSH2 0x1F73 DUP10 DUP3 PUSH2 0x3F80 JUMP JUMPDEST POP PUSH1 0x3 DUP2 ADD DUP1 SLOAD PUSH1 0x1 PUSH1 0x1 PUSH1 0xA0 SHL SUB NOT AND CALLER OR SWAP1 SSTORE PUSH1 0x1 DUP2 ADD DUP10 SWAP1 SSTORE PUSH1 0x2 DUP2 ADD DUP11 SWAP1 SSTORE PUSH1 0x6 DUP2 ADD DUP1 SLOAD DUP4 SWAP2 SWAP1 PUSH1 0x0 SWAP1 PUSH2 0x1FAD SWAP1 DUP5 SWAP1 PUSH2 0x3E06 JUMP JUMPDEST SWAP1 SWAP2 SSTORE POP POP PUSH1 0x40 DUP1 MLOAD PUSH1 0xE0 DUP2 ADD DUP3 MSTORE PUSH1 0x4 SLOAD DUP2 MSTORE PUSH1 0x20 DUP2 ADD DUP12 DUP2 MSTORE SWAP2 DUP2 ADD DUP13 DUP2 MSTORE CALLER PUSH1 0x60 DUP4 ADD SWAP1 DUP2 MSTORE PUSH1 0x80 DUP4 ADD DUP13 DUP2 MSTORE PUSH1 0x0 PUSH1 0xA0 DUP6 ADD DUP2 SWAP1 MSTORE PUSH1 0xC0 DUP6 ADD DUP9 SWAP1 MSTORE PUSH1 0xA DUP1 SLOAD PUSH1 0x1 DUP2 ADD DUP3 SSTORE SWAP2 MSTORE DUP5 MLOAD PUSH32 0xC65A7BB8D6351C1CF70C95A316CC6A92839C986682D98BC35F958F4883F9D2A8 PUSH1 0x7 SWAP1 SWAP3 MUL SWAP2 DUP3 ADD SWAP1 DUP2 SSTORE SWAP6 MLOAD PUSH32 0xC65A7BB8D6351C1CF70C95A316CC6A92839C986682D98BC35F958F4883F9D2A9 DUP3 ADD SSTORE SWAP3 MLOAD PUSH32 0xC65A7BB8D6351C1CF70C95A316CC6A92839C986682D98BC35F958F4883F9D2AA DUP5 ADD SSTORE SWAP1 MLOAD PUSH32 0xC65A7BB8D6351C1CF70C95A316CC6A92839C986682D98BC35F958F4883F9D2AB DUP4 ADD DUP1 SLOAD PUSH1 0x1 PUSH1 0x1 PUSH1 0xA0 SHL SUB NOT AND PUSH1 0x1 PUSH1 0x1 PUSH1 0xA0 SHL SUB SWAP1 SWAP3 AND SWAP2 SWAP1 SWAP2 OR SWAP1 SSTORE MLOAD SWAP2 SWAP3 SWAP2 PUSH32 0xC65A7BB8D6351C1CF70C95A316CC6A92839C986682D98BC35F958F4883F9D2AC SWAP1 SWAP2 ADD SWAP1 PUSH2 0x20E8 SWAP1 DUP3 PUSH2 0x3F80 JUMP JUMPDEST POP PUSH1 0xA0 DUP3 ADD MLOAD PUSH1 0x5 DUP3 ADD DUP1 SLOAD PUSH1 0xFF NOT AND SWAP2 ISZERO ISZERO SWAP2 SWAP1 SWAP2 OR SWAP1 SSTORE PUSH1 0xC0 SWAP1 SWAP2 ADD MLOAD PUSH1 0x6 SWAP1 SWAP2 ADD SSTORE PUSH1 0x4 DUP1 SLOAD SWAP1 PUSH1 0x0 PUSH2 0x211D DUP4 PUSH2 0x3DB4 JUMP JUMPDEST SWAP2 SWAP1 POP SSTORE POP PUSH1 0x1 PUSH1 0x13 PUSH1 0x0 CALLER PUSH1 0x1 PUSH1 0x1 PUSH1 0xA0 SHL SUB AND PUSH1 0x1 PUSH1 0x1 PUSH1 0xA0 SHL SUB AND DUP2 MSTORE PUSH1 0x20 ADD SWAP1 DUP2 MSTORE PUSH1 0x20 ADD PUSH1 0x0 KECCAK256 PUSH1 0x0 PUSH2 0x100 EXP DUP2 SLOAD DUP2 PUSH1 0xFF MUL NOT AND SWAP1 DUP4 ISZERO ISZERO MUL OR SWAP1 SSTORE POP CALLER PUSH1 0x1 PUSH1 0x1 PUSH1 0xA0 SHL SUB AND PUSH32 0x6DE6DFFDC759FA37433A5973FD211595FEABEE2E5015DE6F7E9D3B4EEA89079C PUSH1 0x4 SLOAD DUP12 DUP14 DUP13 PUSH1 0x0 DUP9 PUSH1 0x40 MLOAD PUSH2 0x21A6 SWAP7 SWAP6 SWAP5 SWAP4 SWAP3 SWAP2 SWAP1 PUSH2 0x403A JUMP JUMPDEST PUSH1 0x40 MLOAD DUP1 SWAP2 SUB SWAP1 LOG2 POP POP POP POP POP POP POP POP POP POP JUMP JUMPDEST PUSH1 0x0 DUP3 DUP2 MSTORE PUSH1 0xC PUSH1 0x20 MSTORE PUSH1 0x40 SWAP1 KECCAK256 DUP1 SLOAD DUP4 SWAP2 DUP6 SWAP2 DUP4 SWAP1 DUP3 SWAP1 DUP3 SWAP1 DUP2 LT PUSH2 0x21E2 JUMPI PUSH2 0x21E2 PUSH2 0x3AE8 JUMP JUMPDEST SWAP1 PUSH1 0x0 MSTORE PUSH1 0x20 PUSH1 0x0 KECCAK256 SWAP1 PUSH1 0xB MUL ADD PUSH1 0x1 ADD SLOAD EQ PUSH2 0x2211 JUMPI PUSH1 0x40 MLOAD PUSH3 0x461BCD PUSH1 0xE5 SHL DUP2 MSTORE PUSH1 0x4 ADD PUSH2 0x7E8 SWAP1 PUSH2 0x3B65 JUMP JUMPDEST CALLER PUSH1 0x0 SWAP1 DUP2 MSTORE PUSH1 0x14 PUSH1 0x20 SWAP1 DUP2 MSTORE PUSH1 0x40 DUP1 DUP4 KECCAK256 DUP6 DUP5 MSTORE DUP3 MSTORE DUP1 DUP4 KECCAK256 DUP7 DUP5 MSTORE SWAP1 SWAP2 MSTORE SWAP1 KECCAK256 SLOAD PUSH1 0xFF AND PUSH2 0x2253 JUMPI PUSH1 0x40 MLOAD PUSH3 0x461BCD PUSH1 0xE5 SHL DUP2 MSTORE PUSH1 0x4 ADD PUSH2 0x7E8 SWAP1 PUSH2 0x3B94 JUMP JUMPDEST PUSH1 0x0 DUP7 DUP2 MSTORE PUSH1 0xC PUSH1 0x20 MSTORE PUSH1 0x40 SWAP1 KECCAK256 DUP1 SLOAD DUP8 SWAP2 DUP8 SWAP2 CALLER SWAP2 SWAP1 DUP4 SWAP1 DUP2 LT PUSH2 0x227A JUMPI PUSH2 0x227A PUSH2 0x3AE8 JUMP JUMPDEST PUSH1 0x0 SWAP2 DUP3 MSTORE PUSH1 0x20 SWAP1 SWAP2 KECCAK256 PUSH1 0x3 PUSH1 0xB SWAP1 SWAP3 MUL ADD ADD SLOAD PUSH1 0x1 PUSH1 0x1 PUSH1 0xA0 SHL SUB AND EQ PUSH2 0x22B4 JUMPI PUSH1 0x40 MLOAD PUSH3 0x461BCD PUSH1 0xE5 SHL DUP2 MSTORE PUSH1 0x4 ADD PUSH2 0x7E8 SWAP1 PUSH2 0x3D7D JUMP JUMPDEST PUSH1 0x0 DUP8 DUP2 MSTORE PUSH1 0xC PUSH1 0x20 MSTORE PUSH1 0x40 SWAP1 KECCAK256 DUP1 SLOAD DUP9 SWAP2 SWAP1 DUP2 SWAP1 DUP4 SWAP1 DUP2 LT PUSH2 0x22D9 JUMPI PUSH2 0x22D9 PUSH2 0x3AE8 JUMP JUMPDEST SWAP1 PUSH1 0x0 MSTORE PUSH1 0x20 PUSH1 0x0 KECCAK256 SWAP1 PUSH1 0xB MUL ADD PUSH1 0x6 ADD SLOAD TIMESTAMP LT ISZERO PUSH2 0x230A JUMPI PUSH1 0x40 MLOAD PUSH3 0x461BCD PUSH1 0xE5 SHL DUP2 MSTORE PUSH1 0x4 ADD PUSH2 0x7E8 SWAP1 PUSH2 0x3AFE JUMP JUMPDEST DUP1 DUP3 DUP2 SLOAD DUP2 LT PUSH2 0x231C JUMPI PUSH2 0x231C PUSH2 0x3AE8 JUMP JUMPDEST SWAP1 PUSH1 0x0 MSTORE PUSH1 0x20 PUSH1 0x0 KECCAK256 SWAP1 PUSH1 0xB MUL ADD PUSH1 0x7 ADD SLOAD TIMESTAMP LT ISZERO PUSH2 0x234D JUMPI PUSH1 0x40 MLOAD PUSH3 0x461BCD PUSH1 0xE5 SHL DUP2 MSTORE PUSH1 0x4 ADD PUSH2 0x7E8 SWAP1 PUSH2 0x3B2E JUMP JUMPDEST PUSH1 0x1 PUSH1 0x1 PUSH1 0xA0 SHL SUB DUP9 AND PUSH1 0x0 SWAP1 DUP2 MSTORE PUSH1 0x17 PUSH1 0x20 SWAP1 DUP2 MSTORE PUSH1 0x40 DUP1 DUP4 KECCAK256 DUP14 DUP5 MSTORE DUP3 MSTORE DUP1 DUP4 KECCAK256 DUP13 DUP5 MSTORE SWAP1 SWAP2 MSTORE DUP2 KECCAK256 PUSH1 0x5 DUP2 ADD DUP1 SLOAD PUSH1 0xFF NOT AND PUSH1 0x1 OR SWAP1 SSTORE SWAP1 JUMPDEST PUSH1 0xA SLOAD DUP2 LT ISZERO PUSH2 0x247F JUMPI DUP12 PUSH1 0xA DUP3 DUP2 SLOAD DUP2 LT PUSH2 0x23A7 JUMPI PUSH2 0x23A7 PUSH2 0x3AE8 JUMP JUMPDEST SWAP1 PUSH1 0x0 MSTORE PUSH1 0x20 PUSH1 0x0 KECCAK256 SWAP1 PUSH1 0x7 MUL ADD PUSH1 0x1 ADD SLOAD EQ DUP1 ISZERO PUSH2 0x23E9 JUMPI POP DUP11 PUSH1 0xA DUP3 DUP2 SLOAD DUP2 LT PUSH2 0x23D5 JUMPI PUSH2 0x23D5 PUSH2 0x3AE8 JUMP JUMPDEST SWAP1 PUSH1 0x0 MSTORE PUSH1 0x20 PUSH1 0x0 KECCAK256 SWAP1 PUSH1 0x7 MUL ADD PUSH1 0x2 ADD SLOAD EQ JUMPDEST DUP1 ISZERO PUSH2 0x242C JUMPI POP DUP10 PUSH1 0x1 PUSH1 0x1 PUSH1 0xA0 SHL SUB AND PUSH1 0xA DUP3 DUP2 SLOAD DUP2 LT PUSH2 0x240D JUMPI PUSH2 0x240D PUSH2 0x3AE8 JUMP JUMPDEST PUSH1 0x0 SWAP2 DUP3 MSTORE PUSH1 0x20 SWAP1 SWAP2 KECCAK256 PUSH1 0x3 PUSH1 0x7 SWAP1 SWAP3 MUL ADD ADD SLOAD PUSH1 0x1 PUSH1 0x1 PUSH1 0xA0 SHL SUB AND EQ JUMPDEST ISZERO PUSH2 0x246D JUMPI PUSH1 0x1 PUSH1 0xA DUP3 DUP2 SLOAD DUP2 LT PUSH2 0x2446 JUMPI PUSH2 0x2446 PUSH2 0x3AE8 JUMP JUMPDEST PUSH1 0x0 SWAP2 DUP3 MSTORE PUSH1 0x20 SWAP1 SWAP2 KECCAK256 PUSH1 0x7 SWAP1 SWAP2 MUL ADD PUSH1 0x5 ADD DUP1 SLOAD PUSH1 0xFF NOT AND SWAP2 ISZERO ISZERO SWAP2 SWAP1 SWAP2 OR SWAP1 SSTORE PUSH2 0x247F JUMP JUMPDEST DUP1 PUSH2 0x2477 DUP2 PUSH2 0x3DB4 JUMP JUMPDEST SWAP2 POP POP PUSH2 0x2389 JUMP JUMPDEST POP PUSH1 0x40 DUP1 MLOAD DUP13 DUP2 MSTORE PUSH1 0x20 DUP2 ADD DUP13 SWAP1 MSTORE PUSH1 0x1 DUP2 DUP4 ADD MSTORE SWAP1 MLOAD PUSH1 0x1 PUSH1 0x1 PUSH1 0xA0 SHL SUB DUP12 AND SWAP2 PUSH32 0x995704E97116D1A6EF6A581766959CEF232AECEF4C869437016CB623F3E94246 SWAP2 SWAP1 DUP2 SWAP1 SUB PUSH1 0x60 ADD SWAP1 LOG2 POP POP POP POP POP POP POP POP POP POP POP JUMP JUMPDEST PUSH1 0x60 PUSH1 0x6 DUP1 SLOAD DUP1 PUSH1 0x20 MUL PUSH1 0x20 ADD PUSH1 0x40 MLOAD SWAP1 DUP2 ADD PUSH1 0x40 MSTORE DUP1 SWAP3 SWAP2 SWAP1 DUP2 DUP2 MSTORE PUSH1 0x20 ADD PUSH1 0x0 SWAP1 JUMPDEST DUP3 DUP3 LT ISZERO PUSH2 0x1BFD JUMPI DUP4 DUP3 SWAP1 PUSH1 0x0 MSTORE PUSH1 0x20 PUSH1 0x0 KECCAK256 SWAP1 PUSH1 0x7 MUL ADD PUSH1 0x40 MLOAD DUP1 PUSH1 0xE0 ADD PUSH1 0x40 MSTORE SWAP1 DUP2 PUSH1 0x0 DUP3 ADD SLOAD DUP2 MSTORE PUSH1 0x20 ADD PUSH1 0x1 DUP3 ADD DUP1 SLOAD PUSH2 0x253A SWAP1 PUSH2 0x3AAE JUMP JUMPDEST DUP1 PUSH1 0x1F ADD PUSH1 0x20 DUP1 SWAP2 DIV MUL PUSH1 0x20 ADD PUSH1 0x40 MLOAD SWAP1 DUP2 ADD PUSH1 0x40 MSTORE DUP1 SWAP3 SWAP2 SWAP1 DUP2 DUP2 MSTORE PUSH1 0x20 ADD DUP3 DUP1 SLOAD PUSH2 0x2566 SWAP1 PUSH2 0x3AAE JUMP JUMPDEST DUP1 ISZERO PUSH2 0x25B3 JUMPI DUP1 PUSH1 0x1F LT PUSH2 0x2588 JUMPI PUSH2 0x100 DUP1 DUP4 SLOAD DIV MUL DUP4 MSTORE SWAP2 PUSH1 0x20 ADD SWAP2 PUSH2 0x25B3 JUMP JUMPDEST DUP3 ADD SWAP2 SWAP1 PUSH1 0x0 MSTORE PUSH1 0x20 PUSH1 0x0 KECCAK256 SWAP1 JUMPDEST DUP2 SLOAD DUP2 MSTORE SWAP1 PUSH1 0x1 ADD SWAP1 PUSH1 0x20 ADD DUP1 DUP4 GT PUSH2 0x2596 JUMPI DUP3 SWAP1 SUB PUSH1 0x1F AND DUP3 ADD SWAP2 JUMPDEST POP POP POP POP POP DUP2 MSTORE PUSH1 0x20 ADD PUSH1 0x2 DUP3 ADD DUP1 SLOAD PUSH2 0x25CC SWAP1 PUSH2 0x3AAE JUMP JUMPDEST DUP1 PUSH1 0x1F ADD PUSH1 0x20 DUP1 SWAP2 DIV MUL PUSH1 0x20 ADD PUSH1 0x40 MLOAD SWAP1 DUP2 ADD PUSH1 0x40 MSTORE DUP1 SWAP3 SWAP2 SWAP1 DUP2 DUP2 MSTORE PUSH1 0x20 ADD DUP3 DUP1 SLOAD PUSH2 0x25F8 SWAP1 PUSH2 0x3AAE JUMP JUMPDEST DUP1 ISZERO PUSH2 0x2645 JUMPI DUP1 PUSH1 0x1F LT PUSH2 0x261A JUMPI PUSH2 0x100 DUP1 DUP4 SLOAD DIV MUL DUP4 MSTORE SWAP2 PUSH1 0x20 ADD SWAP2 PUSH2 0x2645 JUMP JUMPDEST DUP3 ADD SWAP2 SWAP1 PUSH1 0x0 MSTORE PUSH1 0x20 PUSH1 0x0 KECCAK256 SWAP1 JUMPDEST DUP2 SLOAD DUP2 MSTORE SWAP1 PUSH1 0x1 ADD SWAP1 PUSH1 0x20 ADD DUP1 DUP4 GT PUSH2 0x2628 JUMPI DUP3 SWAP1 SUB PUSH1 0x1F AND DUP3 ADD SWAP2 JUMPDEST POP POP POP SWAP2 DUP4 MSTORE POP POP PUSH1 0x3 DUP3 ADD SLOAD PUSH1 0x1 PUSH1 0x1 PUSH1 0xA0 SHL SUB AND PUSH1 0x20 DUP1 DUP4 ADD SWAP2 SWAP1 SWAP2 MSTORE PUSH1 0x4 DUP4 ADD SLOAD PUSH1 0x40 DUP4 ADD MSTORE PUSH1 0x5 DUP4 ADD SLOAD PUSH1 0x60 DUP4 ADD MSTORE PUSH1 0x6 SWAP1 SWAP3 ADD SLOAD PUSH1 0x80 SWAP1 SWAP2 ADD MSTORE SWAP1 DUP3 MSTORE PUSH1 0x1 SWAP3 SWAP1 SWAP3 ADD SWAP2 ADD PUSH2 0x24FD JUMP JUMPDEST CALLER PUSH1 0x0 SWAP1 DUP2 MSTORE PUSH1 0x12 PUSH1 0x20 MSTORE PUSH1 0x40 SWAP1 KECCAK256 SLOAD PUSH1 0xFF AND PUSH2 0x26C3 JUMPI PUSH1 0x40 MLOAD PUSH3 0x461BCD PUSH1 0xE5 SHL DUP2 MSTORE PUSH1 0x4 ADD PUSH2 0x7E8 SWAP1 PUSH2 0x3E19 JUMP JUMPDEST CALLER PUSH1 0x0 SWAP1 DUP2 MSTORE PUSH1 0x15 PUSH1 0x20 SWAP1 DUP2 MSTORE PUSH1 0x40 DUP1 DUP4 KECCAK256 DUP5 DUP5 MSTORE SWAP1 SWAP2 MSTORE SWAP1 KECCAK256 SLOAD PUSH1 0xFF AND ISZERO PUSH2 0x26FE JUMPI PUSH1 0x40 MLOAD PUSH3 0x461BCD PUSH1 0xE5 SHL DUP2 MSTORE PUSH1 0x4 ADD PUSH2 0x7E8 SWAP1 PUSH2 0x3E5C JUMP JUMPDEST PUSH1 0x1 PUSH1 0x6 DUP3 DUP2 SLOAD DUP2 LT PUSH2 0x2713 JUMPI PUSH2 0x2713 PUSH2 0x3AE8 JUMP JUMPDEST SWAP1 PUSH1 0x0 MSTORE PUSH1 0x20 PUSH1 0x0 KECCAK256 SWAP1 PUSH1 0x7 MUL ADD PUSH1 0x6 ADD PUSH1 0x0 DUP3 DUP3 SLOAD PUSH2 0x2733 SWAP2 SWAP1 PUSH2 0x3E06 JUMP JUMPDEST SWAP1 SWAP2 SSTORE POP POP PUSH1 0x0 DUP2 DUP2 MSTORE PUSH1 0xF PUSH1 0x20 SWAP1 DUP2 MSTORE PUSH1 0x40 DUP1 DUP4 KECCAK256 DUP2 MLOAD DUP1 DUP4 ADD SWAP1 SWAP3 MSTORE PUSH1 0x2 DUP1 SLOAD DUP4 MSTORE CALLER DUP4 DUP6 ADD SWAP1 DUP2 MSTORE DUP3 SLOAD PUSH1 0x1 DUP1 DUP3 ADD DUP6 SSTORE DUP5 DUP9 MSTORE SWAP6 DUP8 KECCAK256 SWAP5 MLOAD SWAP3 MUL SWAP1 SWAP4 ADD SWAP1 DUP2 SSTORE SWAP2 MLOAD SWAP2 SWAP1 SWAP3 ADD DUP1 SLOAD PUSH1 0x1 PUSH1 0x1 PUSH1 0xA0 SHL SUB NOT AND PUSH1 0x1 PUSH1 0x1 PUSH1 0xA0 SHL SUB SWAP1 SWAP3 AND SWAP2 SWAP1 SWAP2 OR SWAP1 SSTORE PUSH1 0x3 DUP1 SLOAD SWAP2 SWAP3 PUSH2 0x27A9 DUP4 PUSH2 0x3DB4 JUMP JUMPDEST SWAP1 SWAP2 SSTORE POP POP CALLER PUSH1 0x0 DUP2 DUP2 MSTORE PUSH1 0x15 PUSH1 0x20 SWAP1 DUP2 MSTORE PUSH1 0x40 DUP1 DUP4 KECCAK256 DUP7 DUP5 MSTORE DUP3 MSTORE SWAP2 DUP3 SWAP1 KECCAK256 DUP1 SLOAD PUSH1 0xFF NOT AND PUSH1 0x1 OR SWAP1 SSTORE PUSH1 0x3 SLOAD DUP3 MLOAD SWAP1 DUP2 MSTORE SWAP1 DUP2 ADD DUP6 SWAP1 MSTORE PUSH32 0xB79503E171B679983AB6F2CD2CA7DDC737B19B5695E756C9F68919B93069A090 SWAP2 ADD PUSH1 0x40 MLOAD DUP1 SWAP2 SUB SWAP1 LOG2 POP POP JUMP JUMPDEST CALLER PUSH1 0x0 SWAP1 DUP2 MSTORE PUSH1 0x12 PUSH1 0x20 MSTORE PUSH1 0x40 SWAP1 KECCAK256 SLOAD PUSH1 0xFF AND PUSH2 0x2840 JUMPI PUSH1 0x40 MLOAD PUSH3 0x461BCD PUSH1 0xE5 SHL DUP2 MSTORE PUSH1 0x4 ADD PUSH2 0x7E8 SWAP1 PUSH2 0x3E19 JUMP JUMPDEST CALLER PUSH1 0x0 SWAP1 DUP2 MSTORE PUSH1 0x15 PUSH1 0x20 SWAP1 DUP2 MSTORE PUSH1 0x40 DUP1 DUP4 KECCAK256 DUP7 DUP5 MSTORE SWAP1 SWAP2 MSTORE SWAP1 KECCAK256 SLOAD DUP4 SWAP1 PUSH1 0xFF AND PUSH2 0x287C JUMPI PUSH1 0x40 MLOAD PUSH3 0x461BCD PUSH1 0xE5 SHL DUP2 MSTORE PUSH1 0x4 ADD PUSH2 0x7E8 SWAP1 PUSH2 0x3E5C JUMP JUMPDEST DUP1 PUSH1 0x6 DUP3 DUP2 SLOAD DUP2 LT PUSH2 0x2890 JUMPI PUSH2 0x2890 PUSH2 0x3AE8 JUMP JUMPDEST SWAP1 PUSH1 0x0 MSTORE PUSH1 0x20 PUSH1 0x0 KECCAK256 SWAP1 PUSH1 0x7 MUL ADD PUSH1 0x0 ADD SLOAD EQ PUSH2 0x28BF JUMPI PUSH1 0x40 MLOAD PUSH3 0x461BCD PUSH1 0xE5 SHL DUP2 MSTORE PUSH1 0x4 ADD PUSH2 0x7E8 SWAP1 PUSH2 0x3EA9 JUMP JUMPDEST PUSH1 0x0 DUP4 DUP2 MSTORE PUSH1 0xC PUSH1 0x20 MSTORE PUSH1 0x40 SWAP1 KECCAK256 DUP1 SLOAD DUP5 SWAP2 DUP7 SWAP2 DUP4 SWAP1 DUP3 SWAP1 DUP3 SWAP1 DUP2 LT PUSH2 0x28E7 JUMPI PUSH2 0x28E7 PUSH2 0x3AE8 JUMP JUMPDEST SWAP1 PUSH1 0x0 MSTORE PUSH1 0x20 PUSH1 0x0 KECCAK256 SWAP1 PUSH1 0xB MUL ADD PUSH1 0x1 ADD SLOAD EQ PUSH2 0x2916 JUMPI PUSH1 0x40 MLOAD PUSH3 0x461BCD PUSH1 0xE5 SHL DUP2 MSTORE PUSH1 0x4 ADD PUSH2 0x7E8 SWAP1 PUSH2 0x3B65 JUMP JUMPDEST CALLER PUSH1 0x0 SWAP1 DUP2 MSTORE PUSH1 0x14 PUSH1 0x20 SWAP1 DUP2 MSTORE PUSH1 0x40 DUP1 DUP4 KECCAK256 DUP6 DUP5 MSTORE DUP3 MSTORE DUP1 DUP4 KECCAK256 DUP7 DUP5 MSTORE SWAP1 SWAP2 MSTORE SWAP1 KECCAK256 SLOAD PUSH1 0xFF AND PUSH2 0x2958 JUMPI PUSH1 0x40 MLOAD PUSH3 0x461BCD PUSH1 0xE5 SHL DUP2 MSTORE PUSH1 0x4 ADD PUSH2 0x7E8 SWAP1 PUSH2 0x3B94 JUMP JUMPDEST PUSH1 0x0 DUP7 DUP2 MSTORE PUSH1 0xC PUSH1 0x20 SWAP1 DUP2 MSTORE PUSH1 0x40 DUP1 DUP4 KECCAK256 CALLER DUP5 MSTORE PUSH1 0x17 DUP4 MSTORE DUP2 DUP5 KECCAK256 DUP12 DUP6 MSTORE DUP4 MSTORE DUP2 DUP5 KECCAK256 DUP11 DUP6 MSTORE SWAP1 SWAP3 MSTORE SWAP1 SWAP2 KECCAK256 PUSH1 0x4 DUP2 ADD PUSH2 0x2992 DUP9 DUP3 PUSH2 0x3F80 JUMP JUMPDEST POP PUSH1 0x3 DUP2 ADD SLOAD PUSH1 0x1 PUSH1 0x1 PUSH1 0xA0 SHL SUB AND CALLER EQ PUSH2 0x29BF JUMPI PUSH1 0x40 MLOAD PUSH3 0x461BCD PUSH1 0xE5 SHL DUP2 MSTORE PUSH1 0x4 ADD PUSH2 0x7E8 SWAP1 PUSH2 0x4074 JUMP JUMPDEST DUP2 DUP9 DUP2 SLOAD DUP2 LT PUSH2 0x29D1 JUMPI PUSH2 0x29D1 PUSH2 0x3AE8 JUMP JUMPDEST SWAP1 PUSH1 0x0 MSTORE PUSH1 0x20 PUSH1 0x0 KECCAK256 SWAP1 PUSH1 0xB MUL ADD PUSH1 0x6 ADD SLOAD TIMESTAMP LT ISZERO PUSH2 0x2A02 JUMPI PUSH1 0x40 MLOAD PUSH3 0x461BCD PUSH1 0xE5 SHL DUP2 MSTORE PUSH1 0x4 ADD PUSH2 0x7E8 SWAP1 PUSH2 0x3AFE JUMP JUMPDEST TIMESTAMP DUP3 DUP10 DUP2 SLOAD DUP2 LT PUSH2 0x2A15 JUMPI PUSH2 0x2A15 PUSH2 0x3AE8 JUMP JUMPDEST SWAP1 PUSH1 0x0 MSTORE PUSH1 0x20 PUSH1 0x0 KECCAK256 SWAP1 PUSH1 0xB MUL ADD PUSH1 0x7 ADD SLOAD LT ISZERO PUSH2 0x2A45 JUMPI PUSH1 0x40 MLOAD PUSH3 0x461BCD PUSH1 0xE5 SHL DUP2 MSTORE PUSH1 0x4 ADD PUSH2 0x7E8 SWAP1 PUSH2 0x3EE0 JUMP JUMPDEST PUSH1 0x0 JUMPDEST PUSH1 0xA SLOAD DUP2 LT ISZERO PUSH2 0x2B39 JUMPI DUP10 PUSH1 0xA DUP3 DUP2 SLOAD DUP2 LT PUSH2 0x2A66 JUMPI PUSH2 0x2A66 PUSH2 0x3AE8 JUMP JUMPDEST SWAP1 PUSH1 0x0 MSTORE PUSH1 0x20 PUSH1 0x0 KECCAK256 SWAP1 PUSH1 0x7 MUL ADD PUSH1 0x1 ADD SLOAD EQ DUP1 ISZERO PUSH2 0x2AA8 JUMPI POP DUP9 PUSH1 0xA DUP3 DUP2 SLOAD DUP2 LT PUSH2 0x2A94 JUMPI PUSH2 0x2A94 PUSH2 0x3AE8 JUMP JUMPDEST SWAP1 PUSH1 0x0 MSTORE PUSH1 0x20 PUSH1 0x0 KECCAK256 SWAP1 PUSH1 0x7 MUL ADD PUSH1 0x2 ADD SLOAD EQ JUMPDEST DUP1 ISZERO PUSH2 0x2AEB JUMPI POP CALLER PUSH1 0x1 PUSH1 0x1 PUSH1 0xA0 SHL SUB AND PUSH1 0xA DUP3 DUP2 SLOAD DUP2 LT PUSH2 0x2ACC JUMPI PUSH2 0x2ACC PUSH2 0x3AE8 JUMP JUMPDEST PUSH1 0x0 SWAP2 DUP3 MSTORE PUSH1 0x20 SWAP1 SWAP2 KECCAK256 PUSH1 0x3 PUSH1 0x7 SWAP1 SWAP3 MUL ADD ADD SLOAD PUSH1 0x1 PUSH1 0x1 PUSH1 0xA0 SHL SUB AND EQ JUMPDEST ISZERO PUSH2 0x2B27 JUMPI DUP8 PUSH1 0xA DUP3 DUP2 SLOAD DUP2 LT PUSH2 0x2B04 JUMPI PUSH2 0x2B04 PUSH2 0x3AE8 JUMP JUMPDEST SWAP1 PUSH1 0x0 MSTORE PUSH1 0x20 PUSH1 0x0 KECCAK256 SWAP1 PUSH1 0x7 MUL ADD PUSH1 0x4 ADD SWAP1 DUP2 PUSH2 0x2B21 SWAP2 SWAP1 PUSH2 0x3F80 JUMP JUMPDEST POP PUSH2 0x2B39 JUMP JUMPDEST DUP1 PUSH2 0x2B31 DUP2 PUSH2 0x3DB4 JUMP JUMPDEST SWAP2 POP POP PUSH2 0x2A48 JUMP JUMPDEST POP PUSH32 0xDE198E72EE516EA544067CE06FE486C999E09AABE3E3BAC9D451F6291696A31E DUP10 DUP10 DUP10 PUSH1 0x40 MLOAD PUSH2 0x2B6D SWAP4 SWAP3 SWAP2 SWAP1 PUSH2 0x40BB JUMP JUMPDEST PUSH1 0x40 MLOAD DUP1 SWAP2 SUB SWAP1 LOG1 POP POP POP POP POP POP POP POP POP JUMP JUMPDEST CALLER PUSH1 0x0 SWAP1 DUP2 MSTORE PUSH1 0x12 PUSH1 0x20 MSTORE PUSH1 0x40 SWAP1 KECCAK256 SLOAD PUSH1 0xFF AND PUSH2 0x2BAF JUMPI PUSH1 0x40 MLOAD PUSH3 0x461BCD PUSH1 0xE5 SHL DUP2 MSTORE PUSH1 0x4 ADD PUSH2 0x7E8 SWAP1 PUSH2 0x3E19 JUMP JUMPDEST CALLER PUSH1 0x0 SWAP1 DUP2 MSTORE PUSH1 0x15 PUSH1 0x20 SWAP1 DUP2 MSTORE PUSH1 0x40 DUP1 DUP4 KECCAK256 DUP9 DUP5 MSTORE SWAP1 SWAP2 MSTORE SWAP1 KECCAK256 SLOAD DUP6 SWAP1 PUSH1 0xFF AND PUSH2 0x2BEB JUMPI PUSH1 0x40 MLOAD PUSH3 0x461BCD PUSH1 0xE5 SHL DUP2 MSTORE PUSH1 0x4 ADD PUSH2 0x7E8 SWAP1 PUSH2 0x3E5C JUMP JUMPDEST DUP1 PUSH1 0x6 DUP3 DUP2 SLOAD DUP2 LT PUSH2 0x2BFF JUMPI PUSH2 0x2BFF PUSH2 0x3AE8 JUMP JUMPDEST SWAP1 PUSH1 0x0 MSTORE PUSH1 0x20 PUSH1 0x0 KECCAK256 SWAP1 PUSH1 0x7 MUL ADD PUSH1 0x0 ADD SLOAD EQ PUSH2 0x2C2E JUMPI PUSH1 0x40 MLOAD PUSH3 0x461BCD PUSH1 0xE5 SHL DUP2 MSTORE PUSH1 0x4 ADD PUSH2 0x7E8 SWAP1 PUSH2 0x3EA9 JUMP JUMPDEST PUSH1 0x5 SLOAD PUSH1 0x1 PUSH1 0xA0 SHL SWAP1 DIV PUSH1 0xFF AND ISZERO PUSH2 0x2C79 JUMPI PUSH1 0x40 MLOAD PUSH3 0x461BCD PUSH1 0xE5 SHL DUP2 MSTORE PUSH1 0x20 PUSH1 0x4 DUP3 ADD MSTORE PUSH1 0xE PUSH1 0x24 DUP3 ADD MSTORE PUSH14 0x4E6F2072652D656E7472616E6379 PUSH1 0x90 SHL PUSH1 0x44 DUP3 ADD MSTORE PUSH1 0x64 ADD PUSH2 0x7E8 JUMP JUMPDEST PUSH1 0x5 DUP1 SLOAD PUSH1 0xFF PUSH1 0xA0 SHL NOT AND PUSH1 0x1 PUSH1 0xA0 SHL OR SWAP1 SSTORE CALLER PUSH1 0x0 SWAP1 DUP2 MSTORE PUSH1 0xB PUSH1 0x20 MSTORE PUSH1 0x40 DUP2 KECCAK256 SLOAD PUSH1 0x6 DUP1 SLOAD DUP4 SWAP3 SWAP2 DUP4 SWAP2 DUP12 SWAP1 DUP2 LT PUSH2 0x2CB5 JUMPI PUSH2 0x2CB5 PUSH2 0x3AE8 JUMP JUMPDEST SWAP1 PUSH1 0x0 MSTORE PUSH1 0x20 PUSH1 0x0 KECCAK256 SWAP1 PUSH1 0x7 MUL ADD SWAP1 POP CALLVALUE DUP2 PUSH1 0x5 ADD PUSH1 0x0 DUP3 DUP3 SLOAD PUSH2 0x2CD9 SWAP2 SWAP1 PUSH2 0x3E06 JUMP JUMPDEST SWAP3 POP POP DUP2 SWAP1 SSTORE POP PUSH1 0x1 DUP2 PUSH1 0x4 ADD PUSH1 0x0 DUP3 DUP3 SLOAD PUSH2 0x2CF5 SWAP2 SWAP1 PUSH2 0x3E06 JUMP JUMPDEST SWAP1 SWAP2 SSTORE POP POP PUSH1 0x0 DUP11 DUP2 MSTORE PUSH1 0xC PUSH1 0x20 MSTORE PUSH1 0x40 SWAP1 KECCAK256 TIMESTAMP DUP9 GT PUSH2 0x2D67 JUMPI PUSH1 0x40 MLOAD PUSH3 0x461BCD PUSH1 0xE5 SHL DUP2 MSTORE PUSH1 0x20 PUSH1 0x4 DUP3 ADD MSTORE PUSH1 0x27 PUSH1 0x24 DUP3 ADD MSTORE PUSH32 0x426F756E74792073746172742074696D65206D75737420626520696E20746865 PUSH1 0x44 DUP3 ADD MSTORE PUSH7 0x20667574757265 PUSH1 0xC8 SHL PUSH1 0x64 DUP3 ADD MSTORE PUSH1 0x84 ADD PUSH2 0x7E8 JUMP JUMPDEST DUP8 DUP8 GT PUSH2 0x2DC7 JUMPI PUSH1 0x40 MLOAD PUSH3 0x461BCD PUSH1 0xE5 SHL DUP2 MSTORE PUSH1 0x20 PUSH1 0x4 DUP3 ADD MSTORE PUSH1 0x28 PUSH1 0x24 DUP3 ADD MSTORE PUSH32 0x426F756E747920656E642074696D65206D757374206265206166746572207374 PUSH1 0x44 DUP3 ADD MSTORE PUSH8 0x6172742074696D65 PUSH1 0xC0 SHL PUSH1 0x64 DUP3 ADD MSTORE PUSH1 0x84 ADD PUSH2 0x7E8 JUMP JUMPDEST PUSH1 0x3 DUP3 ADD SLOAD PUSH1 0x1 PUSH1 0x1 PUSH1 0xA0 SHL SUB AND CALLER EQ PUSH2 0x2E49 JUMPI PUSH1 0x40 MLOAD PUSH3 0x461BCD PUSH1 0xE5 SHL DUP2 MSTORE PUSH1 0x20 PUSH1 0x4 DUP3 ADD MSTORE PUSH1 0x3B PUSH1 0x24 DUP3 ADD MSTORE PUSH32 0x596F7520617265206E6F7420617574686F726973656420746F20706F73742062 PUSH1 0x44 DUP3 ADD MSTORE PUSH32 0x6F756E747920666F722074686973206F7267616E69736174696F6E0000000000 PUSH1 0x64 DUP3 ADD MSTORE PUSH1 0x84 ADD PUSH2 0x7E8 JUMP JUMPDEST PUSH1 0x0 CALLVALUE GT PUSH2 0x2EA8 JUMPI PUSH1 0x40 MLOAD PUSH3 0x461BCD PUSH1 0xE5 SHL DUP2 MSTORE PUSH1 0x20 PUSH1 0x4 DUP3 ADD MSTORE PUSH1 0x26 PUSH1 0x24 DUP3 ADD MSTORE PUSH32 0x426F756E747920616D6F756E742073686F756C64206265206772656174657220 PUSH1 0x44 DUP3 ADD MSTORE PUSH6 0x7468616E203 PUSH1 0xD4 SHL PUSH1 0x64 DUP3 ADD MSTORE PUSH1 0x84 ADD PUSH2 0x7E8 JUMP JUMPDEST PUSH1 0x5 DUP1 SLOAD PUSH1 0xFF PUSH1 0xA8 SHL NOT AND SWAP1 DUP2 SWAP1 SSTORE PUSH1 0x40 DUP1 MLOAD PUSH2 0x160 DUP2 ADD DUP3 MSTORE DUP14 DUP2 MSTORE PUSH1 0x1 SLOAD PUSH1 0x20 DUP3 ADD MSTORE SWAP1 DUP2 ADD DUP13 SWAP1 MSTORE CALLER PUSH1 0x60 DUP3 ADD MSTORE PUSH1 0x80 DUP2 ADD DUP12 SWAP1 MSTORE CALLVALUE PUSH1 0xA0 DUP3 ADD MSTORE PUSH1 0xC0 DUP2 ADD DUP11 SWAP1 MSTORE PUSH1 0xE0 DUP2 ADD DUP10 SWAP1 MSTORE DUP3 SWAP2 PUSH2 0x100 DUP3 ADD SWAP1 PUSH1 0x1 PUSH1 0xA8 SHL SWAP1 DIV PUSH1 0xFF AND PUSH1 0x2 DUP2 GT ISZERO PUSH2 0x2F17 JUMPI PUSH2 0x2F17 PUSH2 0x3560 JUMP JUMPDEST DUP2 MSTORE PUSH1 0x20 DUP1 DUP3 ADD DUP10 SWAP1 MSTORE PUSH1 0x40 SWAP2 DUP3 ADD DUP9 SWAP1 MSTORE DUP4 SLOAD PUSH1 0x1 DUP2 DUP2 ADD DUP7 SSTORE PUSH1 0x0 SWAP6 DUP7 MSTORE SWAP5 DUP3 SWAP1 KECCAK256 DUP5 MLOAD PUSH1 0xB SWAP1 SWAP3 MUL ADD SWAP1 DUP2 SSTORE SWAP1 DUP4 ADD MLOAD SWAP4 DUP2 ADD SWAP4 SWAP1 SWAP4 SSTORE DUP2 ADD MLOAD SWAP1 SWAP2 SWAP1 PUSH1 0x2 DUP3 ADD SWAP1 PUSH2 0x2F66 SWAP1 DUP3 PUSH2 0x3F80 JUMP JUMPDEST POP PUSH1 0x60 DUP3 ADD MLOAD PUSH1 0x3 DUP3 ADD DUP1 SLOAD PUSH1 0x1 PUSH1 0x1 PUSH1 0xA0 SHL SUB NOT AND PUSH1 0x1 PUSH1 0x1 PUSH1 0xA0 SHL SUB SWAP1 SWAP3 AND SWAP2 SWAP1 SWAP2 OR SWAP1 SSTORE PUSH1 0x80 DUP3 ADD MLOAD PUSH1 0x4 DUP3 ADD SWAP1 PUSH2 0x2FA1 SWAP1 DUP3 PUSH2 0x3F80 JUMP JUMPDEST POP PUSH1 0xA0 DUP3 ADD MLOAD PUSH1 0x5 DUP3 ADD SSTORE PUSH1 0xC0 DUP3 ADD MLOAD PUSH1 0x6 DUP3 ADD SSTORE PUSH1 0xE0 DUP3 ADD MLOAD PUSH1 0x7 DUP3 ADD SSTORE PUSH2 0x100 DUP3 ADD MLOAD PUSH1 0x8 DUP3 ADD DUP1 SLOAD PUSH1 0xFF NOT AND PUSH1 0x1 DUP4 PUSH1 0x2 DUP2 GT ISZERO PUSH2 0x2FE4 JUMPI PUSH2 0x2FE4 PUSH2 0x3560 JUMP JUMPDEST MUL OR SWAP1 SSTORE POP PUSH2 0x120 DUP3 ADD MLOAD DUP2 PUSH1 0x9 ADD SSTORE PUSH2 0x140 DUP3 ADD MLOAD DUP2 PUSH1 0xA ADD SSTORE POP POP PUSH1 0x7 PUSH1 0x40 MLOAD DUP1 PUSH2 0x160 ADD PUSH1 0x40 MSTORE DUP1 DUP14 DUP2 MSTORE PUSH1 0x20 ADD PUSH1 0x1 SLOAD DUP2 MSTORE PUSH1 0x20 ADD DUP13 DUP2 MSTORE PUSH1 0x20 ADD CALLER PUSH1 0x1 PUSH1 0x1 PUSH1 0xA0 SHL SUB AND DUP2 MSTORE PUSH1 0x20 ADD DUP12 DUP2 MSTORE PUSH1 0x20 ADD CALLVALUE DUP2 MSTORE PUSH1 0x20 ADD DUP11 DUP2 MSTORE PUSH1 0x20 ADD DUP10 DUP2 MSTORE PUSH1 0x20 ADD PUSH1 0x5 PUSH1 0x15 SWAP1 SLOAD SWAP1 PUSH2 0x100 EXP SWAP1 DIV PUSH1 0xFF AND PUSH1 0x2 DUP2 GT ISZERO PUSH2 0x306B JUMPI PUSH2 0x306B PUSH2 0x3560 JUMP JUMPDEST DUP2 MSTORE PUSH1 0x20 DUP1 DUP3 ADD DUP10 SWAP1 MSTORE PUSH1 0x40 SWAP2 DUP3 ADD DUP9 SWAP1 MSTORE DUP4 SLOAD PUSH1 0x1 DUP2 DUP2 ADD DUP7 SSTORE PUSH1 0x0 SWAP6 DUP7 MSTORE SWAP5 DUP3 SWAP1 KECCAK256 DUP5 MLOAD PUSH1 0xB SWAP1 SWAP3 MUL ADD SWAP1 DUP2 SSTORE SWAP1 DUP4 ADD MLOAD SWAP4 DUP2 ADD SWAP4 SWAP1 SWAP4 SSTORE DUP2 ADD MLOAD SWAP1 SWAP2 SWAP1 PUSH1 0x2 DUP3 ADD SWAP1 PUSH2 0x30BA SWAP1 DUP3 PUSH2 0x3F80 JUMP JUMPDEST POP PUSH1 0x60 DUP3 ADD MLOAD PUSH1 0x3 DUP3 ADD DUP1 SLOAD PUSH1 0x1 PUSH1 0x1 PUSH1 0xA0 SHL SUB NOT AND PUSH1 0x1 PUSH1 0x1 PUSH1 0xA0 SHL SUB SWAP1 SWAP3 AND SWAP2 SWAP1 SWAP2 OR SWAP1 SSTORE PUSH1 0x80 DUP3 ADD MLOAD PUSH1 0x4 DUP3 ADD SWAP1 PUSH2 0x30F5 SWAP1 DUP3 PUSH2 0x3F80 JUMP JUMPDEST POP PUSH1 0xA0 DUP3 ADD MLOAD PUSH1 0x5 DUP3 ADD SSTORE PUSH1 0xC0 DUP3 ADD MLOAD PUSH1 0x6 DUP3 ADD SSTORE PUSH1 0xE0 DUP3 ADD MLOAD PUSH1 0x7 DUP3 ADD SSTORE PUSH2 0x100 DUP3 ADD MLOAD PUSH1 0x8 DUP3 ADD DUP1 SLOAD PUSH1 0xFF NOT AND PUSH1 0x1 DUP4 PUSH1 0x2 DUP2 GT ISZERO PUSH2 0x3138 JUMPI PUSH2 0x3138 PUSH2 0x3560 JUMP JUMPDEST MUL OR SWAP1 SSTORE POP PUSH2 0x120 DUP3 ADD MLOAD PUSH1 0x9 DUP3 ADD SSTORE PUSH2 0x140 SWAP1 SWAP2 ADD MLOAD PUSH1 0xA SWAP1 SWAP2 ADD SSTORE DUP3 PUSH2 0x315F DUP2 PUSH2 0x3DB4 JUMP JUMPDEST PUSH1 0x1 DUP1 SLOAD SWAP2 SWAP6 POP SWAP1 SWAP2 POP PUSH1 0x0 PUSH2 0x3174 DUP4 PUSH2 0x3DB4 JUMP JUMPDEST SWAP1 SWAP2 SSTORE POP POP PUSH1 0x40 MLOAD PUSH1 0x0 SWAP1 ADDRESS SWAP1 CALLVALUE SWAP1 DUP4 DUP2 DUP2 DUP2 DUP6 DUP8 GAS CALL SWAP3 POP POP POP RETURNDATASIZE DUP1 PUSH1 0x0 DUP2 EQ PUSH2 0x31BB JUMPI PUSH1 0x40 MLOAD SWAP2 POP PUSH1 0x1F NOT PUSH1 0x3F RETURNDATASIZE ADD AND DUP3 ADD PUSH1 0x40 MSTORE RETURNDATASIZE DUP3 MSTORE RETURNDATASIZE PUSH1 0x0 PUSH1 0x20 DUP5 ADD RETURNDATACOPY PUSH2 0x31C0 JUMP JUMPDEST PUSH1 0x60 SWAP2 POP JUMPDEST POP POP SWAP1 POP DUP1 PUSH2 0x3208 JUMPI PUSH1 0x40 MLOAD PUSH3 0x461BCD PUSH1 0xE5 SHL DUP2 MSTORE PUSH1 0x20 PUSH1 0x4 DUP3 ADD MSTORE PUSH1 0x14 PUSH1 0x24 DUP3 ADD MSTORE PUSH20 0x2330B4B632B2103A379039B2B7321022BA3432B9 PUSH1 0x61 SHL PUSH1 0x44 DUP3 ADD MSTORE PUSH1 0x64 ADD PUSH2 0x7E8 JUMP JUMPDEST CALLER PUSH1 0x1 PUSH1 0x1 PUSH1 0xA0 SHL SUB AND PUSH32 0x7F525B52319EFA59220972521CEDBC5ED8835E26DCBEDE28BEF46A736A7F10F0 DUP14 DUP14 DUP14 CALLVALUE DUP15 DUP15 PUSH1 0x40 MLOAD PUSH2 0x324B SWAP7 SWAP6 SWAP5 SWAP4 SWAP3 SWAP2 SWAP1 PUSH2 0x40DA JUMP JUMPDEST PUSH1 0x40 MLOAD DUP1 SWAP2 SUB SWAP1 LOG2 POP POP PUSH1 0x5 DUP1 SLOAD PUSH1 0xFF PUSH1 0xA0 SHL NOT AND SWAP1 SSTORE POP POP POP POP POP POP POP POP POP POP JUMP JUMPDEST CALLER PUSH1 0x0 SWAP1 DUP2 MSTORE PUSH1 0x15 PUSH1 0x20 SWAP1 DUP2 MSTORE PUSH1 0x40 DUP1 DUP4 KECCAK256 DUP6 DUP5 MSTORE SWAP1 SWAP2 MSTORE SWAP1 KECCAK256 SLOAD DUP3 SWAP1 PUSH1 0xFF AND PUSH2 0x32AA JUMPI PUSH1 0x40 MLOAD PUSH3 0x461BCD PUSH1 0xE5 SHL DUP2 MSTORE PUSH1 0x4 ADD PUSH2 0x7E8 SWAP1 PUSH2 0x3E5C JUMP JUMPDEST DUP1 PUSH1 0x6 DUP3 DUP2 SLOAD DUP2 LT PUSH2 0x32BE JUMPI PUSH2 0x32BE PUSH2 0x3AE8 JUMP JUMPDEST SWAP1 PUSH1 0x0 MSTORE PUSH1 0x20 PUSH1 0x0 KECCAK256 SWAP1 PUSH1 0x7 MUL ADD PUSH1 0x0 ADD SLOAD EQ PUSH2 0x32ED JUMPI PUSH1 0x40 MLOAD PUSH3 0x461BCD PUSH1 0xE5 SHL DUP2 MSTORE PUSH1 0x4 ADD PUSH2 0x7E8 SWAP1 PUSH2 0x3EA9 JUMP JUMPDEST PUSH1 0x0 DUP3 DUP2 MSTORE PUSH1 0xC PUSH1 0x20 MSTORE PUSH1 0x40 SWAP1 KECCAK256 DUP1 SLOAD DUP4 SWAP2 DUP6 SWAP2 DUP4 SWAP1 DUP3 SWAP1 DUP3 SWAP1 DUP2 LT PUSH2 0x3315 JUMPI PUSH2 0x3315 PUSH2 0x3AE8 JUMP JUMPDEST SWAP1 PUSH1 0x0 MSTORE PUSH1 0x20 PUSH1 0x0 KECCAK256 SWAP1 PUSH1 0xB MUL ADD PUSH1 0x1 ADD SLOAD EQ PUSH2 0x3344 JUMPI PUSH1 0x40 MLOAD PUSH3 0x461BCD PUSH1 0xE5 SHL DUP2 MSTORE PUSH1 0x4 ADD PUSH2 0x7E8 SWAP1 PUSH2 0x3B65 JUMP JUMPDEST CALLER PUSH1 0x0 SWAP1 DUP2 MSTORE PUSH1 0x14 PUSH1 0x20 SWAP1 DUP2 MSTORE PUSH1 0x40 DUP1 DUP4 KECCAK256 DUP6 DUP5 MSTORE DUP3 MSTORE DUP1 DUP4 KECCAK256 DUP7 DUP5 MSTORE SWAP1 SWAP2 MSTORE SWAP1 KECCAK256 SLOAD PUSH1 0xFF AND PUSH2 0x3386 JUMPI PUSH1 0x40 MLOAD PUSH3 0x461BCD PUSH1 0xE5 SHL DUP2 MSTORE PUSH1 0x4 ADD PUSH2 0x7E8 SWAP1 PUSH2 0x3B94 JUMP JUMPDEST PUSH1 0x0 DUP7 DUP2 MSTORE PUSH1 0xC PUSH1 0x20 MSTORE PUSH1 0x40 SWAP1 KECCAK256 DUP1 SLOAD DUP8 SWAP2 DUP8 SWAP2 CALLER SWAP2 SWAP1 DUP4 SWAP1 DUP2 LT PUSH2 0x33AD JUMPI PUSH2 0x33AD PUSH2 0x3AE8 JUMP JUMPDEST PUSH1 0x0 SWAP2 DUP3 MSTORE PUSH1 0x20 SWAP1 SWAP2 KECCAK256 PUSH1 0x3 PUSH1 0xB SWAP1 SWAP3 MUL ADD ADD SLOAD PUSH1 0x1 PUSH1 0x1 PUSH1 0xA0 SHL SUB AND EQ PUSH2 0x33E7 JUMPI PUSH1 0x40 MLOAD PUSH3 0x461BCD PUSH1 0xE5 SHL DUP2 MSTORE PUSH1 0x4 ADD PUSH2 0x7E8 SWAP1 PUSH2 0x3D7D JUMP JUMPDEST CALLER PUSH1 0x0 DUP2 DUP2 MSTORE PUSH1 0x17 PUSH1 0x20 SWAP1 DUP2 MSTORE PUSH1 0x40 DUP1 DUP4 KECCAK256 DUP13 DUP5 MSTORE DUP3 MSTORE DUP1 DUP4 KECCAK256 DUP12 DUP5 MSTORE SWAP1 SWAP2 MSTORE SWAP1 KECCAK256 PUSH1 0x3 DUP2 ADD SLOAD SWAP1 SWAP2 PUSH1 0x1 PUSH1 0x1 PUSH1 0xA0 SHL SUB SWAP1 SWAP2 AND EQ PUSH2 0x3438 JUMPI PUSH1 0x40 MLOAD PUSH3 0x461BCD PUSH1 0xE5 SHL DUP2 MSTORE PUSH1 0x4 ADD PUSH2 0x7E8 SWAP1 PUSH2 0x4074 JUMP JUMPDEST CALLER PUSH1 0x0 SWAP1 DUP2 MSTORE PUSH1 0x17 PUSH1 0x20 SWAP1 DUP2 MSTORE PUSH1 0x40 DUP1 DUP4 KECCAK256 DUP13 DUP5 MSTORE DUP3 MSTORE DUP1 DUP4 KECCAK256 DUP12 DUP5 MSTORE SWAP1 SWAP2 MSTORE DUP2 KECCAK256 DUP2 DUP2 SSTORE PUSH1 0x1 DUP2 ADD DUP3 SWAP1 SSTORE PUSH1 0x2 DUP2 ADD DUP3 SWAP1 SSTORE PUSH1 0x3 DUP2 ADD DUP1 SLOAD PUSH1 0x1 PUSH1 0x1 PUSH1 0xA0 SHL SUB NOT AND SWAP1 SSTORE SWAP1 PUSH2 0x348B PUSH1 0x4 DUP4 ADD DUP3 PUSH2 0x34AB JUMP JUMPDEST POP PUSH1 0x5 DUP2 ADD DUP1 SLOAD PUSH1 0xFF NOT AND SWAP1 SSTORE PUSH1 0x0 PUSH1 0x6 SWAP1 SWAP2 ADD SSTORE POP POP POP POP POP POP POP POP POP JUMP JUMPDEST POP DUP1 SLOAD PUSH2 0x34B7 SWAP1 PUSH2 0x3AAE JUMP JUMPDEST PUSH1 0x0 DUP3 SSTORE DUP1 PUSH1 0x1F LT PUSH2 0x34C7 JUMPI POP POP JUMP JUMPDEST PUSH1 0x1F ADD PUSH1 0x20 SWAP1 DIV SWAP1 PUSH1 0x0 MSTORE PUSH1 0x20 PUSH1 0x0 KECCAK256 SWAP1 DUP2 ADD SWAP1 PUSH2 0x34E5 SWAP2 SWAP1 PUSH2 0x34E8 JUMP JUMPDEST POP JUMP JUMPDEST JUMPDEST DUP1 DUP3 GT ISZERO PUSH2 0x34FD JUMPI PUSH1 0x0 DUP2 SSTORE PUSH1 0x1 ADD PUSH2 0x34E9 JUMP JUMPDEST POP SWAP1 JUMP JUMPDEST PUSH1 0x0 PUSH1 0x20 DUP3 DUP5 SUB SLT ISZERO PUSH2 0x3513 JUMPI PUSH1 0x0 DUP1 REVERT JUMPDEST POP CALLDATALOAD SWAP2 SWAP1 POP JUMP JUMPDEST PUSH1 0x0 DUP2 MLOAD DUP1 DUP5 MSTORE PUSH1 0x0 JUMPDEST DUP2 DUP2 LT ISZERO PUSH2 0x3540 JUMPI PUSH1 0x20 DUP2 DUP6 ADD DUP2 ADD MLOAD DUP7 DUP4 ADD DUP3 ADD MSTORE ADD PUSH2 0x3524 JUMP JUMPDEST POP PUSH1 0x0 PUSH1 0x20 DUP3 DUP7 ADD ADD MSTORE PUSH1 0x20 PUSH1 0x1F NOT PUSH1 0x1F DUP4 ADD AND DUP6 ADD ADD SWAP2 POP POP SWAP3 SWAP2 POP POP JUMP JUMPDEST PUSH4 0x4E487B71 PUSH1 0xE0 SHL PUSH1 0x0 MSTORE PUSH1 0x21 PUSH1 0x4 MSTORE PUSH1 0x24 PUSH1 0x0 REVERT JUMPDEST PUSH1 0x3 DUP2 LT PUSH2 0x3594 JUMPI PUSH4 0x4E487B71 PUSH1 0xE0 SHL PUSH1 0x0 MSTORE PUSH1 0x21 PUSH1 0x4 MSTORE PUSH1 0x24 PUSH1 0x0 REVERT JUMPDEST SWAP1 MSTORE JUMP JUMPDEST PUSH1 0x0 PUSH1 0x20 DUP1 DUP4 ADD DUP2 DUP5 MSTORE DUP1 DUP6 MLOAD DUP1 DUP4 MSTORE PUSH1 0x40 SWAP3 POP DUP3 DUP7 ADD SWAP2 POP DUP3 DUP2 PUSH1 0x5 SHL DUP8 ADD ADD DUP5 DUP9 ADD PUSH1 0x0 JUMPDEST DUP4 DUP2 LT ISZERO PUSH2 0x368D JUMPI PUSH1 0x3F NOT DUP10 DUP5 SUB ADD DUP6 MSTORE DUP2 MLOAD PUSH2 0x160 DUP2 MLOAD DUP6 MSTORE DUP9 DUP3 ADD MLOAD DUP10 DUP7 ADD MSTORE DUP8 DUP3 ADD MLOAD DUP2 DUP10 DUP8 ADD MSTORE PUSH2 0x35F6 DUP3 DUP8 ADD DUP3 PUSH2 0x351A JUMP JUMPDEST SWAP2 POP POP PUSH1 0x60 DUP1 DUP4 ADD MLOAD PUSH2 0x3613 DUP3 DUP9 ADD DUP3 PUSH1 0x1 PUSH1 0x1 PUSH1 0xA0 SHL SUB AND SWAP1 MSTORE JUMP JUMPDEST POP POP PUSH1 0x80 DUP1 DUP4 ADD MLOAD DUP7 DUP4 SUB DUP3 DUP9 ADD MSTORE PUSH2 0x362C DUP4 DUP3 PUSH2 0x351A JUMP JUMPDEST SWAP3 POP POP POP PUSH1 0xA0 DUP1 DUP4 ADD MLOAD DUP2 DUP8 ADD MSTORE POP PUSH1 0xC0 DUP1 DUP4 ADD MLOAD DUP2 DUP8 ADD MSTORE POP PUSH1 0xE0 DUP1 DUP4 ADD MLOAD DUP2 DUP8 ADD MSTORE POP PUSH2 0x100 DUP1 DUP4 ADD MLOAD PUSH2 0x3664 DUP3 DUP9 ADD DUP3 PUSH2 0x3576 JUMP JUMPDEST POP POP PUSH2 0x120 DUP3 DUP2 ADD MLOAD SWAP1 DUP7 ADD MSTORE PUSH2 0x140 SWAP2 DUP3 ADD MLOAD SWAP2 SWAP1 SWAP5 ADD MSTORE SWAP4 DUP7 ADD SWAP4 SWAP1 DUP7 ADD SWAP1 PUSH1 0x1 ADD PUSH2 0x35BF JUMP JUMPDEST POP SWAP1 SWAP9 SWAP8 POP POP POP POP POP POP POP POP JUMP JUMPDEST PUSH1 0x0 DUP1 PUSH1 0x40 DUP4 DUP6 SUB SLT ISZERO PUSH2 0x36AE JUMPI PUSH1 0x0 DUP1 REVERT JUMPDEST POP POP DUP1 CALLDATALOAD SWAP3 PUSH1 0x20 SWAP1 SWAP2 ADD CALLDATALOAD SWAP2 POP JUMP JUMPDEST PUSH1 0x20 DUP2 MSTORE DUP2 MLOAD PUSH1 0x20 DUP3 ADD MSTORE PUSH1 0x20 DUP3 ADD MLOAD PUSH1 0x40 DUP3 ADD MSTORE PUSH1 0x40 DUP3 ADD MLOAD PUSH1 0x60 DUP3 ADD MSTORE PUSH1 0x1 DUP1 PUSH1 0xA0 SHL SUB PUSH1 0x60 DUP4 ADD MLOAD AND PUSH1 0x80 DUP3 ADD MSTORE PUSH1 0x0 PUSH1 0x80 DUP4 ADD MLOAD PUSH1 0xE0 PUSH1 0xA0 DUP5 ADD MSTORE PUSH2 0x370A PUSH2 0x100 DUP5 ADD DUP3 PUSH2 0x351A JUMP JUMPDEST SWAP1 POP PUSH1 0xA0 DUP5 ADD MLOAD ISZERO ISZERO PUSH1 0xC0 DUP5 ADD MSTORE PUSH1 0xC0 DUP5 ADD MLOAD PUSH1 0xE0 DUP5 ADD MSTORE DUP1 SWAP2 POP POP SWAP3 SWAP2 POP POP JUMP JUMPDEST DUP8 DUP2 MSTORE PUSH1 0xE0 PUSH1 0x20 DUP3 ADD MSTORE PUSH1 0x0 PUSH2 0x3745 PUSH1 0xE0 DUP4 ADD DUP10 PUSH2 0x351A JUMP JUMPDEST DUP3 DUP2 SUB PUSH1 0x40 DUP5 ADD MSTORE PUSH2 0x3757 DUP2 DUP10 PUSH2 0x351A JUMP JUMPDEST PUSH1 0x1 PUSH1 0x1 PUSH1 0xA0 SHL SUB SWAP8 SWAP1 SWAP8 AND PUSH1 0x60 DUP5 ADD MSTORE POP POP PUSH1 0x80 DUP2 ADD SWAP4 SWAP1 SWAP4 MSTORE PUSH1 0xA0 DUP4 ADD SWAP2 SWAP1 SWAP2 MSTORE PUSH1 0xC0 SWAP1 SWAP2 ADD MSTORE SWAP4 SWAP3 POP POP POP JUMP JUMPDEST PUSH1 0x20 DUP1 DUP3 MSTORE DUP3 MLOAD DUP3 DUP3 ADD DUP2 SWAP1 MSTORE PUSH1 0x0 SWAP2 SWAP1 PUSH1 0x40 SWAP1 DUP2 DUP6 ADD SWAP1 DUP7 DUP5 ADD DUP6 JUMPDEST DUP3 DUP2 LT ISZERO PUSH2 0x37D2 JUMPI DUP2 MLOAD DUP1 MLOAD DUP6 MSTORE DUP7 ADD MLOAD PUSH1 0x1 PUSH1 0x1 PUSH1 0xA0 SHL SUB AND DUP7 DUP6 ADD MSTORE SWAP3 DUP5 ADD SWAP3 SWAP1 DUP6 ADD SWAP1 PUSH1 0x1 ADD PUSH2 0x37A4 JUMP JUMPDEST POP SWAP2 SWAP8 SWAP7 POP POP POP POP POP POP POP JUMP JUMPDEST PUSH4 0x4E487B71 PUSH1 0xE0 SHL PUSH1 0x0 MSTORE PUSH1 0x41 PUSH1 0x4 MSTORE PUSH1 0x24 PUSH1 0x0 REVERT JUMPDEST PUSH1 0x0 DUP3 PUSH1 0x1F DUP4 ADD SLT PUSH2 0x3806 JUMPI PUSH1 0x0 DUP1 REVERT JUMPDEST DUP2 CALLDATALOAD PUSH8 0xFFFFFFFFFFFFFFFF DUP1 DUP3 GT ISZERO PUSH2 0x3821 JUMPI PUSH2 0x3821 PUSH2 0x37DF JUMP JUMPDEST PUSH1 0x40 MLOAD PUSH1 0x1F DUP4 ADD PUSH1 0x1F NOT SWAP1 DUP2 AND PUSH1 0x3F ADD AND DUP2 ADD SWAP1 DUP3 DUP3 GT DUP2 DUP4 LT OR ISZERO PUSH2 0x3849 JUMPI PUSH2 0x3849 PUSH2 0x37DF JUMP JUMPDEST DUP2 PUSH1 0x40 MSTORE DUP4 DUP2 MSTORE DUP7 PUSH1 0x20 DUP6 DUP9 ADD ADD GT ISZERO PUSH2 0x3862 JUMPI PUSH1 0x0 DUP1 REVERT JUMPDEST DUP4 PUSH1 0x20 DUP8 ADD PUSH1 0x20 DUP4 ADD CALLDATACOPY PUSH1 0x0 PUSH1 0x20 DUP6 DUP4 ADD ADD MSTORE DUP1 SWAP5 POP POP POP POP POP SWAP3 SWAP2 POP POP JUMP JUMPDEST PUSH1 0x0 DUP1 PUSH1 0x40 DUP4 DUP6 SUB SLT ISZERO PUSH2 0x3895 JUMPI PUSH1 0x0 DUP1 REVERT JUMPDEST DUP3 CALLDATALOAD PUSH8 0xFFFFFFFFFFFFFFFF DUP1 DUP3 GT ISZERO PUSH2 0x38AD JUMPI PUSH1 0x0 DUP1 REVERT JUMPDEST PUSH2 0x38B9 DUP7 DUP4 DUP8 ADD PUSH2 0x37F5 JUMP JUMPDEST SWAP4 POP PUSH1 0x20 DUP6 ADD CALLDATALOAD SWAP2 POP DUP1 DUP3 GT ISZERO PUSH2 0x38CF JUMPI PUSH1 0x0 DUP1 REVERT JUMPDEST POP PUSH2 0x38DC DUP6 DUP3 DUP7 ADD PUSH2 0x37F5 JUMP JUMPDEST SWAP2 POP POP SWAP3 POP SWAP3 SWAP1 POP JUMP JUMPDEST PUSH1 0x0 DUP1 PUSH1 0x0 PUSH1 0x60 DUP5 DUP7 SUB SLT ISZERO PUSH2 0x38FB JUMPI PUSH1 0x0 DUP1 REVERT JUMPDEST DUP4 CALLDATALOAD SWAP3 POP PUSH1 0x20 DUP5 ADD CALLDATALOAD SWAP2 POP PUSH1 0x40 DUP5 ADD CALLDATALOAD PUSH8 0xFFFFFFFFFFFFFFFF DUP2 GT ISZERO PUSH2 0x3920 JUMPI PUSH1 0x0 DUP1 REVERT JUMPDEST PUSH2 0x392C DUP7 DUP3 DUP8 ADD PUSH2 0x37F5 JUMP JUMPDEST SWAP2 POP POP SWAP3 POP SWAP3 POP SWAP3 JUMP JUMPDEST PUSH1 0x0 DUP1 PUSH1 0x0 PUSH1 0x60 DUP5 DUP7 SUB SLT ISZERO PUSH2 0x394B JUMPI PUSH1 0x0 DUP1 REVERT JUMPDEST DUP4 CALLDATALOAD SWAP3 POP PUSH1 0x20 DUP5 ADD CALLDATALOAD SWAP2 POP PUSH1 0x40 DUP5 ADD CALLDATALOAD PUSH1 0x1 PUSH1 0x1 PUSH1 0xA0 SHL SUB DUP2 AND DUP2 EQ PUSH2 0x3970 JUMPI PUSH1 0x0 DUP1 REVERT JUMPDEST DUP1 SWAP2 POP POP SWAP3 POP SWAP3 POP SWAP3 JUMP JUMPDEST PUSH1 0x0 PUSH1 0x20 DUP1 DUP4 ADD DUP2 DUP5 MSTORE DUP1 DUP6 MLOAD DUP1 DUP4 MSTORE PUSH1 0x40 SWAP3 POP DUP3 DUP7 ADD SWAP2 POP DUP3 DUP2 PUSH1 0x5 SHL DUP8 ADD ADD DUP5 DUP9 ADD PUSH1 0x0 JUMPDEST DUP4 DUP2 LT ISZERO PUSH2 0x368D JUMPI PUSH1 0x3F NOT DUP10 DUP5 SUB ADD DUP6 MSTORE DUP2 MLOAD PUSH1 0xE0 DUP2 MLOAD DUP6 MSTORE DUP9 DUP3 ADD MLOAD DUP2 DUP11 DUP8 ADD MSTORE PUSH2 0x39D0 DUP3 DUP8 ADD DUP3 PUSH2 0x351A JUMP JUMPDEST SWAP2 POP POP DUP8 DUP3 ADD MLOAD DUP6 DUP3 SUB DUP10 DUP8 ADD MSTORE PUSH2 0x39E8 DUP3 DUP3 PUSH2 0x351A JUMP JUMPDEST PUSH1 0x60 DUP5 DUP2 ADD MLOAD PUSH1 0x1 PUSH1 0x1 PUSH1 0xA0 SHL SUB AND SWAP1 DUP9 ADD MSTORE PUSH1 0x80 DUP1 DUP6 ADD MLOAD SWAP1 DUP9 ADD MSTORE PUSH1 0xA0 DUP5 DUP2 ADD MLOAD SWAP1 DUP9 ADD MSTORE PUSH1 0xC0 SWAP4 DUP5 ADD MLOAD SWAP4 SWAP1 SWAP7 ADD SWAP3 SWAP1 SWAP3 MSTORE POP POP SWAP4 DUP7 ADD SWAP4 SWAP1 DUP7 ADD SWAP1 PUSH1 0x1 ADD PUSH2 0x39A2 JUMP JUMPDEST PUSH1 0x0 DUP1 PUSH1 0x0 DUP1 PUSH1 0x0 PUSH1 0xA0 DUP7 DUP9 SUB SLT ISZERO PUSH2 0x3A47 JUMPI PUSH1 0x0 DUP1 REVERT JUMPDEST DUP6 CALLDATALOAD SWAP5 POP PUSH1 0x20 DUP7 ADD CALLDATALOAD PUSH8 0xFFFFFFFFFFFFFFFF DUP1 DUP3 GT ISZERO PUSH2 0x3A66 JUMPI PUSH1 0x0 DUP1 REVERT JUMPDEST PUSH2 0x3A72 DUP10 DUP4 DUP11 ADD PUSH2 0x37F5 JUMP JUMPDEST SWAP6 POP PUSH1 0x40 DUP9 ADD CALLDATALOAD SWAP2 POP DUP1 DUP3 GT ISZERO PUSH2 0x3A88 JUMPI PUSH1 0x0 DUP1 REVERT JUMPDEST POP PUSH2 0x3A95 DUP9 DUP3 DUP10 ADD PUSH2 0x37F5 JUMP JUMPDEST SWAP6 SWAP9 SWAP5 SWAP8 POP SWAP5 SWAP6 PUSH1 0x60 DUP2 ADD CALLDATALOAD SWAP6 POP PUSH1 0x80 ADD CALLDATALOAD SWAP4 SWAP3 POP POP POP JUMP JUMPDEST PUSH1 0x1 DUP2 DUP2 SHR SWAP1 DUP3 AND DUP1 PUSH2 0x3AC2 JUMPI PUSH1 0x7F DUP3 AND SWAP2 POP JUMPDEST PUSH1 0x20 DUP3 LT DUP2 SUB PUSH2 0x3AE2 JUMPI PUSH4 0x4E487B71 PUSH1 0xE0 SHL PUSH1 0x0 MSTORE PUSH1 0x22 PUSH1 0x4 MSTORE PUSH1 0x24 PUSH1 0x0 REVERT JUMPDEST POP SWAP2 SWAP1 POP JUMP JUMPDEST PUSH4 0x4E487B71 PUSH1 0xE0 SHL PUSH1 0x0 MSTORE PUSH1 0x32 PUSH1 0x4 MSTORE PUSH1 0x24 PUSH1 0x0 REVERT JUMPDEST PUSH1 0x20 DUP1 DUP3 MSTORE PUSH1 0x16 SWAP1 DUP3 ADD MSTORE PUSH22 0x109BDD5B9D1E481A185CC81B9BDD081CDD185C9D1959 PUSH1 0x52 SHL PUSH1 0x40 DUP3 ADD MSTORE PUSH1 0x60 ADD SWAP1 JUMP JUMPDEST PUSH1 0x20 DUP1 DUP3 MSTORE PUSH1 0x1F SWAP1 DUP3 ADD MSTORE PUSH32 0x426F756E747920706572696F6420686173206E6F7420656E6465642079657400 PUSH1 0x40 DUP3 ADD MSTORE PUSH1 0x60 ADD SWAP1 JUMP JUMPDEST PUSH1 0x20 DUP1 DUP3 MSTORE PUSH1 0x15 SWAP1 DUP3 ADD MSTORE PUSH21 0x109BDD5B9D1E48191BD95CC81B9BDD08195E1A5CDD PUSH1 0x5A SHL PUSH1 0x40 DUP3 ADD MSTORE PUSH1 0x60 ADD SWAP1 JUMP JUMPDEST PUSH1 0x20 DUP1 DUP3 MSTORE PUSH1 0x23 SWAP1 DUP3 ADD MSTORE PUSH32 0x596F752068617665206E6F7420796574206A6F696E6564207468697320626F75 PUSH1 0x40 DUP3 ADD MSTORE PUSH3 0x6E7479 PUSH1 0xE8 SHL PUSH1 0x60 DUP3 ADD MSTORE PUSH1 0x80 ADD SWAP1 JUMP JUMPDEST PUSH1 0x20 DUP1 DUP3 MSTORE PUSH1 0x17 SWAP1 DUP3 ADD MSTORE PUSH32 0x596F7520617265206E6F74207468652063726561746F72000000000000000000 PUSH1 0x40 DUP3 ADD MSTORE PUSH1 0x60 ADD SWAP1 JUMP JUMPDEST PUSH4 0x4E487B71 PUSH1 0xE0 SHL PUSH1 0x0 MSTORE PUSH1 0x11 PUSH1 0x4 MSTORE PUSH1 0x24 PUSH1 0x0 REVERT JUMPDEST DUP2 DUP2 SUB DUP2 DUP2 GT ISZERO PUSH2 0x78C JUMPI PUSH2 0x78C PUSH2 0x3C0E JUMP JUMPDEST PUSH1 0x1F DUP3 GT ISZERO PUSH2 0x3C81 JUMPI PUSH1 0x0 DUP2 DUP2 MSTORE PUSH1 0x20 DUP2 KECCAK256 PUSH1 0x1F DUP6 ADD PUSH1 0x5 SHR DUP2 ADD PUSH1 0x20 DUP7 LT ISZERO PUSH2 0x3C5E JUMPI POP DUP1 JUMPDEST PUSH1 0x1F DUP6 ADD PUSH1 0x5 SHR DUP3 ADD SWAP2 POP JUMPDEST DUP2 DUP2 LT ISZERO PUSH2 0x3C7D JUMPI DUP3 DUP2 SSTORE PUSH1 0x1 ADD PUSH2 0x3C6A JUMP JUMPDEST POP POP POP JUMPDEST POP POP POP JUMP JUMPDEST DUP2 DUP2 SUB PUSH2 0x3C91 JUMPI POP POP JUMP JUMPDEST PUSH2 0x3C9B DUP3 SLOAD PUSH2 0x3AAE JUMP JUMPDEST PUSH8 0xFFFFFFFFFFFFFFFF DUP2 GT ISZERO PUSH2 0x3CB3 JUMPI PUSH2 0x3CB3 PUSH2 0x37DF JUMP JUMPDEST PUSH2 0x3CC7 DUP2 PUSH2 0x3CC1 DUP5 SLOAD PUSH2 0x3AAE JUMP JUMPDEST DUP5 PUSH2 0x3C37 JUMP JUMPDEST PUSH1 0x0 PUSH1 0x1F DUP3 GT PUSH1 0x1 DUP2 EQ PUSH2 0x3CFB JUMPI PUSH1 0x0 DUP4 ISZERO PUSH2 0x3CE3 JUMPI POP DUP5 DUP3 ADD SLOAD JUMPDEST PUSH1 0x0 NOT PUSH1 0x3 DUP6 SWAP1 SHL SHR NOT AND PUSH1 0x1 DUP5 SWAP1 SHL OR DUP5 SSTORE PUSH2 0x3D60 JUMP JUMPDEST PUSH1 0x0 DUP6 DUP2 MSTORE PUSH1 0x20 SWAP1 KECCAK256 PUSH1 0x1F NOT DUP5 AND SWAP1 PUSH1 0x0 DUP7 DUP2 MSTORE PUSH1 0x20 SWAP1 KECCAK256 DUP5 JUMPDEST DUP4 DUP2 LT ISZERO PUSH2 0x3D35 JUMPI DUP3 DUP7 ADD SLOAD DUP3 SSTORE PUSH1 0x1 SWAP6 DUP7 ADD SWAP6 SWAP1 SWAP2 ADD SWAP1 PUSH1 0x20 ADD PUSH2 0x3D15 JUMP JUMPDEST POP DUP6 DUP4 LT ISZERO PUSH2 0x3D53 JUMPI DUP2 DUP6 ADD SLOAD PUSH1 0x0 NOT PUSH1 0x3 DUP9 SWAP1 SHL PUSH1 0xF8 AND SHR NOT AND DUP2 SSTORE JUMPDEST POP POP POP PUSH1 0x1 DUP4 PUSH1 0x1 SHL ADD DUP5 SSTORE JUMPDEST POP POP POP POP POP JUMP JUMPDEST PUSH4 0x4E487B71 PUSH1 0xE0 SHL PUSH1 0x0 MSTORE PUSH1 0x31 PUSH1 0x4 MSTORE PUSH1 0x24 PUSH1 0x0 REVERT JUMPDEST PUSH1 0x20 DUP1 DUP3 MSTORE PUSH1 0x1E SWAP1 DUP3 ADD MSTORE PUSH32 0x596F7520617265206E6F742074686520626F756E74792063726561746F720000 PUSH1 0x40 DUP3 ADD MSTORE PUSH1 0x60 ADD SWAP1 JUMP JUMPDEST PUSH1 0x0 PUSH1 0x1 DUP3 ADD PUSH2 0x3DC6 JUMPI PUSH2 0x3DC6 PUSH2 0x3C0E JUMP JUMPDEST POP PUSH1 0x1 ADD SWAP1 JUMP JUMPDEST PUSH1 0x0 DUP3 PUSH2 0x3DEA JUMPI PUSH4 0x4E487B71 PUSH1 0xE0 SHL PUSH1 0x0 MSTORE PUSH1 0x12 PUSH1 0x4 MSTORE PUSH1 0x24 PUSH1 0x0 REVERT JUMPDEST POP DIV SWAP1 JUMP JUMPDEST DUP1 DUP3 MUL DUP2 ISZERO DUP3 DUP3 DIV DUP5 EQ OR PUSH2 0x78C JUMPI PUSH2 0x78C PUSH2 0x3C0E JUMP JUMPDEST DUP1 DUP3 ADD DUP1 DUP3 GT ISZERO PUSH2 0x78C JUMPI PUSH2 0x78C PUSH2 0x3C0E JUMP JUMPDEST PUSH1 0x20 DUP1 DUP3 MSTORE PUSH1 0x23 SWAP1 DUP3 ADD MSTORE PUSH32 0x596F752068617665206E6F742079657420736574757020796F7572206163636F PUSH1 0x40 DUP3 ADD MSTORE PUSH3 0x1D5B9D PUSH1 0xEA SHL PUSH1 0x60 DUP3 ADD MSTORE PUSH1 0x80 ADD SWAP1 JUMP JUMPDEST PUSH1 0x20 DUP1 DUP3 MSTORE PUSH1 0x2D SWAP1 DUP3 ADD MSTORE PUSH32 0x596F7520617265206E6F74207965742061206D656D626572206F662074686973 PUSH1 0x40 DUP3 ADD MSTORE PUSH13 0x1037B933B0B734B9B0BA34B7B7 PUSH1 0x99 SHL PUSH1 0x60 DUP3 ADD MSTORE PUSH1 0x80 ADD SWAP1 JUMP JUMPDEST PUSH1 0x20 DUP1 DUP3 MSTORE PUSH1 0x1B SWAP1 DUP3 ADD MSTORE PUSH32 0x4F7267616E69736174696F6E20646F6573206E6F742065786973740000000000 PUSH1 0x40 DUP3 ADD MSTORE PUSH1 0x60 ADD SWAP1 JUMP JUMPDEST PUSH1 0x20 DUP1 DUP3 MSTORE PUSH1 0x10 SWAP1 DUP3 ADD MSTORE PUSH16 0x109BDD5B9D1E481A185CC8195B991959 PUSH1 0x82 SHL PUSH1 0x40 DUP3 ADD MSTORE PUSH1 0x60 ADD SWAP1 JUMP JUMPDEST PUSH1 0x0 DUP1 DUP4 SLOAD PUSH2 0x3F18 DUP2 PUSH2 0x3AAE JUMP JUMPDEST PUSH1 0x1 DUP3 DUP2 AND DUP1 ISZERO PUSH2 0x3F30 JUMPI PUSH1 0x1 DUP2 EQ PUSH2 0x3F45 JUMPI PUSH2 0x3F74 JUMP JUMPDEST PUSH1 0xFF NOT DUP5 AND DUP8 MSTORE DUP3 ISZERO ISZERO DUP4 MUL DUP8 ADD SWAP5 POP PUSH2 0x3F74 JUMP JUMPDEST DUP8 PUSH1 0x0 MSTORE PUSH1 0x20 DUP1 PUSH1 0x0 KECCAK256 PUSH1 0x0 JUMPDEST DUP6 DUP2 LT ISZERO PUSH2 0x3F6B JUMPI DUP2 SLOAD DUP11 DUP3 ADD MSTORE SWAP1 DUP5 ADD SWAP1 DUP3 ADD PUSH2 0x3F52 JUMP JUMPDEST POP POP POP DUP3 DUP8 ADD SWAP5 POP JUMPDEST POP SWAP3 SWAP7 SWAP6 POP POP POP POP POP POP JUMP JUMPDEST DUP2 MLOAD PUSH8 0xFFFFFFFFFFFFFFFF DUP2 GT ISZERO PUSH2 0x3F9A JUMPI PUSH2 0x3F9A PUSH2 0x37DF JUMP JUMPDEST PUSH2 0x3FA8 DUP2 PUSH2 0x3CC1 DUP5 SLOAD PUSH2 0x3AAE JUMP JUMPDEST PUSH1 0x20 DUP1 PUSH1 0x1F DUP4 GT PUSH1 0x1 DUP2 EQ PUSH2 0x3FDD JUMPI PUSH1 0x0 DUP5 ISZERO PUSH2 0x3FC5 JUMPI POP DUP6 DUP4 ADD MLOAD JUMPDEST PUSH1 0x0 NOT PUSH1 0x3 DUP7 SWAP1 SHL SHR NOT AND PUSH1 0x1 DUP6 SWAP1 SHL OR DUP6 SSTORE PUSH2 0x3C7D JUMP JUMPDEST PUSH1 0x0 DUP6 DUP2 MSTORE PUSH1 0x20 DUP2 KECCAK256 PUSH1 0x1F NOT DUP7 AND SWAP2 JUMPDEST DUP3 DUP2 LT ISZERO PUSH2 0x400C JUMPI DUP9 DUP7 ADD MLOAD DUP3 SSTORE SWAP5 DUP5 ADD SWAP5 PUSH1 0x1 SWAP1 SWAP2 ADD SWAP1 DUP5 ADD PUSH2 0x3FED JUMP JUMPDEST POP DUP6 DUP3 LT ISZERO PUSH2 0x402A JUMPI DUP8 DUP6 ADD MLOAD PUSH1 0x0 NOT PUSH1 0x3 DUP9 SWAP1 SHL PUSH1 0xF8 AND SHR NOT AND DUP2 SSTORE JUMPDEST POP POP POP POP POP PUSH1 0x1 SWAP1 DUP2 SHL ADD SWAP1 SSTORE POP JUMP JUMPDEST DUP7 DUP2 MSTORE DUP6 PUSH1 0x20 DUP3 ADD MSTORE DUP5 PUSH1 0x40 DUP3 ADD MSTORE PUSH1 0xC0 PUSH1 0x60 DUP3 ADD MSTORE PUSH1 0x0 PUSH2 0x405F PUSH1 0xC0 DUP4 ADD DUP7 PUSH2 0x351A JUMP JUMPDEST SWAP4 ISZERO ISZERO PUSH1 0x80 DUP4 ADD MSTORE POP PUSH1 0xA0 ADD MSTORE SWAP5 SWAP4 POP POP POP POP JUMP JUMPDEST PUSH1 0x20 DUP1 DUP3 MSTORE PUSH1 0x27 SWAP1 DUP3 ADD MSTORE PUSH32 0x596F7520617265206E6F7420746865206F776E6572206F662074686520737562 PUSH1 0x40 DUP3 ADD MSTORE PUSH7 0x36B4B9B9B4B7B7 PUSH1 0xC9 SHL PUSH1 0x60 DUP3 ADD MSTORE PUSH1 0x80 ADD SWAP1 JUMP JUMPDEST DUP4 DUP2 MSTORE DUP3 PUSH1 0x20 DUP3 ADD MSTORE PUSH1 0x60 PUSH1 0x40 DUP3 ADD MSTORE PUSH1 0x0 PUSH2 0x168D PUSH1 0x60 DUP4 ADD DUP5 PUSH2 0x351A JUMP JUMPDEST DUP7 DUP2 MSTORE PUSH1 0xC0 PUSH1 0x20 DUP3 ADD MSTORE PUSH1 0x0 PUSH2 0x40F3 PUSH1 0xC0 DUP4 ADD DUP9 PUSH2 0x351A JUMP JUMPDEST DUP3 DUP2 SUB PUSH1 0x40 DUP5 ADD MSTORE PUSH2 0x4105 DUP2 DUP9 PUSH2 0x351A JUMP JUMPDEST PUSH1 0x60 DUP5 ADD SWAP7 SWAP1 SWAP7 MSTORE POP POP PUSH1 0x80 DUP2 ADD SWAP3 SWAP1 SWAP3 MSTORE PUSH1 0xA0 SWAP1 SWAP2 ADD MSTORE SWAP4 SWAP3 POP POP POP JUMP INVALID LOG2 PUSH5 0x6970667358 0x22 SLT KECCAK256 GASPRICE 0x5D JUMP CHAINID 0x4A SLOAD 0x2D REVERT SWAP13 PUSH26 0x86FB49137D53172D9C1F6A6A22C9D93547ED6EFAE71164736F6C PUSH4 0x43000812 STOP CALLER "},"methodIdentifiers":{"acceptSubmissions(uint256,uint256,address)":"def79c6c","createAccount()":"9dca362f","createBounty(uint256,string,string,uint256,uint256)":"f4156a25","createOrganisation(string,string)":"8b948381","deleteHunterSubmission(uint256,uint256)":"fb746580","getAllBountiesCount()":"9e6a5fa0","getBountyStatus(uint256,uint256)":"8a8485b8","getMemberCount()":"997072f7","getMembers()":"9eab5253","getOrganisation(uint256)":"75543074","getOrganisationBounties(uint256)":"10efb62e","getOrganisationMembers(uint256)":"895f750f","getOrganisations()":"eaffd429","getSubmissionCount()":"9999d2ae","getUserSubmission(uint256,uint256)":"1b202962","joinBounty(uint256,uint256)":"827369d9","joinOrganisation(uint256)":"f05c1d61","payBountyWinners(uint256,uint256)":"50ce1d9b","removeBounty(uint256,uint256)":"4efa0f4f","removeOrganization(uint256)":"a35eab0d","submitWork(uint256,uint256,string)":"c34f0cf7","updateSubmission(uint256,uint256,string)":"f0daac1c"}}}}}